{
  "contractName": "ERC20Mock",
  "abi": [
    {
      "inputs": [
        {
          "internalType": "string",
          "name": "name",
          "type": "string"
        },
        {
          "internalType": "string",
          "name": "symbol",
          "type": "string"
        },
        {
          "internalType": "address",
          "name": "initialAccount",
          "type": "address"
        },
        {
          "internalType": "uint256",
          "name": "initialBalance",
          "type": "uint256"
        }
      ],
      "stateMutability": "payable",
      "type": "constructor"
    },
    {
      "anonymous": false,
      "inputs": [
        {
          "indexed": true,
          "internalType": "address",
          "name": "owner",
          "type": "address"
        },
        {
          "indexed": true,
          "internalType": "address",
          "name": "spender",
          "type": "address"
        },
        {
          "indexed": false,
          "internalType": "uint256",
          "name": "value",
          "type": "uint256"
        }
      ],
      "name": "Approval",
      "type": "event"
    },
    {
      "anonymous": false,
      "inputs": [
        {
          "indexed": true,
          "internalType": "address",
          "name": "from",
          "type": "address"
        },
        {
          "indexed": true,
          "internalType": "address",
          "name": "to",
          "type": "address"
        },
        {
          "indexed": false,
          "internalType": "uint256",
          "name": "value",
          "type": "uint256"
        }
      ],
      "name": "Transfer",
      "type": "event"
    },
    {
      "inputs": [
        {
          "internalType": "address",
          "name": "owner",
          "type": "address"
        },
        {
          "internalType": "address",
          "name": "spender",
          "type": "address"
        }
      ],
      "name": "allowance",
      "outputs": [
        {
          "internalType": "uint256",
          "name": "",
          "type": "uint256"
        }
      ],
      "stateMutability": "view",
      "type": "function"
    },
    {
      "inputs": [
        {
          "internalType": "address",
          "name": "spender",
          "type": "address"
        },
        {
          "internalType": "uint256",
          "name": "amount",
          "type": "uint256"
        }
      ],
      "name": "approve",
      "outputs": [
        {
          "internalType": "bool",
          "name": "",
          "type": "bool"
        }
      ],
      "stateMutability": "nonpayable",
      "type": "function"
    },
    {
      "inputs": [
        {
          "internalType": "address",
          "name": "account",
          "type": "address"
        }
      ],
      "name": "balanceOf",
      "outputs": [
        {
          "internalType": "uint256",
          "name": "",
          "type": "uint256"
        }
      ],
      "stateMutability": "view",
      "type": "function"
    },
    {
      "inputs": [],
      "name": "decimals",
      "outputs": [
        {
          "internalType": "uint8",
          "name": "",
          "type": "uint8"
        }
      ],
      "stateMutability": "view",
      "type": "function"
    },
    {
      "inputs": [
        {
          "internalType": "address",
          "name": "spender",
          "type": "address"
        },
        {
          "internalType": "uint256",
          "name": "subtractedValue",
          "type": "uint256"
        }
      ],
      "name": "decreaseAllowance",
      "outputs": [
        {
          "internalType": "bool",
          "name": "",
          "type": "bool"
        }
      ],
      "stateMutability": "nonpayable",
      "type": "function"
    },
    {
      "inputs": [
        {
          "internalType": "address",
          "name": "spender",
          "type": "address"
        },
        {
          "internalType": "uint256",
          "name": "addedValue",
          "type": "uint256"
        }
      ],
      "name": "increaseAllowance",
      "outputs": [
        {
          "internalType": "bool",
          "name": "",
          "type": "bool"
        }
      ],
      "stateMutability": "nonpayable",
      "type": "function"
    },
    {
      "inputs": [],
      "name": "name",
      "outputs": [
        {
          "internalType": "string",
          "name": "",
          "type": "string"
        }
      ],
      "stateMutability": "view",
      "type": "function"
    },
    {
      "inputs": [],
      "name": "symbol",
      "outputs": [
        {
          "internalType": "string",
          "name": "",
          "type": "string"
        }
      ],
      "stateMutability": "view",
      "type": "function"
    },
    {
      "inputs": [],
      "name": "totalSupply",
      "outputs": [
        {
          "internalType": "uint256",
          "name": "",
          "type": "uint256"
        }
      ],
      "stateMutability": "view",
      "type": "function"
    },
    {
      "inputs": [
        {
          "internalType": "address",
          "name": "to",
          "type": "address"
        },
        {
          "internalType": "uint256",
          "name": "amount",
          "type": "uint256"
        }
      ],
      "name": "transfer",
      "outputs": [
        {
          "internalType": "bool",
          "name": "",
          "type": "bool"
        }
      ],
      "stateMutability": "nonpayable",
      "type": "function"
    },
    {
      "inputs": [
        {
          "internalType": "address",
          "name": "from",
          "type": "address"
        },
        {
          "internalType": "address",
          "name": "to",
          "type": "address"
        },
        {
          "internalType": "uint256",
          "name": "amount",
          "type": "uint256"
        }
      ],
      "name": "transferFrom",
      "outputs": [
        {
          "internalType": "bool",
          "name": "",
          "type": "bool"
        }
      ],
      "stateMutability": "nonpayable",
      "type": "function"
    },
    {
      "inputs": [
        {
          "internalType": "address",
          "name": "account",
          "type": "address"
        },
        {
          "internalType": "uint256",
          "name": "amount",
          "type": "uint256"
        }
      ],
      "name": "mint",
      "outputs": [],
      "stateMutability": "nonpayable",
      "type": "function"
    },
    {
      "inputs": [
        {
          "internalType": "address",
          "name": "account",
          "type": "address"
        },
        {
          "internalType": "uint256",
          "name": "amount",
          "type": "uint256"
        }
      ],
      "name": "burn",
      "outputs": [],
      "stateMutability": "nonpayable",
      "type": "function"
    },
    {
      "inputs": [
        {
          "internalType": "address",
          "name": "from",
          "type": "address"
        },
        {
          "internalType": "address",
          "name": "to",
          "type": "address"
        },
        {
          "internalType": "uint256",
          "name": "value",
          "type": "uint256"
        }
      ],
      "name": "transferInternal",
      "outputs": [],
      "stateMutability": "nonpayable",
      "type": "function"
    },
    {
      "inputs": [
        {
          "internalType": "address",
          "name": "owner",
          "type": "address"
        },
        {
          "internalType": "address",
          "name": "spender",
          "type": "address"
        },
        {
          "internalType": "uint256",
          "name": "value",
          "type": "uint256"
        }
      ],
      "name": "approveInternal",
      "outputs": [],
      "stateMutability": "nonpayable",
      "type": "function"
    },
    {
      "inputs": [
        {
          "internalType": "address",
          "name": "to",
          "type": "address"
        },
        {
          "internalType": "uint256",
          "name": "value",
          "type": "uint256"
        },
        {
          "internalType": "bytes",
          "name": "data",
          "type": "bytes"
        }
      ],
      "name": "transferAndCall",
      "outputs": [
        {
          "internalType": "bool",
          "name": "success",
          "type": "bool"
        }
      ],
      "stateMutability": "pure",
      "type": "function"
    }
  ],
  "bytecode": "0x6080604052604051620021ac380380620021ac8339818101604052810190620000299190620004ea565b8383816003908051906020019062000043929190620001fd565b5080600490805190602001906200005c929190620001fd565b5050506200007182826200007b60201b60201c565b505050506200073b565b600073ffffffffffffffffffffffffffffffffffffffff168273ffffffffffffffffffffffffffffffffffffffff1603620000ed576040517f08c379a0000000000000000000000000000000000000000000000000000000008152600401620000e490620005fb565b60405180910390fd5b6200010160008383620001f360201b60201c565b80600260008282546200011591906200064c565b92505081905550806000808473ffffffffffffffffffffffffffffffffffffffff1673ffffffffffffffffffffffffffffffffffffffff16815260200190815260200160002060008282546200016c91906200064c565b925050819055508173ffffffffffffffffffffffffffffffffffffffff16600073ffffffffffffffffffffffffffffffffffffffff167fddf252ad1be2c89b69c2b068fc378daa952ba7f163c4a11628f55a4df523b3ef83604051620001d39190620006ba565b60405180910390a3620001ef60008383620001f860201b60201c565b5050565b505050565b505050565b8280546200020b9062000706565b90600052602060002090601f0160209004810192826200022f57600085556200027b565b82601f106200024a57805160ff19168380011785556200027b565b828001600101855582156200027b579182015b828111156200027a5782518255916020019190600101906200025d565b5b5090506200028a91906200028e565b5090565b5b80821115620002a95760008160009055506001016200028f565b5090565b6000604051905090565b600080fd5b600080fd5b600080fd5b600080fd5b6000601f19601f8301169050919050565b7f4e487b7100000000000000000000000000000000000000000000000000000000600052604160045260246000fd5b6200031682620002cb565b810181811067ffffffffffffffff82111715620003385762000337620002dc565b5b80604052505050565b60006200034d620002ad565b90506200035b82826200030b565b919050565b600067ffffffffffffffff8211156200037e576200037d620002dc565b5b6200038982620002cb565b9050602081019050919050565b60005b83811015620003b657808201518184015260208101905062000399565b83811115620003c6576000848401525b50505050565b6000620003e3620003dd8462000360565b62000341565b905082815260208101848484011115620004025762000401620002c6565b5b6200040f84828562000396565b509392505050565b600082601f8301126200042f576200042e620002c1565b5b815162000441848260208601620003cc565b91505092915050565b600073ffffffffffffffffffffffffffffffffffffffff82169050919050565b600062000477826200044a565b9050919050565b62000489816200046a565b81146200049557600080fd5b50565b600081519050620004a9816200047e565b92915050565b6000819050919050565b620004c481620004af565b8114620004d057600080fd5b50565b600081519050620004e481620004b9565b92915050565b60008060008060808587031215620005075762000506620002b7565b5b600085015167ffffffffffffffff811115620005285762000527620002bc565b5b620005368782880162000417565b945050602085015167ffffffffffffffff8111156200055a5762000559620002bc565b5b620005688782880162000417565b93505060406200057b8782880162000498565b92505060606200058e87828801620004d3565b91505092959194509250565b600082825260208201905092915050565b7f45524332303a206d696e7420746f20746865207a65726f206164647265737300600082015250565b6000620005e3601f836200059a565b9150620005f082620005ab565b602082019050919050565b600060208201905081810360008301526200061681620005d4565b9050919050565b7f4e487b7100000000000000000000000000000000000000000000000000000000600052601160045260246000fd5b60006200065982620004af565b91506200066683620004af565b9250827fffffffffffffffffffffffffffffffffffffffffffffffffffffffffffffffff038211156200069e576200069d6200061d565b5b828201905092915050565b620006b481620004af565b82525050565b6000602082019050620006d16000830184620006a9565b92915050565b7f4e487b7100000000000000000000000000000000000000000000000000000000600052602260045260246000fd5b600060028204905060018216806200071f57607f821691505b602082108103620007355762000734620006d7565b5b50919050565b611a61806200074b6000396000f3fe608060405234801561001057600080fd5b50600436106101005760003560e01c806340c10f19116100975780639dc29fac116100665780639dc29fac146102c1578063a457c2d7146102dd578063a9059cbb1461030d578063dd62ed3e1461033d57610100565b806340c10f191461023b57806356189cb41461025757806370a082311461027357806395d89b41146102a357610100565b806323b872dd116100d357806323b872dd1461018d578063313ce567146101bd57806339509351146101db5780634000aea01461020b57610100565b806306fdde0314610105578063095ea7b31461012357806318160ddd14610153578063222f5be014610171575b600080fd5b61010d61036d565b60405161011a919061107a565b60405180910390f35b61013d6004803603810190610138919061113a565b6103ff565b60405161014a9190611195565b60405180910390f35b61015b610422565b60405161016891906111bf565b60405180910390f35b61018b600480360381019061018691906111da565b61042c565b005b6101a760048036038101906101a291906111da565b61043c565b6040516101b49190611195565b60405180910390f35b6101c561046b565b6040516101d29190611249565b60405180910390f35b6101f560048036038101906101f0919061113a565b610474565b6040516102029190611195565b60405180910390f35b610225600480360381019061022091906112c9565b61051e565b6040516102329190611195565b60405180910390f35b6102556004803603810190610250919061113a565b61052c565b005b610271600480360381019061026c91906111da565b61053a565b005b61028d6004803603810190610288919061133d565b61054a565b60405161029a91906111bf565b60405180910390f35b6102ab610592565b6040516102b8919061107a565b60405180910390f35b6102db60048036038101906102d6919061113a565b610624565b005b6102f760048036038101906102f2919061113a565b610632565b6040516103049190611195565b60405180910390f35b6103276004803603810190610322919061113a565b61071c565b6040516103349190611195565b60405180910390f35b6103576004803603810190610352919061136a565b61073f565b60405161036491906111bf565b60405180910390f35b60606003805461037c906113d9565b80601f01602080910402602001604051908101604052809291908181526020018280546103a8906113d9565b80156103f55780601f106103ca576101008083540402835291602001916103f5565b820191906000526020600020905b8154815290600101906020018083116103d857829003601f168201915b5050505050905090565b60008061040a6107c6565b90506104178185856107ce565b600191505092915050565b6000600254905090565b610437838383610997565b505050565b6000806104476107c6565b9050610454858285610c16565b61045f858585610997565b60019150509392505050565b60006012905090565b60008061047f6107c6565b9050610513818585600160008673ffffffffffffffffffffffffffffffffffffffff1673ffffffffffffffffffffffffffffffffffffffff16815260200190815260200160002060008973ffffffffffffffffffffffffffffffffffffffff1673ffffffffffffffffffffffffffffffffffffffff1681526020019081526020016000205461050e9190611439565b6107ce565b600191505092915050565b600060019050949350505050565b6105368282610ca2565b5050565b6105458383836107ce565b505050565b60008060008373ffffffffffffffffffffffffffffffffffffffff1673ffffffffffffffffffffffffffffffffffffffff168152602001908152602001600020549050919050565b6060600480546105a1906113d9565b80601f01602080910402602001604051908101604052809291908181526020018280546105cd906113d9565b801561061a5780601f106105ef5761010080835404028352916020019161061a565b820191906000526020600020905b8154815290600101906020018083116105fd57829003601f168201915b5050505050905090565b61062e8282610e01565b5050565b60008061063d6107c6565b90506000600160008373ffffffffffffffffffffffffffffffffffffffff1673ffffffffffffffffffffffffffffffffffffffff16815260200190815260200160002060008673ffffffffffffffffffffffffffffffffffffffff1673ffffffffffffffffffffffffffffffffffffffff16815260200190815260200160002054905083811015610703576040517f08c379a00000000000000000000000000000000000000000000000000000000081526004016106fa90611501565b60405180910390fd5b61071082868684036107ce565b60019250505092915050565b6000806107276107c6565b9050610734818585610997565b600191505092915050565b6000600160008473ffffffffffffffffffffffffffffffffffffffff1673ffffffffffffffffffffffffffffffffffffffff16815260200190815260200160002060008373ffffffffffffffffffffffffffffffffffffffff1673ffffffffffffffffffffffffffffffffffffffff16815260200190815260200160002054905092915050565b600033905090565b600073ffffffffffffffffffffffffffffffffffffffff168373ffffffffffffffffffffffffffffffffffffffff160361083d576040517f08c379a000000000000000000000000000000000000000000000000000000000815260040161083490611593565b60405180910390fd5b600073ffffffffffffffffffffffffffffffffffffffff168273ffffffffffffffffffffffffffffffffffffffff16036108ac576040517f08c379a00000000000000000000000000000000000000000000000000000000081526004016108a390611625565b60405180910390fd5b80600160008573ffffffffffffffffffffffffffffffffffffffff1673ffffffffffffffffffffffffffffffffffffffff16815260200190815260200160002060008473ffffffffffffffffffffffffffffffffffffffff1673ffffffffffffffffffffffffffffffffffffffff168152602001908152602001600020819055508173ffffffffffffffffffffffffffffffffffffffff168373ffffffffffffffffffffffffffffffffffffffff167f8c5be1e5ebec7d5bd14f71427d1e84f3dd0314c0f7b2291e5b200ac8c7c3b9258360405161098a91906111bf565b60405180910390a3505050565b600073ffffffffffffffffffffffffffffffffffffffff168373ffffffffffffffffffffffffffffffffffffffff1603610a06576040517f08c379a00000000000000000000000000000000000000000000000000000000081526004016109fd906116b7565b60405180910390fd5b600073ffffffffffffffffffffffffffffffffffffffff168273ffffffffffffffffffffffffffffffffffffffff1603610a75576040517f08c379a0000000000000000000000000000000000000000000000000000000008152600401610a6c90611749565b60405180910390fd5b610a80838383610fd7565b60008060008573ffffffffffffffffffffffffffffffffffffffff1673ffffffffffffffffffffffffffffffffffffffff16815260200190815260200160002054905081811015610b06576040517f08c379a0000000000000000000000000000000000000000000000000000000008152600401610afd906117db565b60405180910390fd5b8181036000808673ffffffffffffffffffffffffffffffffffffffff1673ffffffffffffffffffffffffffffffffffffffff16815260200190815260200160002081905550816000808573ffffffffffffffffffffffffffffffffffffffff1673ffffffffffffffffffffffffffffffffffffffff1681526020019081526020016000206000828254610b999190611439565b925050819055508273ffffffffffffffffffffffffffffffffffffffff168473ffffffffffffffffffffffffffffffffffffffff167fddf252ad1be2c89b69c2b068fc378daa952ba7f163c4a11628f55a4df523b3ef84604051610bfd91906111bf565b60405180910390a3610c10848484610fdc565b50505050565b6000610c22848461073f565b90507fffffffffffffffffffffffffffffffffffffffffffffffffffffffffffffffff8114610c9c5781811015610c8e576040517f08c379a0000000000000000000000000000000000000000000000000000000008152600401610c8590611847565b60405180910390fd5b610c9b84848484036107ce565b5b50505050565b600073ffffffffffffffffffffffffffffffffffffffff168273ffffffffffffffffffffffffffffffffffffffff1603610d11576040517f08c379a0000000000000000000000000000000000000000000000000000000008152600401610d08906118b3565b60405180910390fd5b610d1d60008383610fd7565b8060026000828254610d2f9190611439565b92505081905550806000808473ffffffffffffffffffffffffffffffffffffffff1673ffffffffffffffffffffffffffffffffffffffff1681526020019081526020016000206000828254610d849190611439565b925050819055508173ffffffffffffffffffffffffffffffffffffffff16600073ffffffffffffffffffffffffffffffffffffffff167fddf252ad1be2c89b69c2b068fc378daa952ba7f163c4a11628f55a4df523b3ef83604051610de991906111bf565b60405180910390a3610dfd60008383610fdc565b5050565b600073ffffffffffffffffffffffffffffffffffffffff168273ffffffffffffffffffffffffffffffffffffffff1603610e70576040517f08c379a0000000000000000000000000000000000000000000000000000000008152600401610e6790611945565b60405180910390fd5b610e7c82600083610fd7565b60008060008473ffffffffffffffffffffffffffffffffffffffff1673ffffffffffffffffffffffffffffffffffffffff16815260200190815260200160002054905081811015610f02576040517f08c379a0000000000000000000000000000000000000000000000000000000008152600401610ef9906119d7565b60405180910390fd5b8181036000808573ffffffffffffffffffffffffffffffffffffffff1673ffffffffffffffffffffffffffffffffffffffff168152602001908152602001600020819055508160026000828254610f5991906119f7565b92505081905550600073ffffffffffffffffffffffffffffffffffffffff168373ffffffffffffffffffffffffffffffffffffffff167fddf252ad1be2c89b69c2b068fc378daa952ba7f163c4a11628f55a4df523b3ef84604051610fbe91906111bf565b60405180910390a3610fd283600084610fdc565b505050565b505050565b505050565b600081519050919050565b600082825260208201905092915050565b60005b8381101561101b578082015181840152602081019050611000565b8381111561102a576000848401525b50505050565b6000601f19601f8301169050919050565b600061104c82610fe1565b6110568185610fec565b9350611066818560208601610ffd565b61106f81611030565b840191505092915050565b600060208201905081810360008301526110948184611041565b905092915050565b600080fd5b600080fd5b600073ffffffffffffffffffffffffffffffffffffffff82169050919050565b60006110d1826110a6565b9050919050565b6110e1816110c6565b81146110ec57600080fd5b50565b6000813590506110fe816110d8565b92915050565b6000819050919050565b61111781611104565b811461112257600080fd5b50565b6000813590506111348161110e565b92915050565b600080604083850312156111515761115061109c565b5b600061115f858286016110ef565b925050602061117085828601611125565b9150509250929050565b60008115159050919050565b61118f8161117a565b82525050565b60006020820190506111aa6000830184611186565b92915050565b6111b981611104565b82525050565b60006020820190506111d460008301846111b0565b92915050565b6000806000606084860312156111f3576111f261109c565b5b6000611201868287016110ef565b9350506020611212868287016110ef565b925050604061122386828701611125565b9150509250925092565b600060ff82169050919050565b6112438161122d565b82525050565b600060208201905061125e600083018461123a565b92915050565b600080fd5b600080fd5b600080fd5b60008083601f84011261128957611288611264565b5b8235905067ffffffffffffffff8111156112a6576112a5611269565b5b6020830191508360018202830111156112c2576112c161126e565b5b9250929050565b600080600080606085870312156112e3576112e261109c565b5b60006112f1878288016110ef565b945050602061130287828801611125565b935050604085013567ffffffffffffffff811115611323576113226110a1565b5b61132f87828801611273565b925092505092959194509250565b6000602082840312156113535761135261109c565b5b6000611361848285016110ef565b91505092915050565b600080604083850312156113815761138061109c565b5b600061138f858286016110ef565b92505060206113a0858286016110ef565b9150509250929050565b7f4e487b7100000000000000000000000000000000000000000000000000000000600052602260045260246000fd5b600060028204905060018216806113f157607f821691505b602082108103611404576114036113aa565b5b50919050565b7f4e487b7100000000000000000000000000000000000000000000000000000000600052601160045260246000fd5b600061144482611104565b915061144f83611104565b9250827fffffffffffffffffffffffffffffffffffffffffffffffffffffffffffffffff038211156114845761148361140a565b5b828201905092915050565b7f45524332303a2064656372656173656420616c6c6f77616e63652062656c6f7760008201527f207a65726f000000000000000000000000000000000000000000000000000000602082015250565b60006114eb602583610fec565b91506114f68261148f565b604082019050919050565b6000602082019050818103600083015261151a816114de565b9050919050565b7f45524332303a20617070726f76652066726f6d20746865207a65726f2061646460008201527f7265737300000000000000000000000000000000000000000000000000000000602082015250565b600061157d602483610fec565b915061158882611521565b604082019050919050565b600060208201905081810360008301526115ac81611570565b9050919050565b7f45524332303a20617070726f766520746f20746865207a65726f20616464726560008201527f7373000000000000000000000000000000000000000000000000000000000000602082015250565b600061160f602283610fec565b915061161a826115b3565b604082019050919050565b6000602082019050818103600083015261163e81611602565b9050919050565b7f45524332303a207472616e736665722066726f6d20746865207a65726f20616460008201527f6472657373000000000000000000000000000000000000000000000000000000602082015250565b60006116a1602583610fec565b91506116ac82611645565b604082019050919050565b600060208201905081810360008301526116d081611694565b9050919050565b7f45524332303a207472616e7366657220746f20746865207a65726f206164647260008201527f6573730000000000000000000000000000000000000000000000000000000000602082015250565b6000611733602383610fec565b915061173e826116d7565b604082019050919050565b6000602082019050818103600083015261176281611726565b9050919050565b7f45524332303a207472616e7366657220616d6f756e742065786365656473206260008201527f616c616e63650000000000000000000000000000000000000000000000000000602082015250565b60006117c5602683610fec565b91506117d082611769565b604082019050919050565b600060208201905081810360008301526117f4816117b8565b9050919050565b7f45524332303a20696e73756666696369656e7420616c6c6f77616e6365000000600082015250565b6000611831601d83610fec565b915061183c826117fb565b602082019050919050565b6000602082019050818103600083015261186081611824565b9050919050565b7f45524332303a206d696e7420746f20746865207a65726f206164647265737300600082015250565b600061189d601f83610fec565b91506118a882611867565b602082019050919050565b600060208201905081810360008301526118cc81611890565b9050919050565b7f45524332303a206275726e2066726f6d20746865207a65726f2061646472657360008201527f7300000000000000000000000000000000000000000000000000000000000000602082015250565b600061192f602183610fec565b915061193a826118d3565b604082019050919050565b6000602082019050818103600083015261195e81611922565b9050919050565b7f45524332303a206275726e20616d6f756e7420657863656564732062616c616e60008201527f6365000000000000000000000000000000000000000000000000000000000000602082015250565b60006119c1602283610fec565b91506119cc82611965565b604082019050919050565b600060208201905081810360008301526119f0816119b4565b9050919050565b6000611a0282611104565b9150611a0d83611104565b925082821015611a2057611a1f61140a565b5b82820390509291505056fea26469706673582212206f4d20c24699d172b21f7f9c4f123a1a5e320ecddbefb094b9eff2f17375bbdc64736f6c634300080e0033",
  "immutableReferences": {},
  "source": "//SPDX-License-Identifier: MIT\r\npragma solidity ^0.8.0;\r\n\r\nimport \"@openzeppelin/contracts/token/ERC20/ERC20.sol\";\r\n\r\n/**\r\n * @dev THIS CONTRACT IS FOR TESTING PURPOSES ONLY.\r\n */\r\ncontract ERC20Mock is ERC20 {\r\n    constructor(\r\n        string memory name,\r\n        string memory symbol,\r\n        address initialAccount,\r\n        uint256 initialBalance\r\n    ) payable ERC20(name, symbol) {\r\n        _mint(initialAccount, initialBalance);\r\n    }\r\n\r\n    function mint(address account, uint256 amount) public {\r\n        _mint(account, amount);\r\n    }\r\n\r\n    function burn(address account, uint256 amount) public {\r\n        _burn(account, amount);\r\n    }\r\n\r\n    function transferInternal(\r\n        address from,\r\n        address to,\r\n        uint256 value\r\n    ) public {\r\n        _transfer(from, to, value);\r\n    }\r\n\r\n    function approveInternal(\r\n        address owner,\r\n        address spender,\r\n        uint256 value\r\n    ) public {\r\n        _approve(owner, spender, value);\r\n    }\r\n\r\n    /**\r\n     * @dev This function is only here to accommodate nested Link token\r\n     *      functionality required in mocking the random number calls.\r\n     */\r\n    function transferAndCall(\r\n        address to,\r\n        uint256 value,\r\n        bytes calldata data\r\n    ) external pure returns (bool success) {\r\n        return true;\r\n    }\r\n}\r\n",
  "sourcePath": "D:\\contract-xosoblockchain\\contracts\\ERC20Mock.sol",
  "compiler": {
    "name": "solc",
    "version": "0.8.14+commit.80d49f37.Emscripten.clang"
  },
  "schemaVersion": "3.4.5",
  "updatedAt": "2022-05-30T07:34:50.364Z",
  "devdoc": {
    "details": "THIS CONTRACT IS FOR TESTING PURPOSES ONLY.",
    "kind": "dev",
    "methods": {
      "allowance(address,address)": {
        "details": "See {IERC20-allowance}."
      },
      "approve(address,uint256)": {
        "details": "See {IERC20-approve}. NOTE: If `amount` is the maximum `uint256`, the allowance is not updated on `transferFrom`. This is semantically equivalent to an infinite approval. Requirements: - `spender` cannot be the zero address."
      },
      "balanceOf(address)": {
        "details": "See {IERC20-balanceOf}."
      },
      "decimals()": {
        "details": "Returns the number of decimals used to get its user representation. For example, if `decimals` equals `2`, a balance of `505` tokens should be displayed to a user as `5.05` (`505 / 10 ** 2`). Tokens usually opt for a value of 18, imitating the relationship between Ether and Wei. This is the value {ERC20} uses, unless this function is overridden; NOTE: This information is only used for _display_ purposes: it in no way affects any of the arithmetic of the contract, including {IERC20-balanceOf} and {IERC20-transfer}."
      },
      "decreaseAllowance(address,uint256)": {
        "details": "Atomically decreases the allowance granted to `spender` by the caller. This is an alternative to {approve} that can be used as a mitigation for problems described in {IERC20-approve}. Emits an {Approval} event indicating the updated allowance. Requirements: - `spender` cannot be the zero address. - `spender` must have allowance for the caller of at least `subtractedValue`."
      },
      "increaseAllowance(address,uint256)": {
        "details": "Atomically increases the allowance granted to `spender` by the caller. This is an alternative to {approve} that can be used as a mitigation for problems described in {IERC20-approve}. Emits an {Approval} event indicating the updated allowance. Requirements: - `spender` cannot be the zero address."
      },
      "name()": {
        "details": "Returns the name of the token."
      },
      "symbol()": {
        "details": "Returns the symbol of the token, usually a shorter version of the name."
      },
      "totalSupply()": {
        "details": "See {IERC20-totalSupply}."
      },
      "transfer(address,uint256)": {
        "details": "See {IERC20-transfer}. Requirements: - `to` cannot be the zero address. - the caller must have a balance of at least `amount`."
      },
      "transferAndCall(address,uint256,bytes)": {
        "details": "This function is only here to accommodate nested Link token      functionality required in mocking the random number calls."
      },
      "transferFrom(address,address,uint256)": {
        "details": "See {IERC20-transferFrom}. Emits an {Approval} event indicating the updated allowance. This is not required by the EIP. See the note at the beginning of {ERC20}. NOTE: Does not update the allowance if the current allowance is the maximum `uint256`. Requirements: - `from` and `to` cannot be the zero address. - `from` must have a balance of at least `amount`. - the caller must have allowance for ``from``'s tokens of at least `amount`."
      }
    },
    "version": 1
  },
  "userdoc": {
    "kind": "user",
    "methods": {},
    "version": 1
  }
}