{
  "contractName": "Lottery",
  "abi": [
    {
      "inputs": [
        {
          "internalType": "address",
          "name": "_usdt",
          "type": "address"
        }
      ],
      "stateMutability": "nonpayable",
      "type": "constructor"
    },
    {
      "anonymous": false,
      "inputs": [
        {
          "indexed": false,
          "internalType": "uint256",
          "name": "lotteryId",
          "type": "uint256"
        },
        {
          "indexed": false,
          "internalType": "uint256",
          "name": "ticketSupply",
          "type": "uint256"
        },
        {
          "indexed": false,
          "internalType": "uint8",
          "name": "finalNumber",
          "type": "uint8"
        },
        {
          "components": [
            {
              "internalType": "address",
              "name": "owner",
              "type": "address"
            },
            {
              "internalType": "uint8",
              "name": "numbers",
              "type": "uint8"
            },
            {
              "internalType": "uint256",
              "name": "lotteryId",
              "type": "uint256"
            },
            {
              "internalType": "uint8",
              "name": "numberOfTickets",
              "type": "uint8"
            },
            {
              "internalType": "uint256",
              "name": "winAmount",
              "type": "uint256"
            },
            {
              "internalType": "uint256",
              "name": "buyAt",
              "type": "uint256"
            }
          ],
          "indexed": false,
          "internalType": "struct ITicketNFT.TicketInfo[]",
          "name": "winningTickets",
          "type": "tuple[]"
        }
      ],
      "name": "LotteryClose",
      "type": "event"
    },
    {
      "anonymous": false,
      "inputs": [
        {
          "indexed": false,
          "internalType": "uint256",
          "name": "lotteryId",
          "type": "uint256"
        },
        {
          "indexed": false,
          "internalType": "uint256",
          "name": "ticketSupply",
          "type": "uint256"
        }
      ],
      "name": "LotteryOpen",
      "type": "event"
    },
    {
      "anonymous": false,
      "inputs": [
        {
          "indexed": true,
          "internalType": "address",
          "name": "previousOwner",
          "type": "address"
        },
        {
          "indexed": true,
          "internalType": "address",
          "name": "newOwner",
          "type": "address"
        }
      ],
      "name": "OwnershipTransferred",
      "type": "event"
    },
    {
      "anonymous": false,
      "inputs": [
        {
          "indexed": false,
          "internalType": "uint256",
          "name": "currentPrizePool",
          "type": "uint256"
        },
        {
          "indexed": false,
          "internalType": "uint256",
          "name": "currentLotteryId",
          "type": "uint256"
        }
      ],
      "name": "PrizePoolChanged",
      "type": "event"
    },
    {
      "anonymous": false,
      "inputs": [
        {
          "indexed": false,
          "internalType": "uint256",
          "name": "lotteryId",
          "type": "uint256"
        },
        {
          "indexed": false,
          "internalType": "bytes32",
          "name": "requestId",
          "type": "bytes32"
        }
      ],
      "name": "RequestNumbers",
      "type": "event"
    },
    {
      "inputs": [],
      "name": "MAX_NUMBER_TICKETS_PER_BUY",
      "outputs": [
        {
          "internalType": "uint256",
          "name": "",
          "type": "uint256"
        }
      ],
      "stateMutability": "view",
      "type": "function",
      "constant": true
    },
    {
      "inputs": [],
      "name": "MAX_TREASURY_FEE",
      "outputs": [
        {
          "internalType": "uint256",
          "name": "",
          "type": "uint256"
        }
      ],
      "stateMutability": "view",
      "type": "function",
      "constant": true
    },
    {
      "inputs": [],
      "name": "operatorAddress",
      "outputs": [
        {
          "internalType": "address",
          "name": "",
          "type": "address"
        }
      ],
      "stateMutability": "view",
      "type": "function",
      "constant": true
    },
    {
      "inputs": [],
      "name": "owner",
      "outputs": [
        {
          "internalType": "address",
          "name": "",
          "type": "address"
        }
      ],
      "stateMutability": "view",
      "type": "function",
      "constant": true
    },
    {
      "inputs": [],
      "name": "renounceOwnership",
      "outputs": [],
      "stateMutability": "nonpayable",
      "type": "function"
    },
    {
      "inputs": [
        {
          "internalType": "address",
          "name": "newOwner",
          "type": "address"
        }
      ],
      "name": "transferOwnership",
      "outputs": [],
      "stateMutability": "nonpayable",
      "type": "function"
    },
    {
      "inputs": [],
      "name": "treasuryAddress",
      "outputs": [
        {
          "internalType": "address",
          "name": "",
          "type": "address"
        }
      ],
      "stateMutability": "view",
      "type": "function",
      "constant": true
    },
    {
      "inputs": [
        {
          "internalType": "address",
          "name": "_TicketNFT",
          "type": "address"
        },
        {
          "internalType": "address",
          "name": "_IRandomNumberGenerator",
          "type": "address"
        }
      ],
      "name": "initialize",
      "outputs": [],
      "stateMutability": "nonpayable",
      "type": "function"
    },
    {
      "inputs": [
        {
          "internalType": "uint256",
          "name": "_lotteryId",
          "type": "uint256"
        },
        {
          "internalType": "uint256",
          "name": "_numberOfTickets",
          "type": "uint256"
        }
      ],
      "name": "costToBuyTickets",
      "outputs": [
        {
          "internalType": "uint256",
          "name": "totalCost",
          "type": "uint256"
        }
      ],
      "stateMutability": "view",
      "type": "function",
      "constant": true
    },
    {
      "inputs": [
        {
          "internalType": "uint256",
          "name": "_lotteryId",
          "type": "uint256"
        }
      ],
      "name": "getBasicLottoInfo",
      "outputs": [
        {
          "components": [
            {
              "internalType": "uint256",
              "name": "prizePool",
              "type": "uint256"
            },
            {
              "internalType": "uint256",
              "name": "lotteryID",
              "type": "uint256"
            },
            {
              "internalType": "enum Lottery.Status",
              "name": "lotteryStatus",
              "type": "uint8"
            },
            {
              "internalType": "uint256",
              "name": "amountCollectedInUSDT",
              "type": "uint256"
            },
            {
              "internalType": "uint256",
              "name": "costPerTicket",
              "type": "uint256"
            },
            {
              "internalType": "uint256",
              "name": "startingTimestamp",
              "type": "uint256"
            },
            {
              "internalType": "uint256",
              "name": "closingTimestamp",
              "type": "uint256"
            },
            {
              "internalType": "uint8",
              "name": "winningNumbers",
              "type": "uint8"
            },
            {
              "internalType": "uint256",
              "name": "treasuryFee",
              "type": "uint256"
            },
            {
              "internalType": "uint256",
              "name": "firstTicketId",
              "type": "uint256"
            }
          ],
          "internalType": "struct Lottery.LottoInfo",
          "name": "",
          "type": "tuple"
        }
      ],
      "stateMutability": "view",
      "type": "function",
      "constant": true
    },
    {
      "inputs": [],
      "name": "getCurrentLottoInfo",
      "outputs": [
        {
          "components": [
            {
              "internalType": "uint256",
              "name": "prizePool",
              "type": "uint256"
            },
            {
              "internalType": "uint256",
              "name": "lotteryID",
              "type": "uint256"
            },
            {
              "internalType": "enum Lottery.Status",
              "name": "lotteryStatus",
              "type": "uint8"
            },
            {
              "internalType": "uint256",
              "name": "amountCollectedInUSDT",
              "type": "uint256"
            },
            {
              "internalType": "uint256",
              "name": "costPerTicket",
              "type": "uint256"
            },
            {
              "internalType": "uint256",
              "name": "startingTimestamp",
              "type": "uint256"
            },
            {
              "internalType": "uint256",
              "name": "closingTimestamp",
              "type": "uint256"
            },
            {
              "internalType": "uint8",
              "name": "winningNumbers",
              "type": "uint8"
            },
            {
              "internalType": "uint256",
              "name": "treasuryFee",
              "type": "uint256"
            },
            {
              "internalType": "uint256",
              "name": "firstTicketId",
              "type": "uint256"
            }
          ],
          "internalType": "struct Lottery.LottoInfo",
          "name": "",
          "type": "tuple"
        }
      ],
      "stateMutability": "view",
      "type": "function",
      "constant": true
    },
    {
      "inputs": [],
      "name": "getAllLotteries",
      "outputs": [
        {
          "components": [
            {
              "internalType": "uint256",
              "name": "prizePool",
              "type": "uint256"
            },
            {
              "internalType": "uint256",
              "name": "lotteryID",
              "type": "uint256"
            },
            {
              "internalType": "enum Lottery.Status",
              "name": "lotteryStatus",
              "type": "uint8"
            },
            {
              "internalType": "uint256",
              "name": "amountCollectedInUSDT",
              "type": "uint256"
            },
            {
              "internalType": "uint256",
              "name": "costPerTicket",
              "type": "uint256"
            },
            {
              "internalType": "uint256",
              "name": "startingTimestamp",
              "type": "uint256"
            },
            {
              "internalType": "uint256",
              "name": "closingTimestamp",
              "type": "uint256"
            },
            {
              "internalType": "uint8",
              "name": "winningNumbers",
              "type": "uint8"
            },
            {
              "internalType": "uint256",
              "name": "treasuryFee",
              "type": "uint256"
            },
            {
              "internalType": "uint256",
              "name": "firstTicketId",
              "type": "uint256"
            }
          ],
          "internalType": "struct Lottery.LottoInfo[]",
          "name": "",
          "type": "tuple[]"
        }
      ],
      "stateMutability": "view",
      "type": "function",
      "constant": true
    },
    {
      "inputs": [],
      "name": "viewCurrentLotteryId",
      "outputs": [
        {
          "internalType": "uint256",
          "name": "",
          "type": "uint256"
        }
      ],
      "stateMutability": "view",
      "type": "function",
      "constant": true
    },
    {
      "inputs": [
        {
          "internalType": "uint256",
          "name": "_costPerTicket",
          "type": "uint256"
        },
        {
          "internalType": "uint256",
          "name": "_closingTimestamp",
          "type": "uint256"
        },
        {
          "internalType": "uint256",
          "name": "_treasuryFee",
          "type": "uint256"
        }
      ],
      "name": "startLottery",
      "outputs": [
        {
          "internalType": "uint256",
          "name": "lotteryId",
          "type": "uint256"
        }
      ],
      "stateMutability": "nonpayable",
      "type": "function"
    },
    {
      "inputs": [
        {
          "internalType": "uint256",
          "name": "_amount",
          "type": "uint256"
        }
      ],
      "name": "withdrawUSDT",
      "outputs": [],
      "stateMutability": "nonpayable",
      "type": "function"
    },
    {
      "inputs": [
        {
          "internalType": "uint256",
          "name": "_lotteryId",
          "type": "uint256"
        },
        {
          "internalType": "uint8",
          "name": "_numberOfTickets",
          "type": "uint8"
        },
        {
          "internalType": "uint8",
          "name": "_chosenNumbersForEachTicket",
          "type": "uint8"
        }
      ],
      "name": "buyTickets",
      "outputs": [],
      "stateMutability": "nonpayable",
      "type": "function"
    },
    {
      "inputs": [
        {
          "internalType": "uint256",
          "name": "_lotteryId",
          "type": "uint256"
        }
      ],
      "name": "closeLottery",
      "outputs": [],
      "stateMutability": "nonpayable",
      "type": "function"
    },
    {
      "inputs": [
        {
          "internalType": "uint256",
          "name": "_lotteryId",
          "type": "uint256"
        },
        {
          "internalType": "bytes32",
          "name": "_requestId",
          "type": "bytes32"
        },
        {
          "internalType": "uint256",
          "name": "_randomNumber",
          "type": "uint256"
        }
      ],
      "name": "numbersDrawn",
      "outputs": [],
      "stateMutability": "nonpayable",
      "type": "function"
    },
    {
      "inputs": [
        {
          "internalType": "address",
          "name": "_operatorAddress",
          "type": "address"
        },
        {
          "internalType": "address",
          "name": "_treasuryAddress",
          "type": "address"
        }
      ],
      "name": "setOperatorAndTreasuryAddresses",
      "outputs": [],
      "stateMutability": "nonpayable",
      "type": "function"
    },
    {
      "inputs": [],
      "name": "getCurrentTime",
      "outputs": [
        {
          "internalType": "uint256",
          "name": "",
          "type": "uint256"
        }
      ],
      "stateMutability": "view",
      "type": "function",
      "constant": true
    }
  ],
  "bytecode": "0x60806040523480156200001157600080fd5b50604051620047ff380380620047ff83398181016040528101906200003791906200024e565b620000576200004b6200011860201b60201c565b6200012060201b60201c565b60018081905550600073ffffffffffffffffffffffffffffffffffffffff168173ffffffffffffffffffffffffffffffffffffffff1603620000d0576040517f08c379a0000000000000000000000000000000000000000000000000000000008152600401620000c790620002e1565b60405180910390fd5b80600460006101000a81548173ffffffffffffffffffffffffffffffffffffffff021916908373ffffffffffffffffffffffffffffffffffffffff1602179055505062000303565b600033905090565b60008060009054906101000a900473ffffffffffffffffffffffffffffffffffffffff169050816000806101000a81548173ffffffffffffffffffffffffffffffffffffffff021916908373ffffffffffffffffffffffffffffffffffffffff1602179055508173ffffffffffffffffffffffffffffffffffffffff168173ffffffffffffffffffffffffffffffffffffffff167f8be0079c531659141344cd1fd0a4f28419497f9722a3daafe3b4186f6b6457e060405160405180910390a35050565b600080fd5b600073ffffffffffffffffffffffffffffffffffffffff82169050919050565b60006200021682620001e9565b9050919050565b620002288162000209565b81146200023457600080fd5b50565b60008151905062000248816200021d565b92915050565b600060208284031215620002675762000266620001e4565b5b6000620002778482850162000237565b91505092915050565b600082825260208201905092915050565b7f436f6e7472616374732063616e6e6f7420626520302061646472657373000000600082015250565b6000620002c9601d8362000280565b9150620002d68262000291565b602082019050919050565b60006020820190508181036000830152620002fc81620002ba565b9050919050565b6144ec80620003136000396000f3fe608060405234801561001057600080fd5b506004361061012c5760003560e01c8063715018a6116100ad578063c5f956af11610071578063c5f956af146102f9578063da47675514610317578063e97fc16214610347578063f2b3c80914610363578063f2fde38b146103815761012c565b8063715018a61461027957806380a06160146102835780638da5cb5b146102a15780639d8ca531146102bf578063a5773a47146102db5761012c565b80633ea521ef116100f45780633ea521ef146101d7578063485cc955146101f35780634f7d93db1461020f5780634f807c3a1461023f57806358eead981461025b5761012c565b8063100d003914610131578063127effb21461014d57806329cb924d1461016b5780632bf58673146101895780632cff0b6d146101a7575b600080fd5b61014b600480360381019061014691906127c9565b61039d565b005b61015561057d565b6040516101629190612818565b60405180910390f35b6101736105a3565b604051610180919061284c565b60405180910390f35b6101916105ab565b60405161019e919061284c565b60405180910390f35b6101c160048036038101906101bc9190612893565b6105b0565b6040516101ce919061284c565b60405180910390f35b6101f160048036038101906101ec91906128e6565b610a57565b005b61020d600480360381019061020891906127c9565b610b77565b005b61022960048036038101906102249190612913565b610e07565b604051610236919061284c565b60405180910390f35b6102596004803603810190610254919061298c565b610e3f565b005b6102636113a7565b6040516102709190612b40565b60405180910390f35b61028161147d565b005b61028b611505565b604051610298919061284c565b60405180910390f35b6102a961150f565b6040516102b69190612818565b60405180910390f35b6102d960048036038101906102d491906128e6565b611538565b005b6102e36117cc565b6040516102f09190612cd8565b60405180910390f35b610301611938565b60405161030e9190612818565b60405180910390f35b610331600480360381019061032c91906128e6565b61195e565b60405161033e9190612b40565b60405180910390f35b610361600480360381019061035c9190612d30565b611a34565b005b61036b612147565b604051610378919061284c565b60405180910390f35b61039b60048036038101906103969190612d83565b61214d565b005b6103a5612244565b73ffffffffffffffffffffffffffffffffffffffff166103c361150f565b73ffffffffffffffffffffffffffffffffffffffff1614610419576040517f08c379a000000000000000000000000000000000000000000000000000000000815260040161041090612e0d565b60405180910390fd5b600073ffffffffffffffffffffffffffffffffffffffff168273ffffffffffffffffffffffffffffffffffffffff1603610488576040517f08c379a000000000000000000000000000000000000000000000000000000000815260040161047f90612e79565b60405180910390fd5b600073ffffffffffffffffffffffffffffffffffffffff168173ffffffffffffffffffffffffffffffffffffffff16036104f7576040517f08c379a00000000000000000000000000000000000000000000000000000000081526004016104ee90612e79565b60405180910390fd5b81600260006101000a81548173ffffffffffffffffffffffffffffffffffffffff021916908373ffffffffffffffffffffffffffffffffffffffff16021790555080600360006101000a81548173ffffffffffffffffffffffffffffffffffffffff021916908373ffffffffffffffffffffffffffffffffffffffff1602179055505050565b600260009054906101000a900473ffffffffffffffffffffffffffffffffffffffff1681565b600042905090565b606481565b6000600260009054906101000a900473ffffffffffffffffffffffffffffffffffffffff1673ffffffffffffffffffffffffffffffffffffffff163373ffffffffffffffffffffffffffffffffffffffff1614610642576040517f08c379a000000000000000000000000000000000000000000000000000000000815260040161063990612ee5565b60405180910390fd5b60008403610685576040517f08c379a000000000000000000000000000000000000000000000000000000000815260040161067c90612f51565b60405180910390fd5b8242106106c7576040517f08c379a00000000000000000000000000000000000000000000000000000000081526004016106be90612fbd565b60405180910390fd5b6000600854148061072057506002808111156106e6576106e56129ee565b5b600a6000600854815260200190815260200160002060020160009054906101000a900460ff16600281111561071e5761071d6129ee565b5b145b61075f576040517f08c379a000000000000000000000000000000000000000000000000000000000815260040161075690613029565b60405180910390fd5b6113888211156107a4576040517f08c379a000000000000000000000000000000000000000000000000000000000815260040161079b90613095565b60405180910390fd5b6107ba600160085461224c90919063ffffffff16565b600881905550600854905060006040518061014001604052806009548152602001838152602001600060028111156107f5576107f46129ee565b5b815260200160008152602001868152602001428152602001858152602001606f60ff1681526020018481526020016108c76001600560009054906101000a900473ffffffffffffffffffffffffffffffffffffffff1673ffffffffffffffffffffffffffffffffffffffff1663bc49516b6040518163ffffffff1660e01b8152600401602060405180830381865afa158015610895573d6000803e3d6000fd5b505050506040513d601f19601f820116820180604052508101906108b991906130ca565b61224c90919063ffffffff16565b815250905080600a6000848152602001908152602001600020600082015181600001556020820151816001015560408201518160020160006101000a81548160ff0219169083600281111561091f5761091e6129ee565b5b0217905550606082015181600301556080820151816004015560a0820151816005015560c0820151816006015560e08201518160070160006101000a81548160ff021916908360ff160217905550610100820151816008015561012082015181600901559050507fce7176db4e5b6d07ad0f0ecf9523a01d98aa268b888a199592cb5b1e40615c4682600560009054906101000a900473ffffffffffffffffffffffffffffffffffffffff1673ffffffffffffffffffffffffffffffffffffffff1663bc49516b6040518163ffffffff1660e01b8152600401602060405180830381865afa158015610a15573d6000803e3d6000fd5b505050506040513d601f19601f82011682018060405250810190610a3991906130ca565b604051610a479291906130f7565b60405180910390a1509392505050565b610a5f612244565b73ffffffffffffffffffffffffffffffffffffffff16610a7d61150f565b73ffffffffffffffffffffffffffffffffffffffff1614610ad3576040517f08c379a0000000000000000000000000000000000000000000000000000000008152600401610aca90612e0d565b60405180910390fd5b600460009054906101000a900473ffffffffffffffffffffffffffffffffffffffff1673ffffffffffffffffffffffffffffffffffffffff1663a9059cbb33836040518363ffffffff1660e01b8152600401610b30929190613120565b6020604051808303816000875af1158015610b4f573d6000803e3d6000fd5b505050506040513d601f19601f82011682018060405250810190610b739190613181565b5050565b600060159054906101000a900460ff16610ba157600060149054906101000a900460ff1615610baa565b610ba9612262565b5b610be9576040517f08c379a0000000000000000000000000000000000000000000000000000000008152600401610be090613220565b60405180910390fd5b60008060159054906101000a900460ff161590508015610c3a576001600060156101000a81548160ff0219169083151502179055506001600060146101000a81548160ff0219169083151502179055505b610c42612244565b73ffffffffffffffffffffffffffffffffffffffff16610c6061150f565b73ffffffffffffffffffffffffffffffffffffffff1614610cb6576040517f08c379a0000000000000000000000000000000000000000000000000000000008152600401610cad90612e0d565b60405180910390fd5b600073ffffffffffffffffffffffffffffffffffffffff168373ffffffffffffffffffffffffffffffffffffffff1614158015610d205750600073ffffffffffffffffffffffffffffffffffffffff168273ffffffffffffffffffffffffffffffffffffffff1614155b610d5f576040517f08c379a0000000000000000000000000000000000000000000000000000000008152600401610d569061328c565b60405180910390fd5b82600560006101000a81548173ffffffffffffffffffffffffffffffffffffffff021916908373ffffffffffffffffffffffffffffffffffffffff16021790555081600660006101000a81548173ffffffffffffffffffffffffffffffffffffffff021916908373ffffffffffffffffffffffffffffffffffffffff1602179055508015610e025760008060156101000a81548160ff0219169083151502179055505b505050565b600080600a6000858152602001908152602001600020600401549050610e36838261227390919063ffffffff16565b91505092915050565b610e5e3373ffffffffffffffffffffffffffffffffffffffff16612289565b15610e9e576040517f08c379a0000000000000000000000000000000000000000000000000000000008152600401610e95906132f8565b60405180910390fd5b3273ffffffffffffffffffffffffffffffffffffffff163373ffffffffffffffffffffffffffffffffffffffff1614610f0c576040517f08c379a0000000000000000000000000000000000000000000000000000000008152600401610f0390613364565b60405180910390fd5b600260015403610f51576040517f08c379a0000000000000000000000000000000000000000000000000000000008152600401610f48906133d0565b60405180910390fd5b6002600181905550600a600084815260200190815260200160002060050154610f786105a3565b1015610fb9576040517f08c379a0000000000000000000000000000000000000000000000000000000008152600401610fb09061343c565b60405180910390fd5b600a600084815260200190815260200160002060060154610fd86105a3565b10611018576040517f08c379a000000000000000000000000000000000000000000000000000000000815260040161100f906134a8565b60405180910390fd5b60028081111561102b5761102a6129ee565b5b600a600085815260200190815260200160002060020160009054906101000a900460ff166002811115611061576110606129ee565b5b036110cb5761106e6105a3565b600a600085815260200190815260200160002060050154106110ca576000600a600085815260200190815260200160002060020160006101000a81548160ff021916908360028111156110c4576110c36129ee565b5b02179055505b5b600060028111156110df576110de6129ee565b5b600a600085815260200190815260200160002060020160009054906101000a900460ff166002811115611115576111146129ee565b5b14611155576040517f08c379a000000000000000000000000000000000000000000000000000000000815260040161114c90613514565b60405180910390fd5b60648260ff16111561119c576040517f08c379a000000000000000000000000000000000000000000000000000000000815260040161119390613580565b60405180910390fd5b60638160ff16111580156111b4575060008160ff1610155b6111f3576040517f08c379a00000000000000000000000000000000000000000000000000000000081526004016111ea906135ec565b60405180910390fd5b6000611202848460ff16610e07565b9050611253333083600460009054906101000a900473ffffffffffffffffffffffffffffffffffffffff1673ffffffffffffffffffffffffffffffffffffffff166122ac909392919063ffffffff16565b6112688160095461224c90919063ffffffff16565b60098190555080600a60008681526020019081526020016000206003016000828254611294919061363b565b92505081905550600954600a600086815260200190815260200160002060000181905550600560009054906101000a900473ffffffffffffffffffffffffffffffffffffffff1673ffffffffffffffffffffffffffffffffffffffff1663867f5168338686866040518563ffffffff1660e01b815260040161131994939291906136a0565b6020604051808303816000875af1158015611338573d6000803e3d6000fd5b505050506040513d601f19601f8201168201806040525081019061135c91906130ca565b507f18d944b97ba06c73d80013e53a5c6c7b8f6273d17cdc0a8885eeac06190ea95e6009546008546040516113929291906130f7565b60405180910390a15060018081905550505050565b6113af6126ef565b600a600060085481526020019081526020016000206040518061014001604052908160008201548152602001600182015481526020016002820160009054906101000a900460ff166002811115611409576114086129ee565b5b600281111561141b5761141a6129ee565b5b8152602001600382015481526020016004820154815260200160058201548152602001600682015481526020016007820160009054906101000a900460ff1660ff1660ff16815260200160088201548152602001600982015481525050905090565b611485612244565b73ffffffffffffffffffffffffffffffffffffffff166114a361150f565b73ffffffffffffffffffffffffffffffffffffffff16146114f9576040517f08c379a00000000000000000000000000000000000000000000000000000000081526004016114f090612e0d565b60405180910390fd5b6115036000612335565b565b6000600854905090565b60008060009054906101000a900473ffffffffffffffffffffffffffffffffffffffff16905090565b600260009054906101000a900473ffffffffffffffffffffffffffffffffffffffff1673ffffffffffffffffffffffffffffffffffffffff163373ffffffffffffffffffffffffffffffffffffffff16146115c8576040517f08c379a00000000000000000000000000000000000000000000000000000000081526004016115bf90612ee5565b60405180910390fd5b600060028111156115dc576115db6129ee565b5b600a600083815260200190815260200160002060020160009054906101000a900460ff166002811115611612576116116129ee565b5b14611652576040517f08c379a000000000000000000000000000000000000000000000000000000000815260040161164990613731565b60405180910390fd5b600a6000828152602001908152602001600020600601544210156116ab576040517f08c379a00000000000000000000000000000000000000000000000000000000081526004016116a29061379d565b60405180910390fd5b6001600a600083815260200190815260200160002060020160006101000a81548160ff021916908360028111156116e5576116e46129ee565b5b0217905550600660009054906101000a900473ffffffffffffffffffffffffffffffffffffffff1673ffffffffffffffffffffffffffffffffffffffff1663b37217a4826040518263ffffffff1660e01b8152600401611745919061284c565b6020604051808303816000875af1158015611764573d6000803e3d6000fd5b505050506040513d601f19601f8201168201806040525081019061178891906137d2565b6007819055507ff8cdf8355a0f31bbad8998a631f5a75dcb3e475a010b34a111ed105fe88e751a816007546040516117c192919061380e565b60405180910390a150565b6060600060085467ffffffffffffffff8111156117ec576117eb613837565b5b60405190808252806020026020018201604052801561182557816020015b6118126126ef565b81526020019060019003908161180a5790505b5090506000600190505b600854811161193057600a60008281526020019081526020016000206040518061014001604052908160008201548152602001600182015481526020016002820160009054906101000a900460ff1660028111156118905761188f6129ee565b5b60028111156118a2576118a16129ee565b5b8152602001600382015481526020016004820154815260200160058201548152602001600682015481526020016007820160009054906101000a900460ff1660ff1660ff1681526020016008820154815260200160098201548152505082828151811061191257611911613866565b5b6020026020010181905250808061192890613895565b91505061182f565b508091505090565b600360009054906101000a900473ffffffffffffffffffffffffffffffffffffffff1681565b6119666126ef565b600a60008381526020019081526020016000206040518061014001604052908160008201548152602001600182015481526020016002820160009054906101000a900460ff1660028111156119be576119bd6129ee565b5b60028111156119d0576119cf6129ee565b5b8152602001600382015481526020016004820154815260200160058201548152602001600682015481526020016007820160009054906101000a900460ff1660ff1660ff168152602001600882015481526020016009820154815250509050919050565b600660009054906101000a900473ffffffffffffffffffffffffffffffffffffffff1673ffffffffffffffffffffffffffffffffffffffff163373ffffffffffffffffffffffffffffffffffffffff1614611ac4576040517f08c379a0000000000000000000000000000000000000000000000000000000008152600401611abb90613929565b60405180910390fd5b600260015403611b09576040517f08c379a0000000000000000000000000000000000000000000000000000000008152600401611b00906133d0565b60405180910390fd5b600260018190555042600a6000858152602001908152602001600020600601541115611b6a576040517f08c379a0000000000000000000000000000000000000000000000000000000008152600401611b61906139bb565b60405180910390fd5b60016002811115611b7e57611b7d6129ee565b5b600a600085815260200190815260200160002060020160009054906101000a900460ff166002811115611bb457611bb36129ee565b5b14611bf4576040517f08c379a0000000000000000000000000000000000000000000000000000000008152600401611beb90613a27565b60405180910390fd5b816007540361213657600080600080600560009054906101000a900473ffffffffffffffffffffffffffffffffffffffff1673ffffffffffffffffffffffffffffffffffffffff16630fa3f02c8887600a60008c8152602001908152602001600020600901546040518463ffffffff1660e01b8152600401611c7893929190613a47565b600060405180830381865afa158015611c95573d6000803e3d6000fd5b505050506040513d6000823e3d601f19601f82011682018060405250810190611cbe9190613d3a565b93509350935093506000841115611f4c57600080600086612710600a60008d815260200190815260200160002060080154612710611cfc9190613dd9565b600954611d099190613e0d565b611d139190613e96565b611d1d9190613e96565b90508681611d2b9190613e0d565b925082600954611d3b9190613dd9565b915060005b8551811015611ebd576000868281518110611d5e57611d5d613866565b5b60200260200101516060015160ff1683611d789190613e0d565b9050611de5878381518110611d9057611d8f613866565b5b60200260200101516000015182600460009054906101000a900473ffffffffffffffffffffffffffffffffffffffff1673ffffffffffffffffffffffffffffffffffffffff166123f99092919063ffffffff16565b611dfa8160095461247f90919063ffffffff16565b600981905550600560009054906101000a900473ffffffffffffffffffffffffffffffffffffffff1673ffffffffffffffffffffffffffffffffffffffff166322ea80af878481518110611e5157611e50613866565b5b6020026020010151836040518363ffffffff1660e01b8152600401611e779291906130f7565b600060405180830381600087803b158015611e9157600080fd5b505af1158015611ea5573d6000803e3d6000fd5b50505050508080611eb590613895565b915050611d40565b50611f2d600360009054906101000a900473ffffffffffffffffffffffffffffffffffffffff1683600460009054906101000a900473ffffffffffffffffffffffffffffffffffffffff1673ffffffffffffffffffffffffffffffffffffffff166123f99092919063ffffffff16565b611f428260095461247f90919063ffffffff16565b6009819055505050505b6002600a600089815260200190815260200160002060020160006101000a81548160ff02191690836002811115611f8657611f856129ee565b5b021790555082600a600089815260200190815260200160002060070160006101000a81548160ff021916908360ff1602179055506000600560009054906101000a900473ffffffffffffffffffffffffffffffffffffffff1673ffffffffffffffffffffffffffffffffffffffff1663127873f7836040518263ffffffff1660e01b81526004016120179190613f76565b600060405180830381865afa158015612034573d6000803e3d6000fd5b505050506040513d6000823e3d601f19601f8201168201806040525081019061205d9190613f98565b90507f035985bc2b846f2c2e0de3ca54496685c2e8854aa634b9722ca14efd675c230588600560009054906101000a900473ffffffffffffffffffffffffffffffffffffffff1673ffffffffffffffffffffffffffffffffffffffff1663bc49516b6040518163ffffffff1660e01b8152600401602060405180830381865afa1580156120ee573d6000803e3d6000fd5b505050506040513d601f19601f8201168201806040525081019061211291906130ca565b8684604051612124949392919061411a565b60405180910390a1505050505061213b565b600080fd5b60018081905550505050565b61138881565b612155612244565b73ffffffffffffffffffffffffffffffffffffffff1661217361150f565b73ffffffffffffffffffffffffffffffffffffffff16146121c9576040517f08c379a00000000000000000000000000000000000000000000000000000000081526004016121c090612e0d565b60405180910390fd5b600073ffffffffffffffffffffffffffffffffffffffff168173ffffffffffffffffffffffffffffffffffffffff1603612238576040517f08c379a000000000000000000000000000000000000000000000000000000000815260040161222f906141d8565b60405180910390fd5b61224181612335565b50565b600033905090565b6000818361225a919061363b565b905092915050565b600061226d30612289565b15905090565b600081836122819190613e0d565b905092915050565b6000808273ffffffffffffffffffffffffffffffffffffffff163b119050919050565b61232f846323b872dd60e01b8585856040516024016122cd939291906141f8565b604051602081830303815290604052907bffffffffffffffffffffffffffffffffffffffffffffffffffffffff19166020820180517bffffffffffffffffffffffffffffffffffffffffffffffffffffffff8381831617835250505050612495565b50505050565b60008060009054906101000a900473ffffffffffffffffffffffffffffffffffffffff169050816000806101000a81548173ffffffffffffffffffffffffffffffffffffffff021916908373ffffffffffffffffffffffffffffffffffffffff1602179055508173ffffffffffffffffffffffffffffffffffffffff168173ffffffffffffffffffffffffffffffffffffffff167f8be0079c531659141344cd1fd0a4f28419497f9722a3daafe3b4186f6b6457e060405160405180910390a35050565b61247a8363a9059cbb60e01b8484604051602401612418929190613120565b604051602081830303815290604052907bffffffffffffffffffffffffffffffffffffffffffffffffffffffff19166020820180517bffffffffffffffffffffffffffffffffffffffffffffffffffffffff8381831617835250505050612495565b505050565b6000818361248d9190613dd9565b905092915050565b60006124f7826040518060400160405280602081526020017f5361666545524332303a206c6f772d6c6576656c2063616c6c206661696c65648152508573ffffffffffffffffffffffffffffffffffffffff1661255c9092919063ffffffff16565b905060008151111561255757808060200190518101906125179190613181565b612556576040517f08c379a000000000000000000000000000000000000000000000000000000000815260040161254d906142a1565b60405180910390fd5b5b505050565b606061256b8484600085612574565b90509392505050565b6060824710156125b9576040517f08c379a00000000000000000000000000000000000000000000000000000000081526004016125b090614333565b60405180910390fd5b6125c285612289565b612601576040517f08c379a00000000000000000000000000000000000000000000000000000000081526004016125f89061439f565b60405180910390fd5b6000808673ffffffffffffffffffffffffffffffffffffffff16858760405161262a9190614439565b60006040518083038185875af1925050503d8060008114612667576040519150601f19603f3d011682016040523d82523d6000602084013e61266c565b606091505b509150915061267c828286612688565b92505050949350505050565b60608315612698578290506126e8565b6000835111156126ab5782518084602001fd5b816040517f08c379a00000000000000000000000000000000000000000000000000000000081526004016126df9190614494565b60405180910390fd5b9392505050565b60405180610140016040528060008152602001600081526020016000600281111561271d5761271c6129ee565b5b815260200160008152602001600081526020016000815260200160008152602001600060ff16815260200160008152602001600081525090565b6000604051905090565b600080fd5b600080fd5b600073ffffffffffffffffffffffffffffffffffffffff82169050919050565b60006127968261276b565b9050919050565b6127a68161278b565b81146127b157600080fd5b50565b6000813590506127c38161279d565b92915050565b600080604083850312156127e0576127df612761565b5b60006127ee858286016127b4565b92505060206127ff858286016127b4565b9150509250929050565b6128128161278b565b82525050565b600060208201905061282d6000830184612809565b92915050565b6000819050919050565b61284681612833565b82525050565b6000602082019050612861600083018461283d565b92915050565b61287081612833565b811461287b57600080fd5b50565b60008135905061288d81612867565b92915050565b6000806000606084860312156128ac576128ab612761565b5b60006128ba8682870161287e565b93505060206128cb8682870161287e565b92505060406128dc8682870161287e565b9150509250925092565b6000602082840312156128fc576128fb612761565b5b600061290a8482850161287e565b91505092915050565b6000806040838503121561292a57612929612761565b5b60006129388582860161287e565b92505060206129498582860161287e565b9150509250929050565b600060ff82169050919050565b61296981612953565b811461297457600080fd5b50565b60008135905061298681612960565b92915050565b6000806000606084860312156129a5576129a4612761565b5b60006129b38682870161287e565b93505060206129c486828701612977565b92505060406129d586828701612977565b9150509250925092565b6129e881612833565b82525050565b7f4e487b7100000000000000000000000000000000000000000000000000000000600052602160045260246000fd5b60038110612a2e57612a2d6129ee565b5b50565b6000819050612a3f82612a1d565b919050565b6000612a4f82612a31565b9050919050565b612a5f81612a44565b82525050565b612a6e81612953565b82525050565b61014082016000820151612a8b60008501826129df565b506020820151612a9e60208501826129df565b506040820151612ab16040850182612a56565b506060820151612ac460608501826129df565b506080820151612ad760808501826129df565b5060a0820151612aea60a08501826129df565b5060c0820151612afd60c08501826129df565b5060e0820151612b1060e0850182612a65565b50610100820151612b256101008501826129df565b50610120820151612b3a6101208501826129df565b50505050565b600061014082019050612b566000830184612a74565b92915050565b600081519050919050565b600082825260208201905092915050565b6000819050602082019050919050565b61014082016000820151612b9f60008501826129df565b506020820151612bb260208501826129df565b506040820151612bc56040850182612a56565b506060820151612bd860608501826129df565b506080820151612beb60808501826129df565b5060a0820151612bfe60a08501826129df565b5060c0820151612c1160c08501826129df565b5060e0820151612c2460e0850182612a65565b50610100820151612c396101008501826129df565b50610120820151612c4e6101208501826129df565b50505050565b6000612c608383612b88565b6101408301905092915050565b6000602082019050919050565b6000612c8582612b5c565b612c8f8185612b67565b9350612c9a83612b78565b8060005b83811015612ccb578151612cb28882612c54565b9750612cbd83612c6d565b925050600181019050612c9e565b5085935050505092915050565b60006020820190508181036000830152612cf28184612c7a565b905092915050565b6000819050919050565b612d0d81612cfa565b8114612d1857600080fd5b50565b600081359050612d2a81612d04565b92915050565b600080600060608486031215612d4957612d48612761565b5b6000612d578682870161287e565b9350506020612d6886828701612d1b565b9250506040612d798682870161287e565b9150509250925092565b600060208284031215612d9957612d98612761565b5b6000612da7848285016127b4565b91505092915050565b600082825260208201905092915050565b7f4f776e61626c653a2063616c6c6572206973206e6f7420746865206f776e6572600082015250565b6000612df7602083612db0565b9150612e0282612dc1565b602082019050919050565b60006020820190508181036000830152612e2681612dea565b9050919050565b7f43616e6e6f74206265207a65726f206164647265737300000000000000000000600082015250565b6000612e63601683612db0565b9150612e6e82612e2d565b602082019050919050565b60006020820190508181036000830152612e9281612e56565b9050919050565b7f4e6f74206f70657261746f720000000000000000000000000000000000000000600082015250565b6000612ecf600c83612db0565b9150612eda82612e99565b602082019050919050565b60006020820190508181036000830152612efe81612ec2565b9050919050565b7f5072697a65206f7220636f73742063616e6e6f74206265203000000000000000600082015250565b6000612f3b601983612db0565b9150612f4682612f05565b602082019050919050565b60006020820190508181036000830152612f6a81612f2e565b9050919050565b7f54696d657374616d707320666f72206c6f747465727920696e76616c69640000600082015250565b6000612fa7601e83612db0565b9150612fb282612f71565b602082019050919050565b60006020820190508181036000830152612fd681612f9a565b9050919050565b7f4e6f742074696d6520746f207374617274206c6f747465727900000000000000600082015250565b6000613013601983612db0565b915061301e82612fdd565b602082019050919050565b6000602082019050818103600083015261304281613006565b9050919050565b7f54726561737572792066656520746f6f20686967680000000000000000000000600082015250565b600061307f601583612db0565b915061308a82613049565b602082019050919050565b600060208201905081810360008301526130ae81613072565b9050919050565b6000815190506130c481612867565b92915050565b6000602082840312156130e0576130df612761565b5b60006130ee848285016130b5565b91505092915050565b600060408201905061310c600083018561283d565b613119602083018461283d565b9392505050565b60006040820190506131356000830185612809565b613142602083018461283d565b9392505050565b60008115159050919050565b61315e81613149565b811461316957600080fd5b50565b60008151905061317b81613155565b92915050565b60006020828403121561319757613196612761565b5b60006131a58482850161316c565b91505092915050565b7f496e697469616c697a61626c653a20636f6e747261637420697320616c72656160008201527f647920696e697469616c697a6564000000000000000000000000000000000000602082015250565b600061320a602e83612db0565b9150613215826131ae565b604082019050919050565b60006020820190508181036000830152613239816131fd565b9050919050565b7f436f6e7472616374732063616e6e6f7420626520302061646472657373000000600082015250565b6000613276601d83612db0565b915061328182613240565b602082019050919050565b600060208201905081810360008301526132a581613269565b9050919050565b7f636f6e7472616374206e6f7420616c6c6f776564000000000000000000000000600082015250565b60006132e2601483612db0565b91506132ed826132ac565b602082019050919050565b60006020820190508181036000830152613311816132d5565b9050919050565b7f70726f787920636f6e7472616374206e6f7420616c6c6f776564000000000000600082015250565b600061334e601a83612db0565b915061335982613318565b602082019050919050565b6000602082019050818103600083015261337d81613341565b9050919050565b7f5265656e7472616e637947756172643a207265656e7472616e742063616c6c00600082015250565b60006133ba601f83612db0565b91506133c582613384565b602082019050919050565b600060208201905081810360008301526133e9816133ad565b9050919050565b7f496e76616c69642074696d6520666f72206d696e743a73746172740000000000600082015250565b6000613426601b83612db0565b9150613431826133f0565b602082019050919050565b6000602082019050818103600083015261345581613419565b9050919050565b7f496e76616c69642074696d6520666f72206d696e743a656e6400000000000000600082015250565b6000613492601983612db0565b915061349d8261345c565b602082019050919050565b600060208201905081810360008301526134c181613485565b9050919050565b7f4c6f7474657279206e6f7420696e20737461746520666f72206d696e74000000600082015250565b60006134fe601d83612db0565b9150613509826134c8565b602082019050919050565b6000602082019050818103600083015261352d816134f1565b9050919050565b7f4261746368206d696e7420746f6f206c61726765000000000000000000000000600082015250565b600061356a601483612db0565b915061357582613534565b602082019050919050565b600060208201905081810360008301526135998161355d565b9050919050565b7f43686f6f73652074776f2d6469676974206e756d626572000000000000000000600082015250565b60006135d6601783612db0565b91506135e1826135a0565b602082019050919050565b60006020820190508181036000830152613605816135c9565b9050919050565b7f4e487b7100000000000000000000000000000000000000000000000000000000600052601160045260246000fd5b600061364682612833565b915061365183612833565b9250827fffffffffffffffffffffffffffffffffffffffffffffffffffffffffffffffff038211156136865761368561360c565b5b828201905092915050565b61369a81612953565b82525050565b60006080820190506136b56000830187612809565b6136c2602083018661283d565b6136cf6040830185613691565b6136dc6060830184613691565b95945050505050565b7f4c6f7474657279206e6f74206f70656e00000000000000000000000000000000600082015250565b600061371b601083612db0565b9150613726826136e5565b602082019050919050565b6000602082019050818103600083015261374a8161370e565b9050919050565b7f4c6f7474657279206e6f74206f76657200000000000000000000000000000000600082015250565b6000613787601083612db0565b915061379282613751565b602082019050919050565b600060208201905081810360008301526137b68161377a565b9050919050565b6000815190506137cc81612d04565b92915050565b6000602082840312156137e8576137e7612761565b5b60006137f6848285016137bd565b91505092915050565b61380881612cfa565b82525050565b6000604082019050613823600083018561283d565b61383060208301846137ff565b9392505050565b7f4e487b7100000000000000000000000000000000000000000000000000000000600052604160045260246000fd5b7f4e487b7100000000000000000000000000000000000000000000000000000000600052603260045260246000fd5b60006138a082612833565b91507fffffffffffffffffffffffffffffffffffffffffffffffffffffffffffffffff82036138d2576138d161360c565b5b600182019050919050565b7f4f6e6c792072616e646f6d2067656e657261746f720000000000000000000000600082015250565b6000613913601583612db0565b915061391e826138dd565b602082019050919050565b6000602082019050818103600083015261394281613906565b9050919050565b7f43616e6e6f74207365742077696e6e696e67206e756d6265727320647572696e60008201527f67206c6f74746572790000000000000000000000000000000000000000000000602082015250565b60006139a5602983612db0565b91506139b082613949565b604082019050919050565b600060208201905081810360008301526139d481613998565b9050919050565b7f4c6f747465727920537461746520696e636f727265637420666f722064726177600082015250565b6000613a11602083612db0565b9150613a1c826139db565b602082019050919050565b60006020820190508181036000830152613a4081613a04565b9050919050565b6000606082019050613a5c600083018661283d565b613a69602083018561283d565b613a76604083018461283d565b949350505050565b600081519050613a8d81612960565b92915050565b600080fd5b6000601f19601f8301169050919050565b613ab282613a98565b810181811067ffffffffffffffff82111715613ad157613ad0613837565b5b80604052505050565b6000613ae4612757565b9050613af08282613aa9565b919050565b600067ffffffffffffffff821115613b1057613b0f613837565b5b602082029050602081019050919050565b600080fd5b600080fd5b600081519050613b3a8161279d565b92915050565b600060c08284031215613b5657613b55613b26565b5b613b6060c0613ada565b90506000613b7084828501613b2b565b6000830152506020613b8484828501613a7e565b6020830152506040613b98848285016130b5565b6040830152506060613bac84828501613a7e565b6060830152506080613bc0848285016130b5565b60808301525060a0613bd4848285016130b5565b60a08301525092915050565b6000613bf3613bee84613af5565b613ada565b90508083825260208201905060c08402830185811115613c1657613c15613b21565b5b835b81811015613c3f5780613c2b8882613b40565b84526020840193505060c081019050613c18565b5050509392505050565b600082601f830112613c5e57613c5d613a93565b5b8151613c6e848260208601613be0565b91505092915050565b600067ffffffffffffffff821115613c9257613c91613837565b5b602082029050602081019050919050565b6000613cb6613cb184613c77565b613ada565b90508083825260208201905060208402830185811115613cd957613cd8613b21565b5b835b81811015613d025780613cee88826130b5565b845260208401935050602081019050613cdb565b5050509392505050565b600082601f830112613d2157613d20613a93565b5b8151613d31848260208601613ca3565b91505092915050565b60008060008060808587031215613d5457613d53612761565b5b6000613d62878288016130b5565b9450506020613d7387828801613a7e565b935050604085015167ffffffffffffffff811115613d9457613d93612766565b5b613da087828801613c49565b925050606085015167ffffffffffffffff811115613dc157613dc0612766565b5b613dcd87828801613d0c565b91505092959194509250565b6000613de482612833565b9150613def83612833565b925082821015613e0257613e0161360c565b5b828203905092915050565b6000613e1882612833565b9150613e2383612833565b9250817fffffffffffffffffffffffffffffffffffffffffffffffffffffffffffffffff0483118215151615613e5c57613e5b61360c565b5b828202905092915050565b7f4e487b7100000000000000000000000000000000000000000000000000000000600052601260045260246000fd5b6000613ea182612833565b9150613eac83612833565b925082613ebc57613ebb613e67565b5b828204905092915050565b600081519050919050565b600082825260208201905092915050565b6000819050602082019050919050565b6000613eff83836129df565b60208301905092915050565b6000602082019050919050565b6000613f2382613ec7565b613f2d8185613ed2565b9350613f3883613ee3565b8060005b83811015613f69578151613f508882613ef3565b9750613f5b83613f0b565b925050600181019050613f3c565b5085935050505092915050565b60006020820190508181036000830152613f908184613f18565b905092915050565b600060208284031215613fae57613fad612761565b5b600082015167ffffffffffffffff811115613fcc57613fcb612766565b5b613fd884828501613c49565b91505092915050565b600081519050919050565b600082825260208201905092915050565b6000819050602082019050919050565b6140168161278b565b82525050565b60c082016000820151614032600085018261400d565b5060208201516140456020850182612a65565b50604082015161405860408501826129df565b50606082015161406b6060850182612a65565b50608082015161407e60808501826129df565b5060a082015161409160a08501826129df565b50505050565b60006140a3838361401c565b60c08301905092915050565b6000602082019050919050565b60006140c782613fe1565b6140d18185613fec565b93506140dc83613ffd565b8060005b8381101561410d5781516140f48882614097565b97506140ff836140af565b9250506001810190506140e0565b5085935050505092915050565b600060808201905061412f600083018761283d565b61413c602083018661283d565b6141496040830185613691565b818103606083015261415b81846140bc565b905095945050505050565b7f4f776e61626c653a206e6577206f776e657220697320746865207a65726f206160008201527f6464726573730000000000000000000000000000000000000000000000000000602082015250565b60006141c2602683612db0565b91506141cd82614166565b604082019050919050565b600060208201905081810360008301526141f1816141b5565b9050919050565b600060608201905061420d6000830186612809565b61421a6020830185612809565b614227604083018461283d565b949350505050565b7f5361666545524332303a204552433230206f7065726174696f6e20646964206e60008201527f6f74207375636365656400000000000000000000000000000000000000000000602082015250565b600061428b602a83612db0565b91506142968261422f565b604082019050919050565b600060208201905081810360008301526142ba8161427e565b9050919050565b7f416464726573733a20696e73756666696369656e742062616c616e636520666f60008201527f722063616c6c0000000000000000000000000000000000000000000000000000602082015250565b600061431d602683612db0565b9150614328826142c1565b604082019050919050565b6000602082019050818103600083015261434c81614310565b9050919050565b7f416464726573733a2063616c6c20746f206e6f6e2d636f6e7472616374000000600082015250565b6000614389601d83612db0565b915061439482614353565b602082019050919050565b600060208201905081810360008301526143b88161437c565b9050919050565b600081519050919050565b600081905092915050565b60005b838110156143f35780820151818401526020810190506143d8565b83811115614402576000848401525b50505050565b6000614413826143bf565b61441d81856143ca565b935061442d8185602086016143d5565b80840191505092915050565b60006144458284614408565b915081905092915050565b600081519050919050565b600061446682614450565b6144708185612db0565b93506144808185602086016143d5565b61448981613a98565b840191505092915050565b600060208201905081810360008301526144ae818461445b565b90509291505056fea26469706673582212203d13bfbaa9bdfe9782d2ece8e17819d701aeb803a3fc1eb37029d2f19c8bad1464736f6c634300080e0033",
  "immutableReferences": {},
  "source": "//SPDX-License-Identifier: MIT\r\npragma solidity ^0.8.0;\r\n// Imported OZ helper contracts\r\nimport \"@openzeppelin/contracts/token/ERC20/IERC20.sol\";\r\nimport \"@openzeppelin/contracts/token/ERC20/utils/SafeERC20.sol\";\r\nimport \"@openzeppelin/contracts/utils/Address.sol\";\r\nimport \"@openzeppelin/contracts/proxy/utils/Initializable.sol\";\r\nimport \"@openzeppelin/contracts/security/ReentrancyGuard.sol\";\r\n// Inherited allowing for ownership of contract\r\nimport \"@openzeppelin/contracts/access/Ownable.sol\";\r\n// Allows for intergration with ChainLink VRF\r\nimport \"./IRandomNumberGenerator.sol\";\r\n// Interface for Lottery NFT to mint tokens\r\nimport \"./ITicketNFT.sol\";\r\n// Safe math\r\nimport \"@openzeppelin/contracts/utils/math/SafeMath.sol\";\r\nimport \"./SafeMath8.sol\";\r\nimport \"./ILottery.sol\";\r\n\r\n// TODO rename to Lottery when done\r\ncontract Lottery is ILottery, Ownable, Initializable, ReentrancyGuard {\r\n    // Libraries\r\n    // Safe math\r\n    using SafeMath for uint256;\r\n    using SafeMath8 for uint8;\r\n    // Safe ERC20\r\n    using SafeERC20 for IERC20;\r\n    // Address functionality\r\n    using Address for address;\r\n\r\n    // Constants\r\n    uint256 public constant MAX_NUMBER_TICKETS_PER_BUY = 100;\r\n    uint256 public constant MAX_TREASURY_FEE = 5000; // 50%\r\n\r\n    // State variables\r\n    address public operatorAddress;\r\n    address public treasuryAddress;\r\n    // Instance of USDT token (collateral currency for lotto)\r\n    IERC20 internal usdt_;\r\n    // Storing of the NFT\r\n    ITicketNFT internal nft_;\r\n    // Storing of the randomness generator\r\n    IRandomNumberGenerator internal randomGenerator_;\r\n    // Request ID for random number\r\n    bytes32 internal requestId_;\r\n    // Counter for lottery IDs\r\n    uint256 private currentLotteryId_;\r\n    // The amount of usdt for prize money\r\n    uint256 internal prizePool_;\r\n\r\n    // Represents the status of the lottery\r\n    enum Status {\r\n        Open, // The lottery is open for ticket purchases\r\n        Closed, // The lottery is no longer open for ticket purchases\r\n        Completed // The lottery has been closed and the numbers drawn\r\n    }\r\n    // All the needed info around a lottery\r\n    struct LottoInfo {\r\n        uint256 prizePool;\r\n        uint256 lotteryID; // ID for lotto\r\n        Status lotteryStatus; // Status for lotto\r\n        uint256 amountCollectedInUSDT; // The amount of usdt for prize money\r\n        uint256 costPerTicket; // Cost per ticket in $usdt\r\n        uint256 startingTimestamp; // Block timestamp for start of lotto\r\n        uint256 closingTimestamp; // Block timestamp for end of entries\r\n        uint8 winningNumbers; // The winning numbers\r\n        uint256 treasuryFee; // 500: 5% // 200: 2% // 50: 0.5%\r\n        uint256 firstTicketId; // Ticket Id of the first ticket in this lottery\r\n    }\r\n    // Lottery ID's to info\r\n    mapping(uint256 => LottoInfo) internal allLotteries_;\r\n\r\n    event LotteryOpen(uint256 lotteryId, uint256 ticketSupply);\r\n\r\n    event LotteryClose(\r\n        uint256 lotteryId,\r\n        uint256 ticketSupply,\r\n        uint8 finalNumber,\r\n        ITicketNFT.TicketInfo[] winningTickets\r\n    );\r\n\r\n    event PrizePoolChanged(uint256 currentPrizePool, uint256 currentLotteryId);\r\n\r\n    event RequestNumbers(uint256 lotteryId, bytes32 requestId);\r\n\r\n    //-------------------------------------------------------------------------\r\n    // MODIFIERS\r\n    //-------------------------------------------------------------------------\r\n\r\n    modifier onlyRandomGenerator() {\r\n        require(\r\n            msg.sender == address(randomGenerator_),\r\n            \"Only random generator\"\r\n        );\r\n        _;\r\n    }\r\n\r\n    modifier notContract() {\r\n        require(!address(msg.sender).isContract(), \"contract not allowed\");\r\n        require(msg.sender == tx.origin, \"proxy contract not allowed\");\r\n        _;\r\n    }\r\n\r\n    modifier onlyOperator() {\r\n        require(msg.sender == operatorAddress, \"Not operator\");\r\n        _;\r\n    }\r\n\r\n    //-------------------------------------------------------------------------\r\n    // CONSTRUCTOR\r\n    //-------------------------------------------------------------------------\r\n\r\n    constructor(address _usdt) {\r\n        require(_usdt != address(0), \"Contracts cannot be 0 address\");\r\n        usdt_ = IERC20(_usdt);\r\n    }\r\n\r\n    function initialize(address _TicketNFT, address _IRandomNumberGenerator)\r\n        external\r\n        initializer\r\n        onlyOwner\r\n    {\r\n        require(\r\n            _TicketNFT != address(0) && _IRandomNumberGenerator != address(0),\r\n            \"Contracts cannot be 0 address\"\r\n        );\r\n        nft_ = ITicketNFT(_TicketNFT);\r\n        randomGenerator_ = IRandomNumberGenerator(_IRandomNumberGenerator);\r\n    }\r\n\r\n    //-------------------------------------------------------------------------\r\n    // VIEW FUNCTIONS\r\n    //-------------------------------------------------------------------------\r\n\r\n    function costToBuyTickets(uint256 _lotteryId, uint256 _numberOfTickets)\r\n        public\r\n        view\r\n        returns (uint256 totalCost)\r\n    {\r\n        uint256 pricePer = allLotteries_[_lotteryId].costPerTicket;\r\n        totalCost = pricePer.mul(_numberOfTickets);\r\n    }\r\n\r\n    function getBasicLottoInfo(uint256 _lotteryId)\r\n        external\r\n        view\r\n        returns (LottoInfo memory)\r\n    {\r\n        return allLotteries_[_lotteryId];\r\n    }\r\n\r\n    function getCurrentLottoInfo() external view returns (LottoInfo memory) {\r\n        return allLotteries_[currentLotteryId_];\r\n    }\r\n\r\n    function getAllLotteries() public view returns (LottoInfo[] memory) {\r\n        LottoInfo[] memory allL = new LottoInfo[](currentLotteryId_);\r\n        for (uint256 i = 1; i <= currentLotteryId_; i++)\r\n            allL[i] = allLotteries_[i];\r\n        return allL;\r\n    }\r\n\r\n    /**\r\n     * @notice View current lottery id\r\n     */\r\n    function viewCurrentLotteryId() external view returns (uint256) {\r\n        return currentLotteryId_;\r\n    }\r\n\r\n    //-------------------------------------------------------------------------\r\n    // STATE MODIFYING FUNCTIONS\r\n    //-------------------------------------------------------------------------\r\n\r\n    /**\r\n     * @param   _closingTimestamp The block timestamp after which no more tickets\r\n     *          will be sold for the lottery. Note that this timestamp MUST\r\n     *          be after the starting block timestamp.\r\n     * @param   _treasuryFee: treasury fee (10,000 = 100%, 100 = 1%)\r\n     * @param   _costPerTicket: price of a ticket in USDT\r\n     */\r\n    function startLottery(\r\n        uint256 _costPerTicket,\r\n        uint256 _closingTimestamp,\r\n        uint256 _treasuryFee\r\n    ) external onlyOperator returns (uint256 lotteryId) {\r\n        require(_costPerTicket != 0, \"Prize or cost cannot be 0\");\r\n        require(\r\n            block.timestamp < _closingTimestamp,\r\n            \"Timestamps for lottery invalid\"\r\n        );\r\n        require(\r\n            (currentLotteryId_ == 0) ||\r\n                (allLotteries_[currentLotteryId_].lotteryStatus ==\r\n                    Status.Completed),\r\n            \"Not time to start lottery\"\r\n        );\r\n        require(_treasuryFee <= MAX_TREASURY_FEE, \"Treasury fee too high\");\r\n\r\n        // Incrementing lottery ID\r\n        currentLotteryId_ = currentLotteryId_.add(1);\r\n        lotteryId = currentLotteryId_;\r\n        // Saving data in struct\r\n        LottoInfo memory newLottery = LottoInfo({\r\n            prizePool: prizePool_,\r\n            lotteryID: lotteryId,\r\n            lotteryStatus: Status.Open,\r\n            amountCollectedInUSDT: 0,\r\n            costPerTicket: _costPerTicket,\r\n            startingTimestamp: block.timestamp,\r\n            closingTimestamp: _closingTimestamp,\r\n            winningNumbers: 111, // 111 means haven't draw numbers\r\n            treasuryFee: _treasuryFee,\r\n            firstTicketId: nft_.getCurrentTicketId().add(1)\r\n        });\r\n        allLotteries_[lotteryId] = newLottery;\r\n\r\n        // Emitting important information around new lottery.\r\n        emit LotteryOpen(lotteryId, nft_.getCurrentTicketId());\r\n    }\r\n\r\n    function withdrawUSDT(uint256 _amount) external onlyOwner {\r\n        usdt_.transfer(msg.sender, _amount);\r\n    }\r\n\r\n    //-------------------------------------------------------------------------\r\n    // General Access Functions\r\n\r\n    function buyTickets(\r\n        uint256 _lotteryId,\r\n        uint8 _numberOfTickets,\r\n        uint8 _chosenNumbersForEachTicket\r\n    ) external notContract nonReentrant {\r\n        // Ensuring the lottery is within a valid time\r\n        require(\r\n            getCurrentTime() >= allLotteries_[_lotteryId].startingTimestamp,\r\n            \"Invalid time for mint:start\"\r\n        );\r\n        require(\r\n            getCurrentTime() < allLotteries_[_lotteryId].closingTimestamp,\r\n            \"Invalid time for mint:end\"\r\n        );\r\n        if (allLotteries_[_lotteryId].lotteryStatus == Status.Completed) {\r\n            if (\r\n                allLotteries_[_lotteryId].startingTimestamp >= getCurrentTime()\r\n            ) {\r\n                allLotteries_[_lotteryId].lotteryStatus = Status.Open;\r\n            }\r\n        }\r\n        require(\r\n            allLotteries_[_lotteryId].lotteryStatus == Status.Open,\r\n            \"Lottery not in state for mint\"\r\n        );\r\n        require(\r\n            _numberOfTickets <= MAX_NUMBER_TICKETS_PER_BUY,\r\n            \"Batch mint too large\"\r\n        );\r\n        require(\r\n            _chosenNumbersForEachTicket <= 99 &&\r\n                _chosenNumbersForEachTicket >= 0,\r\n            \"Choose two-digit number\"\r\n        );\r\n        // Getting the cost for the token purchase\r\n        uint256 totalCost = costToBuyTickets(_lotteryId, _numberOfTickets);\r\n        // Transfers the required cake to this contract\r\n        usdt_.safeTransferFrom(msg.sender, address(this), totalCost);\r\n        prizePool_ = prizePool_.add(totalCost);\r\n\r\n        // Increment the total amount collected for the lottery round\r\n        allLotteries_[_lotteryId].amountCollectedInUSDT += totalCost;\r\n        allLotteries_[_lotteryId].prizePool = prizePool_;\r\n        // Batch mints the user their tickets\r\n        nft_.Mint(\r\n            msg.sender,\r\n            _lotteryId,\r\n            _numberOfTickets,\r\n            _chosenNumbersForEachTicket\r\n        );\r\n\r\n        emit PrizePoolChanged(prizePool_, currentLotteryId_);\r\n    }\r\n\r\n    /**\r\n     * @notice Close lottery\r\n     * @param _lotteryId: lottery id\r\n     * @dev Callable by operator\r\n     */\r\n    function closeLottery(uint256 _lotteryId) external onlyOperator {\r\n        require(\r\n            allLotteries_[_lotteryId].lotteryStatus == Status.Open,\r\n            \"Lottery not open\"\r\n        );\r\n        require(\r\n            block.timestamp >= allLotteries_[_lotteryId].closingTimestamp,\r\n            \"Lottery not over\"\r\n        );\r\n\r\n        allLotteries_[_lotteryId].lotteryStatus = Status.Closed;\r\n\r\n        // Request a random number from the generator\r\n        requestId_ = randomGenerator_.getRandomNumber(_lotteryId);\r\n\r\n        emit RequestNumbers(_lotteryId, requestId_);\r\n    }\r\n\r\n    function numbersDrawn(\r\n        uint256 _lotteryId,\r\n        bytes32 _requestId,\r\n        uint256 _randomNumber\r\n    ) external onlyRandomGenerator nonReentrant {\r\n        // Checks that the lottery is past the closing block\r\n        require(\r\n            allLotteries_[_lotteryId].closingTimestamp <= block.timestamp,\r\n            \"Cannot set winning numbers during lottery\"\r\n        );\r\n        // Checks lottery numbers have not already been drawn\r\n        require(\r\n            allLotteries_[_lotteryId].lotteryStatus == Status.Closed,\r\n            \"Lottery State incorrect for draw\"\r\n        );\r\n\r\n        if (requestId_ == _requestId) {\r\n            // ... Transfer prize here\r\n            (\r\n                uint256 totalWinningTickets,\r\n                uint8 finalNumber,\r\n                ITicketNFT.TicketInfo[] memory winningTickets,\r\n                uint256[] memory winningTicketIds\r\n            ) = nft_.getWinningTickets(\r\n                    _lotteryId,\r\n                    _randomNumber,\r\n                    allLotteries_[_lotteryId].firstTicketId\r\n                );\r\n            if (totalWinningTickets > 0) {\r\n                // Calculate the amount to share post-treasury fee\r\n                uint256 amountToShareToWinners = 0;\r\n                // Initializes the amount to withdraw to treasury\r\n                uint256 amountToWithdrawToTreasury = 0;\r\n                uint256 winAmountPerTicket = 0;\r\n                winAmountPerTicket =\r\n                    (prizePool_ *\r\n                        (10000 - allLotteries_[_lotteryId].treasuryFee)) /\r\n                    10000 /\r\n                    totalWinningTickets;\r\n                amountToShareToWinners =\r\n                    winAmountPerTicket *\r\n                    totalWinningTickets;\r\n                amountToWithdrawToTreasury =\r\n                    prizePool_ -\r\n                    amountToShareToWinners;\r\n\r\n                // Transfer prize to winners\r\n                for (uint256 i = 0; i < winningTickets.length; i++) {\r\n                    uint256 amountToTransferToThisWinner = winAmountPerTicket *\r\n                        winningTickets[i].numberOfTickets;\r\n                    usdt_.safeTransfer(\r\n                        winningTickets[i].owner,\r\n                        amountToTransferToThisWinner\r\n                    );\r\n                    prizePool_ = prizePool_.sub(amountToTransferToThisWinner);\r\n\r\n                    //Save ticket win amount\r\n                    nft_.setTicketWinAmount(\r\n                        winningTicketIds[i],\r\n                        amountToTransferToThisWinner\r\n                    );\r\n                }\r\n\r\n                // Transfer fee to treasury address\r\n                usdt_.safeTransfer(treasuryAddress, amountToWithdrawToTreasury);\r\n                prizePool_ = prizePool_.sub(amountToWithdrawToTreasury);\r\n            }\r\n\r\n            // Set lottery status completed\r\n            allLotteries_[_lotteryId].lotteryStatus = Status.Completed;\r\n            allLotteries_[_lotteryId].winningNumbers = finalNumber;\r\n\r\n            ITicketNFT.TicketInfo[] memory winTicketsInfo = nft_.getTickets(\r\n                winningTicketIds\r\n            );\r\n            emit LotteryClose(\r\n                _lotteryId,\r\n                nft_.getCurrentTicketId(),\r\n                finalNumber,\r\n                winTicketsInfo\r\n            );\r\n        } else revert();\r\n    }\r\n\r\n    /**\r\n     * @notice Set operator, treasury, and injector addresses\r\n     * @dev Only callable by owner\r\n     * @param _operatorAddress: address of the operator\r\n     */\r\n    function setOperatorAndTreasuryAddresses(\r\n        address _operatorAddress,\r\n        address _treasuryAddress\r\n    ) external onlyOwner {\r\n        require(_operatorAddress != address(0), \"Cannot be zero address\");\r\n        require(_treasuryAddress != address(0), \"Cannot be zero address\");\r\n\r\n        operatorAddress = _operatorAddress;\r\n        treasuryAddress = _treasuryAddress;\r\n    }\r\n\r\n    //-------------------------------------------------------------------------\r\n    // INTERNAL FUNCTIONS\r\n    //-------------------------------------------------------------------------\r\n\r\n    function getCurrentTime() public view returns (uint256) {\r\n        return block.timestamp;\r\n    }\r\n}\r\n",
  "sourcePath": "D:\\contract-xosoblockchain\\contracts\\Lottery.sol",
  "compiler": {
    "name": "solc",
    "version": "0.8.14+commit.80d49f37.Emscripten.clang"
  },
  "schemaVersion": "3.4.5",
  "updatedAt": "2022-05-30T07:36:14.544Z",
  "networkType": "ethereum",
  "devdoc": {
    "kind": "dev",
    "methods": {
      "closeLottery(uint256)": {
        "details": "Callable by operator",
        "params": {
          "_lotteryId": ": lottery id"
        }
      },
      "owner()": {
        "details": "Returns the address of the current owner."
      },
      "renounceOwnership()": {
        "details": "Leaves the contract without owner. It will not be possible to call `onlyOwner` functions anymore. Can only be called by the current owner. NOTE: Renouncing ownership will leave the contract without an owner, thereby removing any functionality that is only available to the owner."
      },
      "setOperatorAndTreasuryAddresses(address,address)": {
        "details": "Only callable by owner",
        "params": {
          "_operatorAddress": ": address of the operator"
        }
      },
      "startLottery(uint256,uint256,uint256)": {
        "params": {
          "_closingTimestamp": "The block timestamp after which no more tickets          will be sold for the lottery. Note that this timestamp MUST          be after the starting block timestamp.",
          "_costPerTicket": ": price of a ticket in USDT",
          "_treasuryFee": ": treasury fee (10,000 = 100%, 100 = 1%)"
        }
      },
      "transferOwnership(address)": {
        "details": "Transfers ownership of the contract to a new account (`newOwner`). Can only be called by the current owner."
      }
    },
    "version": 1
  },
  "userdoc": {
    "kind": "user",
    "methods": {
      "closeLottery(uint256)": {
        "notice": "Close lottery"
      },
      "setOperatorAndTreasuryAddresses(address,address)": {
        "notice": "Set operator, treasury, and injector addresses"
      },
      "viewCurrentLotteryId()": {
        "notice": "View current lottery id"
      }
    },
    "version": 1
  }
}