{
  "contractName": "Lottery",
  "abi": [
    {
      "inputs": [
        {
          "internalType": "address",
          "name": "_usdt",
          "type": "address"
        }
      ],
      "stateMutability": "nonpayable",
      "type": "constructor"
    },
    {
      "anonymous": false,
      "inputs": [
        {
          "indexed": false,
          "internalType": "uint256",
          "name": "lotteryId",
          "type": "uint256"
        },
        {
          "indexed": false,
          "internalType": "uint256",
          "name": "ticketSupply",
          "type": "uint256"
        },
        {
          "indexed": false,
          "internalType": "uint8",
          "name": "finalNumber",
          "type": "uint8"
        },
        {
          "components": [
            {
              "internalType": "address",
              "name": "owner",
              "type": "address"
            },
            {
              "internalType": "uint8",
              "name": "numbers",
              "type": "uint8"
            },
            {
              "internalType": "uint256",
              "name": "lotteryId",
              "type": "uint256"
            },
            {
              "internalType": "uint8",
              "name": "numberOfTickets",
              "type": "uint8"
            },
            {
              "internalType": "uint256",
              "name": "winAmount",
              "type": "uint256"
            },
            {
              "internalType": "uint256",
              "name": "buyAt",
              "type": "uint256"
            }
          ],
          "indexed": false,
          "internalType": "struct ITicketNFT.TicketInfo[]",
          "name": "winningTickets",
          "type": "tuple[]"
        }
      ],
      "name": "LotteryClose",
      "type": "event"
    },
    {
      "anonymous": false,
      "inputs": [
        {
          "indexed": false,
          "internalType": "uint256",
          "name": "lotteryId",
          "type": "uint256"
        },
        {
          "indexed": false,
          "internalType": "uint256",
          "name": "ticketSupply",
          "type": "uint256"
        }
      ],
      "name": "LotteryOpen",
      "type": "event"
    },
    {
      "anonymous": false,
      "inputs": [
        {
          "indexed": true,
          "internalType": "address",
          "name": "previousOwner",
          "type": "address"
        },
        {
          "indexed": true,
          "internalType": "address",
          "name": "newOwner",
          "type": "address"
        }
      ],
      "name": "OwnershipTransferred",
      "type": "event"
    },
    {
      "anonymous": false,
      "inputs": [
        {
          "indexed": false,
          "internalType": "uint256",
          "name": "currentPrizePool",
          "type": "uint256"
        },
        {
          "indexed": false,
          "internalType": "uint256",
          "name": "currentLotteryId",
          "type": "uint256"
        }
      ],
      "name": "PrizePoolChanged",
      "type": "event"
    },
    {
      "anonymous": false,
      "inputs": [
        {
          "indexed": false,
          "internalType": "uint256",
          "name": "lotteryId",
          "type": "uint256"
        },
        {
          "indexed": false,
          "internalType": "bytes32",
          "name": "requestId",
          "type": "bytes32"
        }
      ],
      "name": "RequestNumbers",
      "type": "event"
    },
    {
      "inputs": [],
      "name": "MAX_NUMBER_TICKETS_PER_BUY",
      "outputs": [
        {
          "internalType": "uint256",
          "name": "",
          "type": "uint256"
        }
      ],
      "stateMutability": "view",
      "type": "function",
      "constant": true
    },
    {
      "inputs": [],
      "name": "MAX_TREASURY_FEE",
      "outputs": [
        {
          "internalType": "uint256",
          "name": "",
          "type": "uint256"
        }
      ],
      "stateMutability": "view",
      "type": "function",
      "constant": true
    },
    {
      "inputs": [],
      "name": "operatorAddress",
      "outputs": [
        {
          "internalType": "address",
          "name": "",
          "type": "address"
        }
      ],
      "stateMutability": "view",
      "type": "function",
      "constant": true
    },
    {
      "inputs": [],
      "name": "owner",
      "outputs": [
        {
          "internalType": "address",
          "name": "",
          "type": "address"
        }
      ],
      "stateMutability": "view",
      "type": "function",
      "constant": true
    },
    {
      "inputs": [],
      "name": "renounceOwnership",
      "outputs": [],
      "stateMutability": "nonpayable",
      "type": "function"
    },
    {
      "inputs": [
        {
          "internalType": "address",
          "name": "newOwner",
          "type": "address"
        }
      ],
      "name": "transferOwnership",
      "outputs": [],
      "stateMutability": "nonpayable",
      "type": "function"
    },
    {
      "inputs": [],
      "name": "treasuryAddress",
      "outputs": [
        {
          "internalType": "address",
          "name": "",
          "type": "address"
        }
      ],
      "stateMutability": "view",
      "type": "function",
      "constant": true
    },
    {
      "inputs": [
        {
          "internalType": "address",
          "name": "_TicketNFT",
          "type": "address"
        },
        {
          "internalType": "address",
          "name": "_IRandomNumberGenerator",
          "type": "address"
        }
      ],
      "name": "initialize",
      "outputs": [],
      "stateMutability": "nonpayable",
      "type": "function"
    },
    {
      "inputs": [
        {
          "internalType": "address",
          "name": "_usdt",
          "type": "address"
        }
      ],
      "name": "setUsdtAddress",
      "outputs": [],
      "stateMutability": "nonpayable",
      "type": "function"
    },
    {
      "inputs": [
        {
          "internalType": "uint256",
          "name": "_lotteryId",
          "type": "uint256"
        },
        {
          "internalType": "uint256",
          "name": "_numberOfTickets",
          "type": "uint256"
        }
      ],
      "name": "costToBuyTickets",
      "outputs": [
        {
          "internalType": "uint256",
          "name": "totalCost",
          "type": "uint256"
        }
      ],
      "stateMutability": "view",
      "type": "function",
      "constant": true
    },
    {
      "inputs": [
        {
          "internalType": "uint256",
          "name": "_lotteryId",
          "type": "uint256"
        }
      ],
      "name": "getBasicLottoInfo",
      "outputs": [
        {
          "components": [
            {
              "internalType": "uint256",
              "name": "prizePool",
              "type": "uint256"
            },
            {
              "internalType": "uint256",
              "name": "lotteryID",
              "type": "uint256"
            },
            {
              "internalType": "enum Lottery.Status",
              "name": "lotteryStatus",
              "type": "uint8"
            },
            {
              "internalType": "uint256",
              "name": "amountCollectedInUSDT",
              "type": "uint256"
            },
            {
              "internalType": "uint256",
              "name": "costPerTicket",
              "type": "uint256"
            },
            {
              "internalType": "uint256",
              "name": "startingTimestamp",
              "type": "uint256"
            },
            {
              "internalType": "uint256",
              "name": "closingTimestamp",
              "type": "uint256"
            },
            {
              "internalType": "uint8",
              "name": "winningNumbers",
              "type": "uint8"
            },
            {
              "internalType": "uint256",
              "name": "treasuryFee",
              "type": "uint256"
            },
            {
              "internalType": "uint256",
              "name": "firstTicketId",
              "type": "uint256"
            }
          ],
          "internalType": "struct Lottery.LottoInfo",
          "name": "",
          "type": "tuple"
        }
      ],
      "stateMutability": "view",
      "type": "function",
      "constant": true
    },
    {
      "inputs": [],
      "name": "getCurrentLottoInfo",
      "outputs": [
        {
          "components": [
            {
              "internalType": "uint256",
              "name": "prizePool",
              "type": "uint256"
            },
            {
              "internalType": "uint256",
              "name": "lotteryID",
              "type": "uint256"
            },
            {
              "internalType": "enum Lottery.Status",
              "name": "lotteryStatus",
              "type": "uint8"
            },
            {
              "internalType": "uint256",
              "name": "amountCollectedInUSDT",
              "type": "uint256"
            },
            {
              "internalType": "uint256",
              "name": "costPerTicket",
              "type": "uint256"
            },
            {
              "internalType": "uint256",
              "name": "startingTimestamp",
              "type": "uint256"
            },
            {
              "internalType": "uint256",
              "name": "closingTimestamp",
              "type": "uint256"
            },
            {
              "internalType": "uint8",
              "name": "winningNumbers",
              "type": "uint8"
            },
            {
              "internalType": "uint256",
              "name": "treasuryFee",
              "type": "uint256"
            },
            {
              "internalType": "uint256",
              "name": "firstTicketId",
              "type": "uint256"
            }
          ],
          "internalType": "struct Lottery.LottoInfo",
          "name": "",
          "type": "tuple"
        }
      ],
      "stateMutability": "view",
      "type": "function",
      "constant": true
    },
    {
      "inputs": [],
      "name": "getAllLotteries",
      "outputs": [
        {
          "components": [
            {
              "internalType": "uint256",
              "name": "prizePool",
              "type": "uint256"
            },
            {
              "internalType": "uint256",
              "name": "lotteryID",
              "type": "uint256"
            },
            {
              "internalType": "enum Lottery.Status",
              "name": "lotteryStatus",
              "type": "uint8"
            },
            {
              "internalType": "uint256",
              "name": "amountCollectedInUSDT",
              "type": "uint256"
            },
            {
              "internalType": "uint256",
              "name": "costPerTicket",
              "type": "uint256"
            },
            {
              "internalType": "uint256",
              "name": "startingTimestamp",
              "type": "uint256"
            },
            {
              "internalType": "uint256",
              "name": "closingTimestamp",
              "type": "uint256"
            },
            {
              "internalType": "uint8",
              "name": "winningNumbers",
              "type": "uint8"
            },
            {
              "internalType": "uint256",
              "name": "treasuryFee",
              "type": "uint256"
            },
            {
              "internalType": "uint256",
              "name": "firstTicketId",
              "type": "uint256"
            }
          ],
          "internalType": "struct Lottery.LottoInfo[]",
          "name": "",
          "type": "tuple[]"
        }
      ],
      "stateMutability": "view",
      "type": "function",
      "constant": true
    },
    {
      "inputs": [],
      "name": "viewCurrentLotteryId",
      "outputs": [
        {
          "internalType": "uint256",
          "name": "",
          "type": "uint256"
        }
      ],
      "stateMutability": "view",
      "type": "function",
      "constant": true
    },
    {
      "inputs": [
        {
          "internalType": "uint256",
          "name": "_costPerTicket",
          "type": "uint256"
        },
        {
          "internalType": "uint256",
          "name": "_closingTimestamp",
          "type": "uint256"
        },
        {
          "internalType": "uint256",
          "name": "_treasuryFee",
          "type": "uint256"
        }
      ],
      "name": "startLottery",
      "outputs": [
        {
          "internalType": "uint256",
          "name": "lotteryId",
          "type": "uint256"
        }
      ],
      "stateMutability": "nonpayable",
      "type": "function"
    },
    {
      "inputs": [
        {
          "internalType": "uint256",
          "name": "_amount",
          "type": "uint256"
        }
      ],
      "name": "withdrawUSDT",
      "outputs": [],
      "stateMutability": "nonpayable",
      "type": "function"
    },
    {
      "inputs": [
        {
          "internalType": "uint256",
          "name": "_lotteryId",
          "type": "uint256"
        },
        {
          "internalType": "uint8",
          "name": "_numberOfTickets",
          "type": "uint8"
        },
        {
          "internalType": "uint8",
          "name": "_chosenNumbersForEachTicket",
          "type": "uint8"
        }
      ],
      "name": "buyTickets",
      "outputs": [],
      "stateMutability": "nonpayable",
      "type": "function"
    },
    {
      "inputs": [
        {
          "internalType": "uint256",
          "name": "_lotteryId",
          "type": "uint256"
        }
      ],
      "name": "closeLottery",
      "outputs": [],
      "stateMutability": "nonpayable",
      "type": "function"
    },
    {
      "inputs": [
        {
          "internalType": "uint256",
          "name": "_lotteryId",
          "type": "uint256"
        },
        {
          "internalType": "bytes32",
          "name": "_requestId",
          "type": "bytes32"
        },
        {
          "internalType": "uint256",
          "name": "_randomNumber",
          "type": "uint256"
        }
      ],
      "name": "numbersDrawn",
      "outputs": [],
      "stateMutability": "nonpayable",
      "type": "function"
    },
    {
      "inputs": [
        {
          "internalType": "address",
          "name": "_operatorAddress",
          "type": "address"
        },
        {
          "internalType": "address",
          "name": "_treasuryAddress",
          "type": "address"
        }
      ],
      "name": "setOperatorAndTreasuryAddresses",
      "outputs": [],
      "stateMutability": "nonpayable",
      "type": "function"
    },
    {
      "inputs": [],
      "name": "getCurrentTime",
      "outputs": [
        {
          "internalType": "uint256",
          "name": "",
          "type": "uint256"
        }
      ],
      "stateMutability": "view",
      "type": "function",
      "constant": true
    }
  ],
  "bytecode": "0x60806040523480156200001157600080fd5b50604051620049553803806200495583398181016040528101906200003791906200024e565b620000576200004b6200011860201b60201c565b6200012060201b60201c565b60018081905550600073ffffffffffffffffffffffffffffffffffffffff168173ffffffffffffffffffffffffffffffffffffffff1603620000d0576040517f08c379a0000000000000000000000000000000000000000000000000000000008152600401620000c790620002e1565b60405180910390fd5b80600460006101000a81548173ffffffffffffffffffffffffffffffffffffffff021916908373ffffffffffffffffffffffffffffffffffffffff1602179055505062000303565b600033905090565b60008060009054906101000a900473ffffffffffffffffffffffffffffffffffffffff169050816000806101000a81548173ffffffffffffffffffffffffffffffffffffffff021916908373ffffffffffffffffffffffffffffffffffffffff1602179055508173ffffffffffffffffffffffffffffffffffffffff168173ffffffffffffffffffffffffffffffffffffffff167f8be0079c531659141344cd1fd0a4f28419497f9722a3daafe3b4186f6b6457e060405160405180910390a35050565b600080fd5b600073ffffffffffffffffffffffffffffffffffffffff82169050919050565b60006200021682620001e9565b9050919050565b620002288162000209565b81146200023457600080fd5b50565b60008151905062000248816200021d565b92915050565b600060208284031215620002675762000266620001e4565b5b6000620002778482850162000237565b91505092915050565b600082825260208201905092915050565b7f436f6e7472616374732063616e6e6f7420626520302061646472657373000000600082015250565b6000620002c9601d8362000280565b9150620002d68262000291565b602082019050919050565b60006020820190508181036000830152620002fc81620002ba565b9050919050565b61464280620003136000396000f3fe608060405234801561001057600080fd5b50600436106101375760003560e01c806358eead98116100b8578063a5773a471161007c578063a5773a4714610302578063c5f956af14610320578063da4767551461033e578063e97fc1621461036e578063f2b3c8091461038a578063f2fde38b146103a857610137565b806358eead9814610282578063715018a6146102a057806380a06160146102aa5780638da5cb5b146102c85780639d8ca531146102e657610137565b80632cff0b6d116100ff5780632cff0b6d146101ce5780633ea521ef146101fe578063485cc9551461021a5780634f7d93db146102365780634f807c3a1461026657610137565b80630cb46b751461013c578063100d003914610158578063127effb21461017457806329cb924d146101925780632bf58673146101b0575b600080fd5b6101566004803603810190610151919061291f565b6103c4565b005b610172600480360381019061016d919061294c565b6104f3565b005b61017c6106d3565b604051610189919061299b565b60405180910390f35b61019a6106f9565b6040516101a791906129cf565b60405180910390f35b6101b8610701565b6040516101c591906129cf565b60405180910390f35b6101e860048036038101906101e39190612a16565b610706565b6040516101f591906129cf565b60405180910390f35b61021860048036038101906102139190612a69565b610bad565b005b610234600480360381019061022f919061294c565b610ccd565b005b610250600480360381019061024b9190612a96565b610f5d565b60405161025d91906129cf565b60405180910390f35b610280600480360381019061027b9190612b0f565b610f95565b005b61028a6114fd565b6040516102979190612cc3565b60405180910390f35b6102a86115d3565b005b6102b261165b565b6040516102bf91906129cf565b60405180910390f35b6102d0611665565b6040516102dd919061299b565b60405180910390f35b61030060048036038101906102fb9190612a69565b61168e565b005b61030a611922565b6040516103179190612e5b565b60405180910390f35b610328611a8e565b604051610335919061299b565b60405180910390f35b61035860048036038101906103539190612a69565b611ab4565b6040516103659190612cc3565b60405180910390f35b61038860048036038101906103839190612eb3565b611b8a565b005b61039261229d565b60405161039f91906129cf565b60405180910390f35b6103c260048036038101906103bd919061291f565b6122a3565b005b6103cc61239a565b73ffffffffffffffffffffffffffffffffffffffff166103ea611665565b73ffffffffffffffffffffffffffffffffffffffff1614610440576040517f08c379a000000000000000000000000000000000000000000000000000000000815260040161043790612f63565b60405180910390fd5b600073ffffffffffffffffffffffffffffffffffffffff168173ffffffffffffffffffffffffffffffffffffffff16036104af576040517f08c379a00000000000000000000000000000000000000000000000000000000081526004016104a690612fcf565b60405180910390fd5b80600460006101000a81548173ffffffffffffffffffffffffffffffffffffffff021916908373ffffffffffffffffffffffffffffffffffffffff16021790555050565b6104fb61239a565b73ffffffffffffffffffffffffffffffffffffffff16610519611665565b73ffffffffffffffffffffffffffffffffffffffff161461056f576040517f08c379a000000000000000000000000000000000000000000000000000000000815260040161056690612f63565b60405180910390fd5b600073ffffffffffffffffffffffffffffffffffffffff168273ffffffffffffffffffffffffffffffffffffffff16036105de576040517f08c379a00000000000000000000000000000000000000000000000000000000081526004016105d59061303b565b60405180910390fd5b600073ffffffffffffffffffffffffffffffffffffffff168173ffffffffffffffffffffffffffffffffffffffff160361064d576040517f08c379a00000000000000000000000000000000000000000000000000000000081526004016106449061303b565b60405180910390fd5b81600260006101000a81548173ffffffffffffffffffffffffffffffffffffffff021916908373ffffffffffffffffffffffffffffffffffffffff16021790555080600360006101000a81548173ffffffffffffffffffffffffffffffffffffffff021916908373ffffffffffffffffffffffffffffffffffffffff1602179055505050565b600260009054906101000a900473ffffffffffffffffffffffffffffffffffffffff1681565b600042905090565b606481565b6000600260009054906101000a900473ffffffffffffffffffffffffffffffffffffffff1673ffffffffffffffffffffffffffffffffffffffff163373ffffffffffffffffffffffffffffffffffffffff1614610798576040517f08c379a000000000000000000000000000000000000000000000000000000000815260040161078f906130a7565b60405180910390fd5b600084036107db576040517f08c379a00000000000000000000000000000000000000000000000000000000081526004016107d290613113565b60405180910390fd5b82421061081d576040517f08c379a00000000000000000000000000000000000000000000000000000000081526004016108149061317f565b60405180910390fd5b60006008541480610876575060028081111561083c5761083b612b71565b5b600a6000600854815260200190815260200160002060020160009054906101000a900460ff16600281111561087457610873612b71565b5b145b6108b5576040517f08c379a00000000000000000000000000000000000000000000000000000000081526004016108ac906131eb565b60405180910390fd5b6113888211156108fa576040517f08c379a00000000000000000000000000000000000000000000000000000000081526004016108f190613257565b60405180910390fd5b61091060016008546123a290919063ffffffff16565b6008819055506008549050600060405180610140016040528060095481526020018381526020016000600281111561094b5761094a612b71565b5b815260200160008152602001868152602001428152602001858152602001606f60ff168152602001848152602001610a1d6001600560009054906101000a900473ffffffffffffffffffffffffffffffffffffffff1673ffffffffffffffffffffffffffffffffffffffff1663bc49516b6040518163ffffffff1660e01b8152600401602060405180830381865afa1580156109eb573d6000803e3d6000fd5b505050506040513d601f19601f82011682018060405250810190610a0f919061328c565b6123a290919063ffffffff16565b815250905080600a6000848152602001908152602001600020600082015181600001556020820151816001015560408201518160020160006101000a81548160ff02191690836002811115610a7557610a74612b71565b5b0217905550606082015181600301556080820151816004015560a0820151816005015560c0820151816006015560e08201518160070160006101000a81548160ff021916908360ff160217905550610100820151816008015561012082015181600901559050507fce7176db4e5b6d07ad0f0ecf9523a01d98aa268b888a199592cb5b1e40615c4682600560009054906101000a900473ffffffffffffffffffffffffffffffffffffffff1673ffffffffffffffffffffffffffffffffffffffff1663bc49516b6040518163ffffffff1660e01b8152600401602060405180830381865afa158015610b6b573d6000803e3d6000fd5b505050506040513d601f19601f82011682018060405250810190610b8f919061328c565b604051610b9d9291906132b9565b60405180910390a1509392505050565b610bb561239a565b73ffffffffffffffffffffffffffffffffffffffff16610bd3611665565b73ffffffffffffffffffffffffffffffffffffffff1614610c29576040517f08c379a0000000000000000000000000000000000000000000000000000000008152600401610c2090612f63565b60405180910390fd5b600460009054906101000a900473ffffffffffffffffffffffffffffffffffffffff1673ffffffffffffffffffffffffffffffffffffffff1663a9059cbb33836040518363ffffffff1660e01b8152600401610c869291906132e2565b6020604051808303816000875af1158015610ca5573d6000803e3d6000fd5b505050506040513d601f19601f82011682018060405250810190610cc99190613343565b5050565b600060159054906101000a900460ff16610cf757600060149054906101000a900460ff1615610d00565b610cff6123b8565b5b610d3f576040517f08c379a0000000000000000000000000000000000000000000000000000000008152600401610d36906133e2565b60405180910390fd5b60008060159054906101000a900460ff161590508015610d90576001600060156101000a81548160ff0219169083151502179055506001600060146101000a81548160ff0219169083151502179055505b610d9861239a565b73ffffffffffffffffffffffffffffffffffffffff16610db6611665565b73ffffffffffffffffffffffffffffffffffffffff1614610e0c576040517f08c379a0000000000000000000000000000000000000000000000000000000008152600401610e0390612f63565b60405180910390fd5b600073ffffffffffffffffffffffffffffffffffffffff168373ffffffffffffffffffffffffffffffffffffffff1614158015610e765750600073ffffffffffffffffffffffffffffffffffffffff168273ffffffffffffffffffffffffffffffffffffffff1614155b610eb5576040517f08c379a0000000000000000000000000000000000000000000000000000000008152600401610eac90612fcf565b60405180910390fd5b82600560006101000a81548173ffffffffffffffffffffffffffffffffffffffff021916908373ffffffffffffffffffffffffffffffffffffffff16021790555081600660006101000a81548173ffffffffffffffffffffffffffffffffffffffff021916908373ffffffffffffffffffffffffffffffffffffffff1602179055508015610f585760008060156101000a81548160ff0219169083151502179055505b505050565b600080600a6000858152602001908152602001600020600401549050610f8c83826123c990919063ffffffff16565b91505092915050565b610fb43373ffffffffffffffffffffffffffffffffffffffff166123df565b15610ff4576040517f08c379a0000000000000000000000000000000000000000000000000000000008152600401610feb9061344e565b60405180910390fd5b3273ffffffffffffffffffffffffffffffffffffffff163373ffffffffffffffffffffffffffffffffffffffff1614611062576040517f08c379a0000000000000000000000000000000000000000000000000000000008152600401611059906134ba565b60405180910390fd5b6002600154036110a7576040517f08c379a000000000000000000000000000000000000000000000000000000000815260040161109e90613526565b60405180910390fd5b6002600181905550600a6000848152602001908152602001600020600501546110ce6106f9565b101561110f576040517f08c379a000000000000000000000000000000000000000000000000000000000815260040161110690613592565b60405180910390fd5b600a60008481526020019081526020016000206006015461112e6106f9565b1061116e576040517f08c379a0000000000000000000000000000000000000000000000000000000008152600401611165906135fe565b60405180910390fd5b60028081111561118157611180612b71565b5b600a600085815260200190815260200160002060020160009054906101000a900460ff1660028111156111b7576111b6612b71565b5b03611221576111c46106f9565b600a60008581526020019081526020016000206005015410611220576000600a600085815260200190815260200160002060020160006101000a81548160ff0219169083600281111561121a57611219612b71565b5b02179055505b5b6000600281111561123557611234612b71565b5b600a600085815260200190815260200160002060020160009054906101000a900460ff16600281111561126b5761126a612b71565b5b146112ab576040517f08c379a00000000000000000000000000000000000000000000000000000000081526004016112a29061366a565b60405180910390fd5b60648260ff1611156112f2576040517f08c379a00000000000000000000000000000000000000000000000000000000081526004016112e9906136d6565b60405180910390fd5b60638160ff161115801561130a575060008160ff1610155b611349576040517f08c379a000000000000000000000000000000000000000000000000000000000815260040161134090613742565b60405180910390fd5b6000611358848460ff16610f5d565b90506113a9333083600460009054906101000a900473ffffffffffffffffffffffffffffffffffffffff1673ffffffffffffffffffffffffffffffffffffffff16612402909392919063ffffffff16565b6113be816009546123a290919063ffffffff16565b60098190555080600a600086815260200190815260200160002060030160008282546113ea9190613791565b92505081905550600954600a600086815260200190815260200160002060000181905550600560009054906101000a900473ffffffffffffffffffffffffffffffffffffffff1673ffffffffffffffffffffffffffffffffffffffff1663867f5168338686866040518563ffffffff1660e01b815260040161146f94939291906137f6565b6020604051808303816000875af115801561148e573d6000803e3d6000fd5b505050506040513d601f19601f820116820180604052508101906114b2919061328c565b507f18d944b97ba06c73d80013e53a5c6c7b8f6273d17cdc0a8885eeac06190ea95e6009546008546040516114e89291906132b9565b60405180910390a15060018081905550505050565b611505612845565b600a600060085481526020019081526020016000206040518061014001604052908160008201548152602001600182015481526020016002820160009054906101000a900460ff16600281111561155f5761155e612b71565b5b600281111561157157611570612b71565b5b8152602001600382015481526020016004820154815260200160058201548152602001600682015481526020016007820160009054906101000a900460ff1660ff1660ff16815260200160088201548152602001600982015481525050905090565b6115db61239a565b73ffffffffffffffffffffffffffffffffffffffff166115f9611665565b73ffffffffffffffffffffffffffffffffffffffff161461164f576040517f08c379a000000000000000000000000000000000000000000000000000000000815260040161164690612f63565b60405180910390fd5b611659600061248b565b565b6000600854905090565b60008060009054906101000a900473ffffffffffffffffffffffffffffffffffffffff16905090565b600260009054906101000a900473ffffffffffffffffffffffffffffffffffffffff1673ffffffffffffffffffffffffffffffffffffffff163373ffffffffffffffffffffffffffffffffffffffff161461171e576040517f08c379a0000000000000000000000000000000000000000000000000000000008152600401611715906130a7565b60405180910390fd5b6000600281111561173257611731612b71565b5b600a600083815260200190815260200160002060020160009054906101000a900460ff16600281111561176857611767612b71565b5b146117a8576040517f08c379a000000000000000000000000000000000000000000000000000000000815260040161179f90613887565b60405180910390fd5b600a600082815260200190815260200160002060060154421015611801576040517f08c379a00000000000000000000000000000000000000000000000000000000081526004016117f8906138f3565b60405180910390fd5b6001600a600083815260200190815260200160002060020160006101000a81548160ff0219169083600281111561183b5761183a612b71565b5b0217905550600660009054906101000a900473ffffffffffffffffffffffffffffffffffffffff1673ffffffffffffffffffffffffffffffffffffffff1663b37217a4826040518263ffffffff1660e01b815260040161189b91906129cf565b6020604051808303816000875af11580156118ba573d6000803e3d6000fd5b505050506040513d601f19601f820116820180604052508101906118de9190613928565b6007819055507ff8cdf8355a0f31bbad8998a631f5a75dcb3e475a010b34a111ed105fe88e751a81600754604051611917929190613964565b60405180910390a150565b6060600060085467ffffffffffffffff8111156119425761194161398d565b5b60405190808252806020026020018201604052801561197b57816020015b611968612845565b8152602001906001900390816119605790505b5090506000600190505b6008548111611a8657600a60008281526020019081526020016000206040518061014001604052908160008201548152602001600182015481526020016002820160009054906101000a900460ff1660028111156119e6576119e5612b71565b5b60028111156119f8576119f7612b71565b5b8152602001600382015481526020016004820154815260200160058201548152602001600682015481526020016007820160009054906101000a900460ff1660ff1660ff16815260200160088201548152602001600982015481525050828281518110611a6857611a676139bc565b5b60200260200101819052508080611a7e906139eb565b915050611985565b508091505090565b600360009054906101000a900473ffffffffffffffffffffffffffffffffffffffff1681565b611abc612845565b600a60008381526020019081526020016000206040518061014001604052908160008201548152602001600182015481526020016002820160009054906101000a900460ff166002811115611b1457611b13612b71565b5b6002811115611b2657611b25612b71565b5b8152602001600382015481526020016004820154815260200160058201548152602001600682015481526020016007820160009054906101000a900460ff1660ff1660ff168152602001600882015481526020016009820154815250509050919050565b600660009054906101000a900473ffffffffffffffffffffffffffffffffffffffff1673ffffffffffffffffffffffffffffffffffffffff163373ffffffffffffffffffffffffffffffffffffffff1614611c1a576040517f08c379a0000000000000000000000000000000000000000000000000000000008152600401611c1190613a7f565b60405180910390fd5b600260015403611c5f576040517f08c379a0000000000000000000000000000000000000000000000000000000008152600401611c5690613526565b60405180910390fd5b600260018190555042600a6000858152602001908152602001600020600601541115611cc0576040517f08c379a0000000000000000000000000000000000000000000000000000000008152600401611cb790613b11565b60405180910390fd5b60016002811115611cd457611cd3612b71565b5b600a600085815260200190815260200160002060020160009054906101000a900460ff166002811115611d0a57611d09612b71565b5b14611d4a576040517f08c379a0000000000000000000000000000000000000000000000000000000008152600401611d4190613b7d565b60405180910390fd5b816007540361228c57600080600080600560009054906101000a900473ffffffffffffffffffffffffffffffffffffffff1673ffffffffffffffffffffffffffffffffffffffff16630fa3f02c8887600a60008c8152602001908152602001600020600901546040518463ffffffff1660e01b8152600401611dce93929190613b9d565b600060405180830381865afa158015611deb573d6000803e3d6000fd5b505050506040513d6000823e3d601f19601f82011682018060405250810190611e149190613e90565b935093509350935060008411156120a257600080600086612710600a60008d815260200190815260200160002060080154612710611e529190613f2f565b600954611e5f9190613f63565b611e699190613fec565b611e739190613fec565b90508681611e819190613f63565b925082600954611e919190613f2f565b915060005b8551811015612013576000868281518110611eb457611eb36139bc565b5b60200260200101516060015160ff1683611ece9190613f63565b9050611f3b878381518110611ee657611ee56139bc565b5b60200260200101516000015182600460009054906101000a900473ffffffffffffffffffffffffffffffffffffffff1673ffffffffffffffffffffffffffffffffffffffff1661254f9092919063ffffffff16565b611f50816009546125d590919063ffffffff16565b600981905550600560009054906101000a900473ffffffffffffffffffffffffffffffffffffffff1673ffffffffffffffffffffffffffffffffffffffff166322ea80af878481518110611fa757611fa66139bc565b5b6020026020010151836040518363ffffffff1660e01b8152600401611fcd9291906132b9565b600060405180830381600087803b158015611fe757600080fd5b505af1158015611ffb573d6000803e3d6000fd5b5050505050808061200b906139eb565b915050611e96565b50612083600360009054906101000a900473ffffffffffffffffffffffffffffffffffffffff1683600460009054906101000a900473ffffffffffffffffffffffffffffffffffffffff1673ffffffffffffffffffffffffffffffffffffffff1661254f9092919063ffffffff16565b612098826009546125d590919063ffffffff16565b6009819055505050505b6002600a600089815260200190815260200160002060020160006101000a81548160ff021916908360028111156120dc576120db612b71565b5b021790555082600a600089815260200190815260200160002060070160006101000a81548160ff021916908360ff1602179055506000600560009054906101000a900473ffffffffffffffffffffffffffffffffffffffff1673ffffffffffffffffffffffffffffffffffffffff1663127873f7836040518263ffffffff1660e01b815260040161216d91906140cc565b600060405180830381865afa15801561218a573d6000803e3d6000fd5b505050506040513d6000823e3d601f19601f820116820180604052508101906121b391906140ee565b90507f035985bc2b846f2c2e0de3ca54496685c2e8854aa634b9722ca14efd675c230588600560009054906101000a900473ffffffffffffffffffffffffffffffffffffffff1673ffffffffffffffffffffffffffffffffffffffff1663bc49516b6040518163ffffffff1660e01b8152600401602060405180830381865afa158015612244573d6000803e3d6000fd5b505050506040513d601f19601f82011682018060405250810190612268919061328c565b868460405161227a9493929190614270565b60405180910390a15050505050612291565b600080fd5b60018081905550505050565b61138881565b6122ab61239a565b73ffffffffffffffffffffffffffffffffffffffff166122c9611665565b73ffffffffffffffffffffffffffffffffffffffff161461231f576040517f08c379a000000000000000000000000000000000000000000000000000000000815260040161231690612f63565b60405180910390fd5b600073ffffffffffffffffffffffffffffffffffffffff168173ffffffffffffffffffffffffffffffffffffffff160361238e576040517f08c379a00000000000000000000000000000000000000000000000000000000081526004016123859061432e565b60405180910390fd5b6123978161248b565b50565b600033905090565b600081836123b09190613791565b905092915050565b60006123c3306123df565b15905090565b600081836123d79190613f63565b905092915050565b6000808273ffffffffffffffffffffffffffffffffffffffff163b119050919050565b612485846323b872dd60e01b8585856040516024016124239392919061434e565b604051602081830303815290604052907bffffffffffffffffffffffffffffffffffffffffffffffffffffffff19166020820180517bffffffffffffffffffffffffffffffffffffffffffffffffffffffff83818316178352505050506125eb565b50505050565b60008060009054906101000a900473ffffffffffffffffffffffffffffffffffffffff169050816000806101000a81548173ffffffffffffffffffffffffffffffffffffffff021916908373ffffffffffffffffffffffffffffffffffffffff1602179055508173ffffffffffffffffffffffffffffffffffffffff168173ffffffffffffffffffffffffffffffffffffffff167f8be0079c531659141344cd1fd0a4f28419497f9722a3daafe3b4186f6b6457e060405160405180910390a35050565b6125d08363a9059cbb60e01b848460405160240161256e9291906132e2565b604051602081830303815290604052907bffffffffffffffffffffffffffffffffffffffffffffffffffffffff19166020820180517bffffffffffffffffffffffffffffffffffffffffffffffffffffffff83818316178352505050506125eb565b505050565b600081836125e39190613f2f565b905092915050565b600061264d826040518060400160405280602081526020017f5361666545524332303a206c6f772d6c6576656c2063616c6c206661696c65648152508573ffffffffffffffffffffffffffffffffffffffff166126b29092919063ffffffff16565b90506000815111156126ad578080602001905181019061266d9190613343565b6126ac576040517f08c379a00000000000000000000000000000000000000000000000000000000081526004016126a3906143f7565b60405180910390fd5b5b505050565b60606126c184846000856126ca565b90509392505050565b60608247101561270f576040517f08c379a000000000000000000000000000000000000000000000000000000000815260040161270690614489565b60405180910390fd5b612718856123df565b612757576040517f08c379a000000000000000000000000000000000000000000000000000000000815260040161274e906144f5565b60405180910390fd5b6000808673ffffffffffffffffffffffffffffffffffffffff168587604051612780919061458f565b60006040518083038185875af1925050503d80600081146127bd576040519150601f19603f3d011682016040523d82523d6000602084013e6127c2565b606091505b50915091506127d28282866127de565b92505050949350505050565b606083156127ee5782905061283e565b6000835111156128015782518084602001fd5b816040517f08c379a000000000000000000000000000000000000000000000000000000000815260040161283591906145ea565b60405180910390fd5b9392505050565b60405180610140016040528060008152602001600081526020016000600281111561287357612872612b71565b5b815260200160008152602001600081526020016000815260200160008152602001600060ff16815260200160008152602001600081525090565b6000604051905090565b600080fd5b600080fd5b600073ffffffffffffffffffffffffffffffffffffffff82169050919050565b60006128ec826128c1565b9050919050565b6128fc816128e1565b811461290757600080fd5b50565b600081359050612919816128f3565b92915050565b600060208284031215612935576129346128b7565b5b60006129438482850161290a565b91505092915050565b60008060408385031215612963576129626128b7565b5b60006129718582860161290a565b92505060206129828582860161290a565b9150509250929050565b612995816128e1565b82525050565b60006020820190506129b0600083018461298c565b92915050565b6000819050919050565b6129c9816129b6565b82525050565b60006020820190506129e460008301846129c0565b92915050565b6129f3816129b6565b81146129fe57600080fd5b50565b600081359050612a10816129ea565b92915050565b600080600060608486031215612a2f57612a2e6128b7565b5b6000612a3d86828701612a01565b9350506020612a4e86828701612a01565b9250506040612a5f86828701612a01565b9150509250925092565b600060208284031215612a7f57612a7e6128b7565b5b6000612a8d84828501612a01565b91505092915050565b60008060408385031215612aad57612aac6128b7565b5b6000612abb85828601612a01565b9250506020612acc85828601612a01565b9150509250929050565b600060ff82169050919050565b612aec81612ad6565b8114612af757600080fd5b50565b600081359050612b0981612ae3565b92915050565b600080600060608486031215612b2857612b276128b7565b5b6000612b3686828701612a01565b9350506020612b4786828701612afa565b9250506040612b5886828701612afa565b9150509250925092565b612b6b816129b6565b82525050565b7f4e487b7100000000000000000000000000000000000000000000000000000000600052602160045260246000fd5b60038110612bb157612bb0612b71565b5b50565b6000819050612bc282612ba0565b919050565b6000612bd282612bb4565b9050919050565b612be281612bc7565b82525050565b612bf181612ad6565b82525050565b61014082016000820151612c0e6000850182612b62565b506020820151612c216020850182612b62565b506040820151612c346040850182612bd9565b506060820151612c476060850182612b62565b506080820151612c5a6080850182612b62565b5060a0820151612c6d60a0850182612b62565b5060c0820151612c8060c0850182612b62565b5060e0820151612c9360e0850182612be8565b50610100820151612ca8610100850182612b62565b50610120820151612cbd610120850182612b62565b50505050565b600061014082019050612cd96000830184612bf7565b92915050565b600081519050919050565b600082825260208201905092915050565b6000819050602082019050919050565b61014082016000820151612d226000850182612b62565b506020820151612d356020850182612b62565b506040820151612d486040850182612bd9565b506060820151612d5b6060850182612b62565b506080820151612d6e6080850182612b62565b5060a0820151612d8160a0850182612b62565b5060c0820151612d9460c0850182612b62565b5060e0820151612da760e0850182612be8565b50610100820151612dbc610100850182612b62565b50610120820151612dd1610120850182612b62565b50505050565b6000612de38383612d0b565b6101408301905092915050565b6000602082019050919050565b6000612e0882612cdf565b612e128185612cea565b9350612e1d83612cfb565b8060005b83811015612e4e578151612e358882612dd7565b9750612e4083612df0565b925050600181019050612e21565b5085935050505092915050565b60006020820190508181036000830152612e758184612dfd565b905092915050565b6000819050919050565b612e9081612e7d565b8114612e9b57600080fd5b50565b600081359050612ead81612e87565b92915050565b600080600060608486031215612ecc57612ecb6128b7565b5b6000612eda86828701612a01565b9350506020612eeb86828701612e9e565b9250506040612efc86828701612a01565b9150509250925092565b600082825260208201905092915050565b7f4f776e61626c653a2063616c6c6572206973206e6f7420746865206f776e6572600082015250565b6000612f4d602083612f06565b9150612f5882612f17565b602082019050919050565b60006020820190508181036000830152612f7c81612f40565b9050919050565b7f436f6e7472616374732063616e6e6f7420626520302061646472657373000000600082015250565b6000612fb9601d83612f06565b9150612fc482612f83565b602082019050919050565b60006020820190508181036000830152612fe881612fac565b9050919050565b7f43616e6e6f74206265207a65726f206164647265737300000000000000000000600082015250565b6000613025601683612f06565b915061303082612fef565b602082019050919050565b6000602082019050818103600083015261305481613018565b9050919050565b7f4e6f74206f70657261746f720000000000000000000000000000000000000000600082015250565b6000613091600c83612f06565b915061309c8261305b565b602082019050919050565b600060208201905081810360008301526130c081613084565b9050919050565b7f5072697a65206f7220636f73742063616e6e6f74206265203000000000000000600082015250565b60006130fd601983612f06565b9150613108826130c7565b602082019050919050565b6000602082019050818103600083015261312c816130f0565b9050919050565b7f54696d657374616d707320666f72206c6f747465727920696e76616c69640000600082015250565b6000613169601e83612f06565b915061317482613133565b602082019050919050565b600060208201905081810360008301526131988161315c565b9050919050565b7f4e6f742074696d6520746f207374617274206c6f747465727900000000000000600082015250565b60006131d5601983612f06565b91506131e08261319f565b602082019050919050565b60006020820190508181036000830152613204816131c8565b9050919050565b7f54726561737572792066656520746f6f20686967680000000000000000000000600082015250565b6000613241601583612f06565b915061324c8261320b565b602082019050919050565b6000602082019050818103600083015261327081613234565b9050919050565b600081519050613286816129ea565b92915050565b6000602082840312156132a2576132a16128b7565b5b60006132b084828501613277565b91505092915050565b60006040820190506132ce60008301856129c0565b6132db60208301846129c0565b9392505050565b60006040820190506132f7600083018561298c565b61330460208301846129c0565b9392505050565b60008115159050919050565b6133208161330b565b811461332b57600080fd5b50565b60008151905061333d81613317565b92915050565b600060208284031215613359576133586128b7565b5b60006133678482850161332e565b91505092915050565b7f496e697469616c697a61626c653a20636f6e747261637420697320616c72656160008201527f647920696e697469616c697a6564000000000000000000000000000000000000602082015250565b60006133cc602e83612f06565b91506133d782613370565b604082019050919050565b600060208201905081810360008301526133fb816133bf565b9050919050565b7f636f6e7472616374206e6f7420616c6c6f776564000000000000000000000000600082015250565b6000613438601483612f06565b915061344382613402565b602082019050919050565b600060208201905081810360008301526134678161342b565b9050919050565b7f70726f787920636f6e7472616374206e6f7420616c6c6f776564000000000000600082015250565b60006134a4601a83612f06565b91506134af8261346e565b602082019050919050565b600060208201905081810360008301526134d381613497565b9050919050565b7f5265656e7472616e637947756172643a207265656e7472616e742063616c6c00600082015250565b6000613510601f83612f06565b915061351b826134da565b602082019050919050565b6000602082019050818103600083015261353f81613503565b9050919050565b7f496e76616c69642074696d6520666f72206d696e743a73746172740000000000600082015250565b600061357c601b83612f06565b915061358782613546565b602082019050919050565b600060208201905081810360008301526135ab8161356f565b9050919050565b7f496e76616c69642074696d6520666f72206d696e743a656e6400000000000000600082015250565b60006135e8601983612f06565b91506135f3826135b2565b602082019050919050565b60006020820190508181036000830152613617816135db565b9050919050565b7f4c6f7474657279206e6f7420696e20737461746520666f72206d696e74000000600082015250565b6000613654601d83612f06565b915061365f8261361e565b602082019050919050565b6000602082019050818103600083015261368381613647565b9050919050565b7f4261746368206d696e7420746f6f206c61726765000000000000000000000000600082015250565b60006136c0601483612f06565b91506136cb8261368a565b602082019050919050565b600060208201905081810360008301526136ef816136b3565b9050919050565b7f43686f6f73652074776f2d6469676974206e756d626572000000000000000000600082015250565b600061372c601783612f06565b9150613737826136f6565b602082019050919050565b6000602082019050818103600083015261375b8161371f565b9050919050565b7f4e487b7100000000000000000000000000000000000000000000000000000000600052601160045260246000fd5b600061379c826129b6565b91506137a7836129b6565b9250827fffffffffffffffffffffffffffffffffffffffffffffffffffffffffffffffff038211156137dc576137db613762565b5b828201905092915050565b6137f081612ad6565b82525050565b600060808201905061380b600083018761298c565b61381860208301866129c0565b61382560408301856137e7565b61383260608301846137e7565b95945050505050565b7f4c6f7474657279206e6f74206f70656e00000000000000000000000000000000600082015250565b6000613871601083612f06565b915061387c8261383b565b602082019050919050565b600060208201905081810360008301526138a081613864565b9050919050565b7f4c6f7474657279206e6f74206f76657200000000000000000000000000000000600082015250565b60006138dd601083612f06565b91506138e8826138a7565b602082019050919050565b6000602082019050818103600083015261390c816138d0565b9050919050565b60008151905061392281612e87565b92915050565b60006020828403121561393e5761393d6128b7565b5b600061394c84828501613913565b91505092915050565b61395e81612e7d565b82525050565b600060408201905061397960008301856129c0565b6139866020830184613955565b9392505050565b7f4e487b7100000000000000000000000000000000000000000000000000000000600052604160045260246000fd5b7f4e487b7100000000000000000000000000000000000000000000000000000000600052603260045260246000fd5b60006139f6826129b6565b91507fffffffffffffffffffffffffffffffffffffffffffffffffffffffffffffffff8203613a2857613a27613762565b5b600182019050919050565b7f4f6e6c792072616e646f6d2067656e657261746f720000000000000000000000600082015250565b6000613a69601583612f06565b9150613a7482613a33565b602082019050919050565b60006020820190508181036000830152613a9881613a5c565b9050919050565b7f43616e6e6f74207365742077696e6e696e67206e756d6265727320647572696e60008201527f67206c6f74746572790000000000000000000000000000000000000000000000602082015250565b6000613afb602983612f06565b9150613b0682613a9f565b604082019050919050565b60006020820190508181036000830152613b2a81613aee565b9050919050565b7f4c6f747465727920537461746520696e636f727265637420666f722064726177600082015250565b6000613b67602083612f06565b9150613b7282613b31565b602082019050919050565b60006020820190508181036000830152613b9681613b5a565b9050919050565b6000606082019050613bb260008301866129c0565b613bbf60208301856129c0565b613bcc60408301846129c0565b949350505050565b600081519050613be381612ae3565b92915050565b600080fd5b6000601f19601f8301169050919050565b613c0882613bee565b810181811067ffffffffffffffff82111715613c2757613c2661398d565b5b80604052505050565b6000613c3a6128ad565b9050613c468282613bff565b919050565b600067ffffffffffffffff821115613c6657613c6561398d565b5b602082029050602081019050919050565b600080fd5b600080fd5b600081519050613c90816128f3565b92915050565b600060c08284031215613cac57613cab613c7c565b5b613cb660c0613c30565b90506000613cc684828501613c81565b6000830152506020613cda84828501613bd4565b6020830152506040613cee84828501613277565b6040830152506060613d0284828501613bd4565b6060830152506080613d1684828501613277565b60808301525060a0613d2a84828501613277565b60a08301525092915050565b6000613d49613d4484613c4b565b613c30565b90508083825260208201905060c08402830185811115613d6c57613d6b613c77565b5b835b81811015613d955780613d818882613c96565b84526020840193505060c081019050613d6e565b5050509392505050565b600082601f830112613db457613db3613be9565b5b8151613dc4848260208601613d36565b91505092915050565b600067ffffffffffffffff821115613de857613de761398d565b5b602082029050602081019050919050565b6000613e0c613e0784613dcd565b613c30565b90508083825260208201905060208402830185811115613e2f57613e2e613c77565b5b835b81811015613e585780613e448882613277565b845260208401935050602081019050613e31565b5050509392505050565b600082601f830112613e7757613e76613be9565b5b8151613e87848260208601613df9565b91505092915050565b60008060008060808587031215613eaa57613ea96128b7565b5b6000613eb887828801613277565b9450506020613ec987828801613bd4565b935050604085015167ffffffffffffffff811115613eea57613ee96128bc565b5b613ef687828801613d9f565b925050606085015167ffffffffffffffff811115613f1757613f166128bc565b5b613f2387828801613e62565b91505092959194509250565b6000613f3a826129b6565b9150613f45836129b6565b925082821015613f5857613f57613762565b5b828203905092915050565b6000613f6e826129b6565b9150613f79836129b6565b9250817fffffffffffffffffffffffffffffffffffffffffffffffffffffffffffffffff0483118215151615613fb257613fb1613762565b5b828202905092915050565b7f4e487b7100000000000000000000000000000000000000000000000000000000600052601260045260246000fd5b6000613ff7826129b6565b9150614002836129b6565b92508261401257614011613fbd565b5b828204905092915050565b600081519050919050565b600082825260208201905092915050565b6000819050602082019050919050565b60006140558383612b62565b60208301905092915050565b6000602082019050919050565b60006140798261401d565b6140838185614028565b935061408e83614039565b8060005b838110156140bf5781516140a68882614049565b97506140b183614061565b925050600181019050614092565b5085935050505092915050565b600060208201905081810360008301526140e6818461406e565b905092915050565b600060208284031215614104576141036128b7565b5b600082015167ffffffffffffffff811115614122576141216128bc565b5b61412e84828501613d9f565b91505092915050565b600081519050919050565b600082825260208201905092915050565b6000819050602082019050919050565b61416c816128e1565b82525050565b60c0820160008201516141886000850182614163565b50602082015161419b6020850182612be8565b5060408201516141ae6040850182612b62565b5060608201516141c16060850182612be8565b5060808201516141d46080850182612b62565b5060a08201516141e760a0850182612b62565b50505050565b60006141f98383614172565b60c08301905092915050565b6000602082019050919050565b600061421d82614137565b6142278185614142565b935061423283614153565b8060005b8381101561426357815161424a88826141ed565b975061425583614205565b925050600181019050614236565b5085935050505092915050565b600060808201905061428560008301876129c0565b61429260208301866129c0565b61429f60408301856137e7565b81810360608301526142b18184614212565b905095945050505050565b7f4f776e61626c653a206e6577206f776e657220697320746865207a65726f206160008201527f6464726573730000000000000000000000000000000000000000000000000000602082015250565b6000614318602683612f06565b9150614323826142bc565b604082019050919050565b600060208201905081810360008301526143478161430b565b9050919050565b6000606082019050614363600083018661298c565b614370602083018561298c565b61437d60408301846129c0565b949350505050565b7f5361666545524332303a204552433230206f7065726174696f6e20646964206e60008201527f6f74207375636365656400000000000000000000000000000000000000000000602082015250565b60006143e1602a83612f06565b91506143ec82614385565b604082019050919050565b60006020820190508181036000830152614410816143d4565b9050919050565b7f416464726573733a20696e73756666696369656e742062616c616e636520666f60008201527f722063616c6c0000000000000000000000000000000000000000000000000000602082015250565b6000614473602683612f06565b915061447e82614417565b604082019050919050565b600060208201905081810360008301526144a281614466565b9050919050565b7f416464726573733a2063616c6c20746f206e6f6e2d636f6e7472616374000000600082015250565b60006144df601d83612f06565b91506144ea826144a9565b602082019050919050565b6000602082019050818103600083015261450e816144d2565b9050919050565b600081519050919050565b600081905092915050565b60005b8381101561454957808201518184015260208101905061452e565b83811115614558576000848401525b50505050565b600061456982614515565b6145738185614520565b935061458381856020860161452b565b80840191505092915050565b600061459b828461455e565b915081905092915050565b600081519050919050565b60006145bc826145a6565b6145c68185612f06565b93506145d681856020860161452b565b6145df81613bee565b840191505092915050565b6000602082019050818103600083015261460481846145b1565b90509291505056fea264697066735822122093470a38ec2603defcc7fa5fd651de7b713de12459a768f9ece72cd49a35510c64736f6c634300080e0033",
  "immutableReferences": {},
  "source": "//SPDX-License-Identifier: MIT\r\npragma solidity ^0.8.0;\r\n// Imported OZ helper contracts\r\nimport \"@openzeppelin/contracts/token/ERC20/IERC20.sol\";\r\nimport \"@openzeppelin/contracts/token/ERC20/utils/SafeERC20.sol\";\r\nimport \"@openzeppelin/contracts/utils/Address.sol\";\r\nimport \"@openzeppelin/contracts/proxy/utils/Initializable.sol\";\r\nimport \"@openzeppelin/contracts/security/ReentrancyGuard.sol\";\r\n// Inherited allowing for ownership of contract\r\nimport \"@openzeppelin/contracts/access/Ownable.sol\";\r\n// Allows for intergration with ChainLink VRF\r\nimport \"./IRandomNumberGenerator.sol\";\r\n// Interface for Lottery NFT to mint tokens\r\nimport \"./ITicketNFT.sol\";\r\n// Safe math\r\nimport \"@openzeppelin/contracts/utils/math/SafeMath.sol\";\r\nimport \"./SafeMath8.sol\";\r\nimport \"./ILottery.sol\";\r\n\r\n// TODO rename to Lottery when done\r\ncontract Lottery is ILottery, Ownable, Initializable, ReentrancyGuard {\r\n    // Libraries\r\n    // Safe math\r\n    using SafeMath for uint256;\r\n    using SafeMath8 for uint8;\r\n    // Safe ERC20\r\n    using SafeERC20 for IERC20;\r\n    // Address functionality\r\n    using Address for address;\r\n\r\n    // Constants\r\n    uint256 public constant MAX_NUMBER_TICKETS_PER_BUY = 100;\r\n    uint256 public constant MAX_TREASURY_FEE = 5000; // 50%\r\n\r\n    // State variables\r\n    address public operatorAddress;\r\n    address public treasuryAddress;\r\n    // Instance of USDT token (collateral currency for lotto)\r\n    IERC20 internal usdt_;\r\n    // Storing of the NFT\r\n    ITicketNFT internal nft_;\r\n    // Storing of the randomness generator\r\n    IRandomNumberGenerator internal randomGenerator_;\r\n    // Request ID for random number\r\n    bytes32 internal requestId_;\r\n    // Counter for lottery IDs\r\n    uint256 private currentLotteryId_;\r\n    // The amount of usdt for prize money\r\n    uint256 internal prizePool_;\r\n\r\n    // Represents the status of the lottery\r\n    enum Status {\r\n        Open, // The lottery is open for ticket purchases\r\n        Closed, // The lottery is no longer open for ticket purchases\r\n        Completed // The lottery has been closed and the numbers drawn\r\n    }\r\n    // All the needed info around a lottery\r\n    struct LottoInfo {\r\n        uint256 prizePool;\r\n        uint256 lotteryID; // ID for lotto\r\n        Status lotteryStatus; // Status for lotto\r\n        uint256 amountCollectedInUSDT; // The amount of usdt for prize money\r\n        uint256 costPerTicket; // Cost per ticket in $usdt\r\n        uint256 startingTimestamp; // Block timestamp for start of lotto\r\n        uint256 closingTimestamp; // Block timestamp for end of entries\r\n        uint8 winningNumbers; // The winning numbers\r\n        uint256 treasuryFee; // 500: 5% // 200: 2% // 50: 0.5%\r\n        uint256 firstTicketId; // Ticket Id of the first ticket in this lottery\r\n    }\r\n    // Lottery ID's to info\r\n    mapping(uint256 => LottoInfo) internal allLotteries_;\r\n\r\n    event LotteryOpen(uint256 lotteryId, uint256 ticketSupply);\r\n\r\n    event LotteryClose(\r\n        uint256 lotteryId,\r\n        uint256 ticketSupply,\r\n        uint8 finalNumber,\r\n        ITicketNFT.TicketInfo[] winningTickets\r\n    );\r\n\r\n    event PrizePoolChanged(uint256 currentPrizePool, uint256 currentLotteryId);\r\n\r\n    event RequestNumbers(uint256 lotteryId, bytes32 requestId);\r\n\r\n    //-------------------------------------------------------------------------\r\n    // MODIFIERS\r\n    //-------------------------------------------------------------------------\r\n\r\n    modifier onlyRandomGenerator() {\r\n        require(\r\n            msg.sender == address(randomGenerator_),\r\n            \"Only random generator\"\r\n        );\r\n        _;\r\n    }\r\n\r\n    modifier notContract() {\r\n        require(!address(msg.sender).isContract(), \"contract not allowed\");\r\n        require(msg.sender == tx.origin, \"proxy contract not allowed\");\r\n        _;\r\n    }\r\n\r\n    modifier onlyOperator() {\r\n        require(msg.sender == operatorAddress, \"Not operator\");\r\n        _;\r\n    }\r\n\r\n    //-------------------------------------------------------------------------\r\n    // CONSTRUCTOR\r\n    //-------------------------------------------------------------------------\r\n\r\n    constructor(address _usdt) {\r\n        require(_usdt != address(0), \"Contracts cannot be 0 address\");\r\n        usdt_ = IERC20(_usdt);\r\n    }\r\n\r\n    function initialize(address _TicketNFT, address _IRandomNumberGenerator)\r\n        external\r\n        initializer\r\n        onlyOwner\r\n    {\r\n        require(\r\n            _TicketNFT != address(0) && _IRandomNumberGenerator != address(0),\r\n            \"Contracts cannot be 0 address\"\r\n        );\r\n        nft_ = ITicketNFT(_TicketNFT);\r\n        randomGenerator_ = IRandomNumberGenerator(_IRandomNumberGenerator);\r\n    }\r\n\r\n    function setUsdtAddress(address _usdt) external onlyOwner {\r\n        require(_usdt != address(0), \"Contracts cannot be 0 address\");\r\n        usdt_ = IERC20(_usdt);\r\n    }\r\n\r\n    //-------------------------------------------------------------------------\r\n    // VIEW FUNCTIONS\r\n    //-------------------------------------------------------------------------\r\n\r\n    function costToBuyTickets(uint256 _lotteryId, uint256 _numberOfTickets)\r\n        public\r\n        view\r\n        returns (uint256 totalCost)\r\n    {\r\n        uint256 pricePer = allLotteries_[_lotteryId].costPerTicket;\r\n        totalCost = pricePer.mul(_numberOfTickets);\r\n    }\r\n\r\n    function getBasicLottoInfo(uint256 _lotteryId)\r\n        external\r\n        view\r\n        returns (LottoInfo memory)\r\n    {\r\n        return allLotteries_[_lotteryId];\r\n    }\r\n\r\n    function getCurrentLottoInfo() external view returns (LottoInfo memory) {\r\n        return allLotteries_[currentLotteryId_];\r\n    }\r\n\r\n    function getAllLotteries() public view returns (LottoInfo[] memory) {\r\n        LottoInfo[] memory allL = new LottoInfo[](currentLotteryId_);\r\n        for (uint256 i = 1; i <= currentLotteryId_; i++)\r\n            allL[i] = allLotteries_[i];\r\n        return allL;\r\n    }\r\n\r\n    /**\r\n     * @notice View current lottery id\r\n     */\r\n    function viewCurrentLotteryId() external view returns (uint256) {\r\n        return currentLotteryId_;\r\n    }\r\n\r\n    //-------------------------------------------------------------------------\r\n    // STATE MODIFYING FUNCTIONS\r\n    //-------------------------------------------------------------------------\r\n\r\n    /**\r\n     * @param   _closingTimestamp The block timestamp after which no more tickets\r\n     *          will be sold for the lottery. Note that this timestamp MUST\r\n     *          be after the starting block timestamp.\r\n     * @param   _treasuryFee: treasury fee (10,000 = 100%, 100 = 1%)\r\n     * @param   _costPerTicket: price of a ticket in USDT\r\n     */\r\n    function startLottery(\r\n        uint256 _costPerTicket,\r\n        uint256 _closingTimestamp,\r\n        uint256 _treasuryFee\r\n    ) external onlyOperator returns (uint256 lotteryId) {\r\n        require(_costPerTicket != 0, \"Prize or cost cannot be 0\");\r\n        require(\r\n            block.timestamp < _closingTimestamp,\r\n            \"Timestamps for lottery invalid\"\r\n        );\r\n        require(\r\n            (currentLotteryId_ == 0) ||\r\n                (allLotteries_[currentLotteryId_].lotteryStatus ==\r\n                    Status.Completed),\r\n            \"Not time to start lottery\"\r\n        );\r\n        require(_treasuryFee <= MAX_TREASURY_FEE, \"Treasury fee too high\");\r\n\r\n        // Incrementing lottery ID\r\n        currentLotteryId_ = currentLotteryId_.add(1);\r\n        lotteryId = currentLotteryId_;\r\n        // Saving data in struct\r\n        LottoInfo memory newLottery = LottoInfo({\r\n            prizePool: prizePool_,\r\n            lotteryID: lotteryId,\r\n            lotteryStatus: Status.Open,\r\n            amountCollectedInUSDT: 0,\r\n            costPerTicket: _costPerTicket,\r\n            startingTimestamp: block.timestamp,\r\n            closingTimestamp: _closingTimestamp,\r\n            winningNumbers: 111, // 111 means haven't draw numbers\r\n            treasuryFee: _treasuryFee,\r\n            firstTicketId: nft_.getCurrentTicketId().add(1)\r\n        });\r\n        allLotteries_[lotteryId] = newLottery;\r\n\r\n        // Emitting important information around new lottery.\r\n        emit LotteryOpen(lotteryId, nft_.getCurrentTicketId());\r\n    }\r\n\r\n    function withdrawUSDT(uint256 _amount) external onlyOwner {\r\n        usdt_.transfer(msg.sender, _amount);\r\n    }\r\n\r\n    //-------------------------------------------------------------------------\r\n    // General Access Functions\r\n\r\n    function buyTickets(\r\n        uint256 _lotteryId,\r\n        uint8 _numberOfTickets,\r\n        uint8 _chosenNumbersForEachTicket\r\n    ) external notContract nonReentrant {\r\n        // Ensuring the lottery is within a valid time\r\n        require(\r\n            getCurrentTime() >= allLotteries_[_lotteryId].startingTimestamp,\r\n            \"Invalid time for mint:start\"\r\n        );\r\n        require(\r\n            getCurrentTime() < allLotteries_[_lotteryId].closingTimestamp,\r\n            \"Invalid time for mint:end\"\r\n        );\r\n        if (allLotteries_[_lotteryId].lotteryStatus == Status.Completed) {\r\n            if (\r\n                allLotteries_[_lotteryId].startingTimestamp >= getCurrentTime()\r\n            ) {\r\n                allLotteries_[_lotteryId].lotteryStatus = Status.Open;\r\n            }\r\n        }\r\n        require(\r\n            allLotteries_[_lotteryId].lotteryStatus == Status.Open,\r\n            \"Lottery not in state for mint\"\r\n        );\r\n        require(\r\n            _numberOfTickets <= MAX_NUMBER_TICKETS_PER_BUY,\r\n            \"Batch mint too large\"\r\n        );\r\n        require(\r\n            _chosenNumbersForEachTicket <= 99 &&\r\n                _chosenNumbersForEachTicket >= 0,\r\n            \"Choose two-digit number\"\r\n        );\r\n        // Getting the cost for the token purchase\r\n        uint256 totalCost = costToBuyTickets(_lotteryId, _numberOfTickets);\r\n        // Transfers the required cake to this contract\r\n        usdt_.safeTransferFrom(msg.sender, address(this), totalCost);\r\n        prizePool_ = prizePool_.add(totalCost);\r\n\r\n        // Increment the total amount collected for the lottery round\r\n        allLotteries_[_lotteryId].amountCollectedInUSDT += totalCost;\r\n        allLotteries_[_lotteryId].prizePool = prizePool_;\r\n        // Batch mints the user their tickets\r\n        nft_.Mint(\r\n            msg.sender,\r\n            _lotteryId,\r\n            _numberOfTickets,\r\n            _chosenNumbersForEachTicket\r\n        );\r\n\r\n        emit PrizePoolChanged(prizePool_, currentLotteryId_);\r\n    }\r\n\r\n    /**\r\n     * @notice Close lottery\r\n     * @param _lotteryId: lottery id\r\n     * @dev Callable by operator\r\n     */\r\n    function closeLottery(uint256 _lotteryId) external onlyOperator {\r\n        require(\r\n            allLotteries_[_lotteryId].lotteryStatus == Status.Open,\r\n            \"Lottery not open\"\r\n        );\r\n        require(\r\n            block.timestamp >= allLotteries_[_lotteryId].closingTimestamp,\r\n            \"Lottery not over\"\r\n        );\r\n\r\n        allLotteries_[_lotteryId].lotteryStatus = Status.Closed;\r\n\r\n        // Request a random number from the generator\r\n        requestId_ = randomGenerator_.getRandomNumber(_lotteryId);\r\n\r\n        emit RequestNumbers(_lotteryId, requestId_);\r\n    }\r\n\r\n    function numbersDrawn(\r\n        uint256 _lotteryId,\r\n        bytes32 _requestId,\r\n        uint256 _randomNumber\r\n    ) external onlyRandomGenerator nonReentrant {\r\n        // Checks that the lottery is past the closing block\r\n        require(\r\n            allLotteries_[_lotteryId].closingTimestamp <= block.timestamp,\r\n            \"Cannot set winning numbers during lottery\"\r\n        );\r\n        // Checks lottery numbers have not already been drawn\r\n        require(\r\n            allLotteries_[_lotteryId].lotteryStatus == Status.Closed,\r\n            \"Lottery State incorrect for draw\"\r\n        );\r\n\r\n        if (requestId_ == _requestId) {\r\n            // ... Transfer prize here\r\n            (\r\n                uint256 totalWinningTickets,\r\n                uint8 finalNumber,\r\n                ITicketNFT.TicketInfo[] memory winningTickets,\r\n                uint256[] memory winningTicketIds\r\n            ) = nft_.getWinningTickets(\r\n                    _lotteryId,\r\n                    _randomNumber,\r\n                    allLotteries_[_lotteryId].firstTicketId\r\n                );\r\n            if (totalWinningTickets > 0) {\r\n                // Calculate the amount to share post-treasury fee\r\n                uint256 amountToShareToWinners = 0;\r\n                // Initializes the amount to withdraw to treasury\r\n                uint256 amountToWithdrawToTreasury = 0;\r\n                uint256 winAmountPerTicket = 0;\r\n                winAmountPerTicket =\r\n                    (prizePool_ *\r\n                        (10000 - allLotteries_[_lotteryId].treasuryFee)) /\r\n                    10000 /\r\n                    totalWinningTickets;\r\n                amountToShareToWinners =\r\n                    winAmountPerTicket *\r\n                    totalWinningTickets;\r\n                amountToWithdrawToTreasury =\r\n                    prizePool_ -\r\n                    amountToShareToWinners;\r\n\r\n                // Transfer prize to winners\r\n                for (uint256 i = 0; i < winningTickets.length; i++) {\r\n                    uint256 amountToTransferToThisWinner = winAmountPerTicket *\r\n                        winningTickets[i].numberOfTickets;\r\n                    usdt_.safeTransfer(\r\n                        winningTickets[i].owner,\r\n                        amountToTransferToThisWinner\r\n                    );\r\n                    prizePool_ = prizePool_.sub(amountToTransferToThisWinner);\r\n\r\n                    //Save ticket win amount\r\n                    nft_.setTicketWinAmount(\r\n                        winningTicketIds[i],\r\n                        amountToTransferToThisWinner\r\n                    );\r\n                }\r\n\r\n                // Transfer fee to treasury address\r\n                usdt_.safeTransfer(treasuryAddress, amountToWithdrawToTreasury);\r\n                prizePool_ = prizePool_.sub(amountToWithdrawToTreasury);\r\n            }\r\n\r\n            // Set lottery status completed\r\n            allLotteries_[_lotteryId].lotteryStatus = Status.Completed;\r\n            allLotteries_[_lotteryId].winningNumbers = finalNumber;\r\n\r\n            ITicketNFT.TicketInfo[] memory winTicketsInfo = nft_.getTickets(\r\n                winningTicketIds\r\n            );\r\n            emit LotteryClose(\r\n                _lotteryId,\r\n                nft_.getCurrentTicketId(),\r\n                finalNumber,\r\n                winTicketsInfo\r\n            );\r\n        } else revert();\r\n    }\r\n\r\n    /**\r\n     * @notice Set operator, treasury, and injector addresses\r\n     * @dev Only callable by owner\r\n     * @param _operatorAddress: address of the operator\r\n     */\r\n    function setOperatorAndTreasuryAddresses(\r\n        address _operatorAddress,\r\n        address _treasuryAddress\r\n    ) external onlyOwner {\r\n        require(_operatorAddress != address(0), \"Cannot be zero address\");\r\n        require(_treasuryAddress != address(0), \"Cannot be zero address\");\r\n\r\n        operatorAddress = _operatorAddress;\r\n        treasuryAddress = _treasuryAddress;\r\n    }\r\n\r\n    //-------------------------------------------------------------------------\r\n    // INTERNAL FUNCTIONS\r\n    //-------------------------------------------------------------------------\r\n\r\n    function getCurrentTime() public view returns (uint256) {\r\n        return block.timestamp;\r\n    }\r\n}\r\n",
  "sourcePath": "D:\\contract-xosoblockchain\\contracts\\Lottery.sol",
  "compiler": {
    "name": "solc",
    "version": "0.8.14+commit.80d49f37.Emscripten.clang"
  },
  "schemaVersion": "3.4.5",
  "updatedAt": "2022-05-30T11:58:36.140Z",
  "networkType": "ethereum",
  "devdoc": {
    "kind": "dev",
    "methods": {
      "closeLottery(uint256)": {
        "details": "Callable by operator",
        "params": {
          "_lotteryId": ": lottery id"
        }
      },
      "owner()": {
        "details": "Returns the address of the current owner."
      },
      "renounceOwnership()": {
        "details": "Leaves the contract without owner. It will not be possible to call `onlyOwner` functions anymore. Can only be called by the current owner. NOTE: Renouncing ownership will leave the contract without an owner, thereby removing any functionality that is only available to the owner."
      },
      "setOperatorAndTreasuryAddresses(address,address)": {
        "details": "Only callable by owner",
        "params": {
          "_operatorAddress": ": address of the operator"
        }
      },
      "startLottery(uint256,uint256,uint256)": {
        "params": {
          "_closingTimestamp": "The block timestamp after which no more tickets          will be sold for the lottery. Note that this timestamp MUST          be after the starting block timestamp.",
          "_costPerTicket": ": price of a ticket in USDT",
          "_treasuryFee": ": treasury fee (10,000 = 100%, 100 = 1%)"
        }
      },
      "transferOwnership(address)": {
        "details": "Transfers ownership of the contract to a new account (`newOwner`). Can only be called by the current owner."
      }
    },
    "version": 1
  },
  "userdoc": {
    "kind": "user",
    "methods": {
      "closeLottery(uint256)": {
        "notice": "Close lottery"
      },
      "setOperatorAndTreasuryAddresses(address,address)": {
        "notice": "Set operator, treasury, and injector addresses"
      },
      "viewCurrentLotteryId()": {
        "notice": "View current lottery id"
      }
    },
    "version": 1
  }
}