{
  "contractName": "Mock_VRFCoordinator",
  "abi": [
    {
      "inputs": [
        {
          "internalType": "address",
          "name": "_linkToken",
          "type": "address"
        },
        {
          "internalType": "bytes32",
          "name": "_keyHash",
          "type": "bytes32"
        },
        {
          "internalType": "uint256",
          "name": "_fee",
          "type": "uint256"
        }
      ],
      "stateMutability": "nonpayable",
      "type": "constructor"
    },
    {
      "anonymous": false,
      "inputs": [
        {
          "indexed": true,
          "internalType": "address",
          "name": "sender",
          "type": "address"
        },
        {
          "indexed": true,
          "internalType": "bytes32",
          "name": "keyHash",
          "type": "bytes32"
        },
        {
          "indexed": true,
          "internalType": "uint256",
          "name": "seed",
          "type": "uint256"
        }
      ],
      "name": "RandomnessRequest",
      "type": "event"
    },
    {
      "inputs": [],
      "name": "LINK",
      "outputs": [
        {
          "internalType": "contract LinkTokenInterface",
          "name": "",
          "type": "address"
        }
      ],
      "stateMutability": "view",
      "type": "function"
    },
    {
      "inputs": [
        {
          "internalType": "bytes32",
          "name": "requestId",
          "type": "bytes32"
        },
        {
          "internalType": "uint256",
          "name": "randomness",
          "type": "uint256"
        },
        {
          "internalType": "address",
          "name": "consumerContract",
          "type": "address"
        }
      ],
      "name": "callBackWithRandomness",
      "outputs": [],
      "stateMutability": "nonpayable",
      "type": "function"
    },
    {
      "inputs": [],
      "name": "currentLotteryId",
      "outputs": [
        {
          "internalType": "uint256",
          "name": "",
          "type": "uint256"
        }
      ],
      "stateMutability": "view",
      "type": "function"
    },
    {
      "inputs": [
        {
          "internalType": "address",
          "name": "sender",
          "type": "address"
        },
        {
          "internalType": "uint256",
          "name": "fee",
          "type": "uint256"
        },
        {
          "internalType": "bytes",
          "name": "_data",
          "type": "bytes"
        }
      ],
      "name": "onTokenTransfer",
      "outputs": [],
      "stateMutability": "nonpayable",
      "type": "function"
    },
    {
      "inputs": [],
      "name": "randomResult",
      "outputs": [
        {
          "internalType": "uint256",
          "name": "",
          "type": "uint256"
        }
      ],
      "stateMutability": "view",
      "type": "function"
    }
  ],
  "bytecode": "0x60806040523480156200001157600080fd5b5060405162000b0938038062000b09833981810160405281019062000037919062000170565b82806000806101000a81548173ffffffffffffffffffffffffffffffffffffffff021916908373ffffffffffffffffffffffffffffffffffffffff160217905550508160018190555080600281905550505050620001cc565b600080fd5b600073ffffffffffffffffffffffffffffffffffffffff82169050919050565b6000620000c28262000095565b9050919050565b620000d481620000b5565b8114620000e057600080fd5b50565b600081519050620000f481620000c9565b92915050565b6000819050919050565b6200010f81620000fa565b81146200011b57600080fd5b50565b6000815190506200012f8162000104565b92915050565b6000819050919050565b6200014a8162000135565b81146200015657600080fd5b50565b6000815190506200016a816200013f565b92915050565b6000806000606084860312156200018c576200018b62000090565b5b60006200019c86828701620000e3565b9350506020620001af868287016200011e565b9250506040620001c28682870162000159565b9150509250925092565b61092d80620001dc6000396000f3fe608060405234801561001057600080fd5b50600436106100575760003560e01c80631b6b6d231461005c57806342619f661461007a5780636be4097c14610098578063a4c0ed36146100b6578063cf55fe97146100d2575b600080fd5b6100646100ee565b60405161007191906103d0565b60405180910390f35b610082610112565b60405161008f9190610404565b60405180910390f35b6100a0610118565b6040516100ad9190610404565b60405180910390f35b6100d060048036038101906100cb91906105e3565b61011e565b005b6100ec60048036038101906100e79190610688565b610213565b005b60008054906101000a900473ffffffffffffffffffffffffffffffffffffffff1681565b60045481565b60055481565b60008054906101000a900473ffffffffffffffffffffffffffffffffffffffff1673ffffffffffffffffffffffffffffffffffffffff163373ffffffffffffffffffffffffffffffffffffffff16146101ac576040517f08c379a00000000000000000000000000000000000000000000000000000000081526004016101a390610738565b60405180910390fd5b600080828060200190518101906101c39190610782565b9150915080828673ffffffffffffffffffffffffffffffffffffffff167f7a9a0a6960d95b32cded93c30e63e7c2eb9e877230813c172110ea54dc1c915c60405160405180910390a45050505050565b6000806394985ddd60e01b85856040516024016102319291906107d1565b604051602081830303815290604052907bffffffffffffffffffffffffffffffffffffffffffffffffffffffff19166020820180517bffffffffffffffffffffffffffffffffffffffffffffffffffffffff838183161783525050505090506000620324b09050805a10156102db576040517f08c379a00000000000000000000000000000000000000000000000000000000081526004016102d290610846565b60405180910390fd5b60008473ffffffffffffffffffffffffffffffffffffffff168360405161030291906108e0565b6000604051808303816000865af19150503d806000811461033f576040519150601f19603f3d011682016040523d82523d6000602084013e610344565b606091505b5050905050505050505050565b600073ffffffffffffffffffffffffffffffffffffffff82169050919050565b6000819050919050565b600061039661039161038c84610351565b610371565b610351565b9050919050565b60006103a88261037b565b9050919050565b60006103ba8261039d565b9050919050565b6103ca816103af565b82525050565b60006020820190506103e560008301846103c1565b92915050565b6000819050919050565b6103fe816103eb565b82525050565b600060208201905061041960008301846103f5565b92915050565b6000604051905090565b600080fd5b600080fd5b600061043e82610351565b9050919050565b61044e81610433565b811461045957600080fd5b50565b60008135905061046b81610445565b92915050565b61047a816103eb565b811461048557600080fd5b50565b60008135905061049781610471565b92915050565b600080fd5b600080fd5b6000601f19601f8301169050919050565b7f4e487b7100000000000000000000000000000000000000000000000000000000600052604160045260246000fd5b6104f0826104a7565b810181811067ffffffffffffffff8211171561050f5761050e6104b8565b5b80604052505050565b600061052261041f565b905061052e82826104e7565b919050565b600067ffffffffffffffff82111561054e5761054d6104b8565b5b610557826104a7565b9050602081019050919050565b82818337600083830152505050565b600061058661058184610533565b610518565b9050828152602081018484840111156105a2576105a16104a2565b5b6105ad848285610564565b509392505050565b600082601f8301126105ca576105c961049d565b5b81356105da848260208601610573565b91505092915050565b6000806000606084860312156105fc576105fb610429565b5b600061060a8682870161045c565b935050602061061b86828701610488565b925050604084013567ffffffffffffffff81111561063c5761063b61042e565b5b610648868287016105b5565b9150509250925092565b6000819050919050565b61066581610652565b811461067057600080fd5b50565b6000813590506106828161065c565b92915050565b6000806000606084860312156106a1576106a0610429565b5b60006106af86828701610673565b93505060206106c086828701610488565b92505060406106d18682870161045c565b9150509250925092565b600082825260208201905092915050565b7f4d75737420757365204c494e4b20746f6b656e00000000000000000000000000600082015250565b60006107226013836106db565b915061072d826106ec565b602082019050919050565b6000602082019050818103600083015261075181610715565b9050919050565b6000815190506107678161065c565b92915050565b60008151905061077c81610471565b92915050565b6000806040838503121561079957610798610429565b5b60006107a785828601610758565b92505060206107b88582860161076d565b9150509250929050565b6107cb81610652565b82525050565b60006040820190506107e660008301856107c2565b6107f360208301846103f5565b9392505050565b7f6e6f7420656e6f7567682067617320666f7220636f6e73756d65720000000000600082015250565b6000610830601b836106db565b915061083b826107fa565b602082019050919050565b6000602082019050818103600083015261085f81610823565b9050919050565b600081519050919050565b600081905092915050565b60005b8381101561089a57808201518184015260208101905061087f565b838111156108a9576000848401525b50505050565b60006108ba82610866565b6108c48185610871565b93506108d481856020860161087c565b80840191505092915050565b60006108ec82846108af565b91508190509291505056fea2646970667358221220a8f039a5631c8005e91ba205a644f794cd37984344fd0050a9d7ee5e1e3af77964736f6c634300080e0033",
  "immutableReferences": {},
  "source": "//SPDX-License-Identifier: MIT\r\npragma solidity ^0.8.0;\r\n\r\nimport \"@chainlink/contracts/src/v0.8/mocks/VRFCoordinatorMock.sol\";\r\nimport \"./ILottery.sol\";\r\n\r\n/**\r\n * @dev THIS CONTRACT IS FOR TESTING PURPOSES ONLY.\r\n */\r\ncontract Mock_VRFCoordinator is VRFCoordinatorMock {\r\n    \r\n    bytes32 internal keyHash;\r\n    uint256 internal fee;\r\n    address internal requester;\r\n    uint256 public randomResult;\r\n    uint256 public currentLotteryId;\r\n    \r\n    constructor(\r\n        address _linkToken,\r\n        bytes32 _keyHash,\r\n        uint256 _fee\r\n    ) \r\n        VRFCoordinatorMock( \r\n            _linkToken  \r\n        ) \r\n    {\r\n        keyHash = _keyHash;\r\n        fee = _fee; \r\n    }\r\n}",
  "sourcePath": "D:\\contract-xosoblockchain\\contracts\\Mock_VRFCoordinator.sol",
  "compiler": {
    "name": "solc",
    "version": "0.8.14+commit.80d49f37.Emscripten.clang"
  },
  "schemaVersion": "3.4.5",
  "updatedAt": "2022-05-30T07:34:50.414Z",
  "devdoc": {
    "details": "THIS CONTRACT IS FOR TESTING PURPOSES ONLY.",
    "kind": "dev",
    "methods": {},
    "version": 1
  },
  "userdoc": {
    "kind": "user",
    "methods": {},
    "version": 1
  }
}