{
  "contractName": "RandomNumberGenerator",
  "abi": [
    {
      "inputs": [
        {
          "internalType": "address",
          "name": "_vrfCoordinator",
          "type": "address"
        },
        {
          "internalType": "address",
          "name": "_linkToken",
          "type": "address"
        },
        {
          "internalType": "address",
          "name": "_lottery",
          "type": "address"
        },
        {
          "internalType": "bytes32",
          "name": "_keyHash",
          "type": "bytes32"
        },
        {
          "internalType": "uint256",
          "name": "_fee",
          "type": "uint256"
        }
      ],
      "stateMutability": "nonpayable",
      "type": "constructor"
    },
    {
      "inputs": [],
      "name": "currentLotteryId",
      "outputs": [
        {
          "internalType": "uint256",
          "name": "",
          "type": "uint256"
        }
      ],
      "stateMutability": "view",
      "type": "function",
      "constant": true
    },
    {
      "inputs": [],
      "name": "lottery",
      "outputs": [
        {
          "internalType": "address",
          "name": "",
          "type": "address"
        }
      ],
      "stateMutability": "view",
      "type": "function",
      "constant": true
    },
    {
      "inputs": [],
      "name": "randomResult",
      "outputs": [
        {
          "internalType": "uint256",
          "name": "",
          "type": "uint256"
        }
      ],
      "stateMutability": "view",
      "type": "function",
      "constant": true
    },
    {
      "inputs": [
        {
          "internalType": "bytes32",
          "name": "requestId",
          "type": "bytes32"
        },
        {
          "internalType": "uint256",
          "name": "randomness",
          "type": "uint256"
        }
      ],
      "name": "rawFulfillRandomness",
      "outputs": [],
      "stateMutability": "nonpayable",
      "type": "function"
    },
    {
      "inputs": [
        {
          "internalType": "uint256",
          "name": "lotteryId",
          "type": "uint256"
        }
      ],
      "name": "getRandomNumber",
      "outputs": [
        {
          "internalType": "bytes32",
          "name": "requestId",
          "type": "bytes32"
        }
      ],
      "stateMutability": "nonpayable",
      "type": "function"
    }
  ],
  "bytecode": "0x60c06040523480156200001157600080fd5b5060405162000f9b38038062000f9b8339818101604052810190620000379190620001dd565b84848173ffffffffffffffffffffffffffffffffffffffff1660a08173ffffffffffffffffffffffffffffffffffffffff16815250508073ffffffffffffffffffffffffffffffffffffffff1660808173ffffffffffffffffffffffffffffffffffffffff16815250505050816001819055508060028190555082600660006101000a81548173ffffffffffffffffffffffffffffffffffffffff021916908373ffffffffffffffffffffffffffffffffffffffff160217905550505050505062000265565b600080fd5b600073ffffffffffffffffffffffffffffffffffffffff82169050919050565b60006200012f8262000102565b9050919050565b620001418162000122565b81146200014d57600080fd5b50565b600081519050620001618162000136565b92915050565b6000819050919050565b6200017c8162000167565b81146200018857600080fd5b50565b6000815190506200019c8162000171565b92915050565b6000819050919050565b620001b781620001a2565b8114620001c357600080fd5b50565b600081519050620001d781620001ac565b92915050565b600080600080600060a08688031215620001fc57620001fb620000fd565b5b60006200020c8882890162000150565b95505060206200021f8882890162000150565b9450506040620002328882890162000150565b935050606062000245888289016200018b565b92505060806200025888828901620001c6565b9150509295509295909350565b60805160a051610d02620002996000396000818161011001526104c201526000818161028801526104860152610d026000f3fe608060405234801561001057600080fd5b50600436106100575760003560e01c806342619f661461005c5780636be4097c1461007a57806394985ddd14610098578063b37217a4146100b4578063ba13a572146100e4575b600080fd5b610064610102565b604051610071919061065a565b60405180910390f35b610082610108565b60405161008f919061065a565b60405180910390f35b6100b260048036038101906100ad91906106dc565b61010e565b005b6100ce60048036038101906100c9919061071c565b6101aa565b6040516100db9190610758565b60405180910390f35b6100ec6103be565b6040516100f991906107b4565b60405180910390f35b60045481565b60055481565b7f000000000000000000000000000000000000000000000000000000000000000073ffffffffffffffffffffffffffffffffffffffff163373ffffffffffffffffffffffffffffffffffffffff161461019c576040517f08c379a00000000000000000000000000000000000000000000000000000000081526004016101939061082c565b60405180910390fd5b6101a682826103e4565b5050565b6000600660009054906101000a900473ffffffffffffffffffffffffffffffffffffffff1673ffffffffffffffffffffffffffffffffffffffff163373ffffffffffffffffffffffffffffffffffffffff161461023c576040517f08c379a000000000000000000000000000000000000000000000000000000000815260040161023390610898565b60405180910390fd5b6000801b60015403610283576040517f08c379a000000000000000000000000000000000000000000000000000000000815260040161027a90610904565b60405180910390fd5b6002547f000000000000000000000000000000000000000000000000000000000000000073ffffffffffffffffffffffffffffffffffffffff166370a08231306040518263ffffffff1660e01b81526004016102df91906107b4565b602060405180830381865afa1580156102fc573d6000803e3d6000fd5b505050506040513d601f19601f820116820180604052508101906103209190610939565b1015610361576040517f08c379a0000000000000000000000000000000000000000000000000000000008152600401610358906109d8565b60405180910390fd5b33600360006101000a81548173ffffffffffffffffffffffffffffffffffffffff021916908373ffffffffffffffffffffffffffffffffffffffff160217905550816005819055506103b7600154600254610482565b9050919050565b600660009054906101000a900473ffffffffffffffffffffffffffffffffffffffff1681565b600360009054906101000a900473ffffffffffffffffffffffffffffffffffffffff1673ffffffffffffffffffffffffffffffffffffffff1663e97fc16260055484846040518463ffffffff1660e01b8152600401610445939291906109f8565b600060405180830381600087803b15801561045f57600080fd5b505af1158015610473573d6000803e3d6000fd5b50505050806004819055505050565b60007f000000000000000000000000000000000000000000000000000000000000000073ffffffffffffffffffffffffffffffffffffffff16634000aea07f0000000000000000000000000000000000000000000000000000000000000000848660006040516020016104f6929190610a2f565b6040516020818303038152906040526040518463ffffffff1660e01b815260040161052393929190610af1565b6020604051808303816000875af1158015610542573d6000803e3d6000fd5b505050506040513d601f19601f820116820180604052508101906105669190610b67565b50600061058884600030600080898152602001908152602001600020546105d2565b90506001600080868152602001908152602001600020546105a99190610bc3565b600080868152602001908152602001600020819055506105c9848261060e565b91505092915050565b6000848484846040516020016105eb9493929190610c19565b6040516020818303038152906040528051906020012060001c9050949350505050565b60008282604051602001610623929190610ca0565b60405160208183030381529060405280519060200120905092915050565b6000819050919050565b61065481610641565b82525050565b600060208201905061066f600083018461064b565b92915050565b600080fd5b6000819050919050565b61068d8161067a565b811461069857600080fd5b50565b6000813590506106aa81610684565b92915050565b6106b981610641565b81146106c457600080fd5b50565b6000813590506106d6816106b0565b92915050565b600080604083850312156106f3576106f2610675565b5b60006107018582860161069b565b9250506020610712858286016106c7565b9150509250929050565b60006020828403121561073257610731610675565b5b6000610740848285016106c7565b91505092915050565b6107528161067a565b82525050565b600060208201905061076d6000830184610749565b92915050565b600073ffffffffffffffffffffffffffffffffffffffff82169050919050565b600061079e82610773565b9050919050565b6107ae81610793565b82525050565b60006020820190506107c960008301846107a5565b92915050565b600082825260208201905092915050565b7f4f6e6c7920565246436f6f7264696e61746f722063616e2066756c66696c6c00600082015250565b6000610816601f836107cf565b9150610821826107e0565b602082019050919050565b6000602082019050818103600083015261084581610809565b9050919050565b7f4f6e6c79204c6f74746572792063616e2063616c6c2066756e6374696f6e0000600082015250565b6000610882601e836107cf565b915061088d8261084c565b602082019050919050565b600060208201905081810360008301526108b181610875565b9050919050565b7f4d75737420686176652076616c6964206b657920686173680000000000000000600082015250565b60006108ee6018836107cf565b91506108f9826108b8565b602082019050919050565b6000602082019050818103600083015261091d816108e1565b9050919050565b600081519050610933816106b0565b92915050565b60006020828403121561094f5761094e610675565b5b600061095d84828501610924565b91505092915050565b7f4e6f7420656e6f756768204c494e4b202d2066696c6c20636f6e74726163742060008201527f7769746820666175636574000000000000000000000000000000000000000000602082015250565b60006109c2602b836107cf565b91506109cd82610966565b604082019050919050565b600060208201905081810360008301526109f1816109b5565b9050919050565b6000606082019050610a0d600083018661064b565b610a1a6020830185610749565b610a27604083018461064b565b949350505050565b6000604082019050610a446000830185610749565b610a51602083018461064b565b9392505050565b600081519050919050565b600082825260208201905092915050565b60005b83811015610a92578082015181840152602081019050610a77565b83811115610aa1576000848401525b50505050565b6000601f19601f8301169050919050565b6000610ac382610a58565b610acd8185610a63565b9350610add818560208601610a74565b610ae681610aa7565b840191505092915050565b6000606082019050610b0660008301866107a5565b610b13602083018561064b565b8181036040830152610b258184610ab8565b9050949350505050565b60008115159050919050565b610b4481610b2f565b8114610b4f57600080fd5b50565b600081519050610b6181610b3b565b92915050565b600060208284031215610b7d57610b7c610675565b5b6000610b8b84828501610b52565b91505092915050565b7f4e487b7100000000000000000000000000000000000000000000000000000000600052601160045260246000fd5b6000610bce82610641565b9150610bd983610641565b9250827fffffffffffffffffffffffffffffffffffffffffffffffffffffffffffffffff03821115610c0e57610c0d610b94565b5b828201905092915050565b6000608082019050610c2e6000830187610749565b610c3b602083018661064b565b610c4860408301856107a5565b610c55606083018461064b565b95945050505050565b6000819050919050565b610c79610c748261067a565b610c5e565b82525050565b6000819050919050565b610c9a610c9582610641565b610c7f565b82525050565b6000610cac8285610c68565b602082019150610cbc8284610c89565b602082019150819050939250505056fea26469706673582212204d316eea6a1e4daaa387c7b0e953a1a9172a46257d8207c66b30daf3f01b800864736f6c634300080e0033",
  "immutableReferences": {
    "73": [
      {
        "length": 32,
        "start": 648
      },
      {
        "length": 32,
        "start": 1158
      }
    ],
    "75": [
      {
        "length": 32,
        "start": 272
      },
      {
        "length": 32,
        "start": 1218
      }
    ]
  },
  "source": "//SPDX-License-Identifier: MIT\r\npragma solidity ^0.8.0;\r\n\r\nimport \"@chainlink/contracts/src/v0.8/VRFConsumerBase.sol\";\r\nimport \"./ILottery.sol\";    \r\nimport \"./IRandomNumberGenerator.sol\";\r\n\r\ncontract RandomNumberGenerator is IRandomNumberGenerator, VRFConsumerBase {\r\n    \r\n    bytes32 internal keyHash;\r\n    uint256 internal fee;\r\n    address internal requester;\r\n    uint256 public randomResult;\r\n    uint256 public currentLotteryId;\r\n\r\n    address public lottery;\r\n    \r\n    modifier onlyLottery() {\r\n        require(\r\n            msg.sender == lottery,\r\n            \"Only Lottery can call function\"\r\n        );\r\n        _;\r\n    }\r\n\r\n    constructor(\r\n        address _vrfCoordinator,\r\n        address _linkToken,\r\n        address _lottery,\r\n        bytes32 _keyHash,\r\n        uint256 _fee\r\n    ) \r\n        VRFConsumerBase(\r\n            _vrfCoordinator, \r\n            _linkToken  \r\n        )\r\n    {\r\n        keyHash = _keyHash;\r\n        fee = _fee; \r\n        lottery = _lottery;\r\n    }\r\n    \r\n    /** \r\n     * Requests randomness from a user-provided seed\r\n     */\r\n    function getRandomNumber(\r\n        uint256 lotteryId\r\n    ) \r\n        public \r\n        onlyLottery()\r\n        returns (bytes32 requestId) \r\n    {\r\n        require(keyHash != bytes32(0), \"Must have valid key hash\");\r\n        require(\r\n            LINK.balanceOf(address(this)) >= fee, \r\n            \"Not enough LINK - fill contract with faucet\"\r\n        );\r\n        requester = msg.sender;\r\n        currentLotteryId = lotteryId;\r\n        return requestRandomness(keyHash, fee);\r\n    }\r\n\r\n    /**\r\n     * Callback function used by VRF Coordinator\r\n     */\r\n    function fulfillRandomness(bytes32 requestId, uint256 randomness) internal override {\r\n        ILottery(requester).numbersDrawn(\r\n            currentLotteryId,\r\n            requestId,\r\n            randomness\r\n        );\r\n        randomResult = randomness;\r\n    }\r\n}",
  "sourcePath": "D:\\contract-xosoblockchain\\contracts\\RandomNumberGenerator.sol",
  "compiler": {
    "name": "solc",
    "version": "0.8.14+commit.80d49f37.Emscripten.clang"
  },
  "schemaVersion": "3.4.5",
  "updatedAt": "2022-05-30T07:36:14.567Z",
  "networkType": "ethereum",
  "devdoc": {
    "kind": "dev",
    "methods": {},
    "version": 1
  },
  "userdoc": {
    "kind": "user",
    "methods": {
      "getRandomNumber(uint256)": {
        "notice": "Requests randomness from a user-provided seed"
      }
    },
    "version": 1
  }
}