{
  "contractName": "TicketNFT",
  "abi": [
    {
      "inputs": [
        {
          "internalType": "string",
          "name": "_uri",
          "type": "string"
        },
        {
          "internalType": "address",
          "name": "_lotto",
          "type": "address"
        }
      ],
      "stateMutability": "nonpayable",
      "type": "constructor"
    },
    {
      "anonymous": false,
      "inputs": [
        {
          "indexed": true,
          "internalType": "address",
          "name": "account",
          "type": "address"
        },
        {
          "indexed": true,
          "internalType": "address",
          "name": "operator",
          "type": "address"
        },
        {
          "indexed": false,
          "internalType": "bool",
          "name": "approved",
          "type": "bool"
        }
      ],
      "name": "ApprovalForAll",
      "type": "event"
    },
    {
      "anonymous": false,
      "inputs": [
        {
          "indexed": true,
          "internalType": "address",
          "name": "operator",
          "type": "address"
        },
        {
          "indexed": true,
          "internalType": "address",
          "name": "from",
          "type": "address"
        },
        {
          "indexed": true,
          "internalType": "address",
          "name": "to",
          "type": "address"
        },
        {
          "indexed": false,
          "internalType": "uint256[]",
          "name": "ids",
          "type": "uint256[]"
        },
        {
          "indexed": false,
          "internalType": "uint256[]",
          "name": "values",
          "type": "uint256[]"
        }
      ],
      "name": "TransferBatch",
      "type": "event"
    },
    {
      "anonymous": false,
      "inputs": [
        {
          "indexed": true,
          "internalType": "address",
          "name": "operator",
          "type": "address"
        },
        {
          "indexed": true,
          "internalType": "address",
          "name": "from",
          "type": "address"
        },
        {
          "indexed": true,
          "internalType": "address",
          "name": "to",
          "type": "address"
        },
        {
          "indexed": false,
          "internalType": "uint256",
          "name": "id",
          "type": "uint256"
        },
        {
          "indexed": false,
          "internalType": "uint256",
          "name": "value",
          "type": "uint256"
        }
      ],
      "name": "TransferSingle",
      "type": "event"
    },
    {
      "anonymous": false,
      "inputs": [
        {
          "indexed": false,
          "internalType": "string",
          "name": "value",
          "type": "string"
        },
        {
          "indexed": true,
          "internalType": "uint256",
          "name": "id",
          "type": "uint256"
        }
      ],
      "name": "URI",
      "type": "event"
    },
    {
      "inputs": [
        {
          "internalType": "address",
          "name": "account",
          "type": "address"
        },
        {
          "internalType": "uint256",
          "name": "id",
          "type": "uint256"
        }
      ],
      "name": "balanceOf",
      "outputs": [
        {
          "internalType": "uint256",
          "name": "",
          "type": "uint256"
        }
      ],
      "stateMutability": "view",
      "type": "function",
      "constant": true
    },
    {
      "inputs": [
        {
          "internalType": "address[]",
          "name": "accounts",
          "type": "address[]"
        },
        {
          "internalType": "uint256[]",
          "name": "ids",
          "type": "uint256[]"
        }
      ],
      "name": "balanceOfBatch",
      "outputs": [
        {
          "internalType": "uint256[]",
          "name": "",
          "type": "uint256[]"
        }
      ],
      "stateMutability": "view",
      "type": "function",
      "constant": true
    },
    {
      "inputs": [
        {
          "internalType": "address",
          "name": "account",
          "type": "address"
        },
        {
          "internalType": "address",
          "name": "operator",
          "type": "address"
        }
      ],
      "name": "isApprovedForAll",
      "outputs": [
        {
          "internalType": "bool",
          "name": "",
          "type": "bool"
        }
      ],
      "stateMutability": "view",
      "type": "function",
      "constant": true
    },
    {
      "inputs": [
        {
          "internalType": "address",
          "name": "from",
          "type": "address"
        },
        {
          "internalType": "address",
          "name": "to",
          "type": "address"
        },
        {
          "internalType": "uint256[]",
          "name": "ids",
          "type": "uint256[]"
        },
        {
          "internalType": "uint256[]",
          "name": "amounts",
          "type": "uint256[]"
        },
        {
          "internalType": "bytes",
          "name": "data",
          "type": "bytes"
        }
      ],
      "name": "safeBatchTransferFrom",
      "outputs": [],
      "stateMutability": "nonpayable",
      "type": "function"
    },
    {
      "inputs": [
        {
          "internalType": "address",
          "name": "from",
          "type": "address"
        },
        {
          "internalType": "address",
          "name": "to",
          "type": "address"
        },
        {
          "internalType": "uint256",
          "name": "id",
          "type": "uint256"
        },
        {
          "internalType": "uint256",
          "name": "amount",
          "type": "uint256"
        },
        {
          "internalType": "bytes",
          "name": "data",
          "type": "bytes"
        }
      ],
      "name": "safeTransferFrom",
      "outputs": [],
      "stateMutability": "nonpayable",
      "type": "function"
    },
    {
      "inputs": [
        {
          "internalType": "address",
          "name": "operator",
          "type": "address"
        },
        {
          "internalType": "bool",
          "name": "approved",
          "type": "bool"
        }
      ],
      "name": "setApprovalForAll",
      "outputs": [],
      "stateMutability": "nonpayable",
      "type": "function"
    },
    {
      "inputs": [
        {
          "internalType": "bytes4",
          "name": "interfaceId",
          "type": "bytes4"
        }
      ],
      "name": "supportsInterface",
      "outputs": [
        {
          "internalType": "bool",
          "name": "",
          "type": "bool"
        }
      ],
      "stateMutability": "view",
      "type": "function",
      "constant": true
    },
    {
      "inputs": [
        {
          "internalType": "uint256",
          "name": "",
          "type": "uint256"
        }
      ],
      "name": "uri",
      "outputs": [
        {
          "internalType": "string",
          "name": "",
          "type": "string"
        }
      ],
      "stateMutability": "view",
      "type": "function",
      "constant": true
    },
    {
      "inputs": [],
      "name": "getCurrentTicketId",
      "outputs": [
        {
          "internalType": "uint256",
          "name": "",
          "type": "uint256"
        }
      ],
      "stateMutability": "view",
      "type": "function",
      "constant": true
    },
    {
      "inputs": [
        {
          "internalType": "uint256",
          "name": "_ticketID",
          "type": "uint256"
        }
      ],
      "name": "getTicketNumbers",
      "outputs": [
        {
          "internalType": "uint8",
          "name": "",
          "type": "uint8"
        }
      ],
      "stateMutability": "view",
      "type": "function",
      "constant": true
    },
    {
      "inputs": [
        {
          "internalType": "uint256",
          "name": "_ticketID",
          "type": "uint256"
        }
      ],
      "name": "getOwnerOfTicket",
      "outputs": [
        {
          "internalType": "address",
          "name": "",
          "type": "address"
        }
      ],
      "stateMutability": "view",
      "type": "function",
      "constant": true
    },
    {
      "inputs": [
        {
          "internalType": "uint256",
          "name": "_lotteryId",
          "type": "uint256"
        },
        {
          "internalType": "address",
          "name": "_user",
          "type": "address"
        }
      ],
      "name": "getUserTicketIds",
      "outputs": [
        {
          "internalType": "uint256[]",
          "name": "",
          "type": "uint256[]"
        }
      ],
      "stateMutability": "view",
      "type": "function",
      "constant": true
    },
    {
      "inputs": [
        {
          "internalType": "uint256",
          "name": "_lotteryId",
          "type": "uint256"
        },
        {
          "internalType": "address",
          "name": "_user",
          "type": "address"
        }
      ],
      "name": "getUserTickets",
      "outputs": [
        {
          "components": [
            {
              "internalType": "address",
              "name": "owner",
              "type": "address"
            },
            {
              "internalType": "uint8",
              "name": "numbers",
              "type": "uint8"
            },
            {
              "internalType": "uint256",
              "name": "lotteryId",
              "type": "uint256"
            },
            {
              "internalType": "uint8",
              "name": "numberOfTickets",
              "type": "uint8"
            },
            {
              "internalType": "uint256",
              "name": "winAmount",
              "type": "uint256"
            },
            {
              "internalType": "uint256",
              "name": "buyAt",
              "type": "uint256"
            }
          ],
          "internalType": "struct ITicketNFT.TicketInfo[]",
          "name": "",
          "type": "tuple[]"
        }
      ],
      "stateMutability": "view",
      "type": "function",
      "constant": true
    },
    {
      "inputs": [
        {
          "internalType": "address",
          "name": "_user",
          "type": "address"
        }
      ],
      "name": "getUserTicketsAllRound",
      "outputs": [
        {
          "components": [
            {
              "internalType": "address",
              "name": "owner",
              "type": "address"
            },
            {
              "internalType": "uint8",
              "name": "numbers",
              "type": "uint8"
            },
            {
              "internalType": "uint256",
              "name": "lotteryId",
              "type": "uint256"
            },
            {
              "internalType": "uint8",
              "name": "numberOfTickets",
              "type": "uint8"
            },
            {
              "internalType": "uint256",
              "name": "winAmount",
              "type": "uint256"
            },
            {
              "internalType": "uint256",
              "name": "buyAt",
              "type": "uint256"
            }
          ],
          "internalType": "struct ITicketNFT.TicketInfo[][]",
          "name": "",
          "type": "tuple[][]"
        }
      ],
      "stateMutability": "view",
      "type": "function",
      "constant": true
    },
    {
      "inputs": [
        {
          "internalType": "uint256",
          "name": "_ticketID",
          "type": "uint256"
        }
      ],
      "name": "getTicketInfo",
      "outputs": [
        {
          "components": [
            {
              "internalType": "address",
              "name": "owner",
              "type": "address"
            },
            {
              "internalType": "uint8",
              "name": "numbers",
              "type": "uint8"
            },
            {
              "internalType": "uint256",
              "name": "lotteryId",
              "type": "uint256"
            },
            {
              "internalType": "uint8",
              "name": "numberOfTickets",
              "type": "uint8"
            },
            {
              "internalType": "uint256",
              "name": "winAmount",
              "type": "uint256"
            },
            {
              "internalType": "uint256",
              "name": "buyAt",
              "type": "uint256"
            }
          ],
          "internalType": "struct ITicketNFT.TicketInfo",
          "name": "",
          "type": "tuple"
        }
      ],
      "stateMutability": "view",
      "type": "function",
      "constant": true
    },
    {
      "inputs": [
        {
          "internalType": "uint256[]",
          "name": "ticketIds",
          "type": "uint256[]"
        }
      ],
      "name": "getTickets",
      "outputs": [
        {
          "components": [
            {
              "internalType": "address",
              "name": "owner",
              "type": "address"
            },
            {
              "internalType": "uint8",
              "name": "numbers",
              "type": "uint8"
            },
            {
              "internalType": "uint256",
              "name": "lotteryId",
              "type": "uint256"
            },
            {
              "internalType": "uint8",
              "name": "numberOfTickets",
              "type": "uint8"
            },
            {
              "internalType": "uint256",
              "name": "winAmount",
              "type": "uint256"
            },
            {
              "internalType": "uint256",
              "name": "buyAt",
              "type": "uint256"
            }
          ],
          "internalType": "struct ITicketNFT.TicketInfo[]",
          "name": "",
          "type": "tuple[]"
        }
      ],
      "stateMutability": "view",
      "type": "function",
      "constant": true
    },
    {
      "inputs": [
        {
          "internalType": "uint256",
          "name": "_lotteryId",
          "type": "uint256"
        },
        {
          "internalType": "uint256",
          "name": "_randomNumber",
          "type": "uint256"
        },
        {
          "internalType": "uint256",
          "name": "_firstTicketId",
          "type": "uint256"
        }
      ],
      "name": "getWinningTickets",
      "outputs": [
        {
          "internalType": "uint256",
          "name": "",
          "type": "uint256"
        },
        {
          "internalType": "uint8",
          "name": "",
          "type": "uint8"
        },
        {
          "components": [
            {
              "internalType": "address",
              "name": "owner",
              "type": "address"
            },
            {
              "internalType": "uint8",
              "name": "numbers",
              "type": "uint8"
            },
            {
              "internalType": "uint256",
              "name": "lotteryId",
              "type": "uint256"
            },
            {
              "internalType": "uint8",
              "name": "numberOfTickets",
              "type": "uint8"
            },
            {
              "internalType": "uint256",
              "name": "winAmount",
              "type": "uint256"
            },
            {
              "internalType": "uint256",
              "name": "buyAt",
              "type": "uint256"
            }
          ],
          "internalType": "struct ITicketNFT.TicketInfo[]",
          "name": "",
          "type": "tuple[]"
        },
        {
          "internalType": "uint256[]",
          "name": "",
          "type": "uint256[]"
        }
      ],
      "stateMutability": "view",
      "type": "function",
      "constant": true
    },
    {
      "inputs": [
        {
          "internalType": "address",
          "name": "_to",
          "type": "address"
        },
        {
          "internalType": "uint256",
          "name": "_lotteryId",
          "type": "uint256"
        },
        {
          "internalType": "uint8",
          "name": "_numberOfTickets",
          "type": "uint8"
        },
        {
          "internalType": "uint8",
          "name": "_numbers",
          "type": "uint8"
        }
      ],
      "name": "Mint",
      "outputs": [
        {
          "internalType": "uint256",
          "name": "",
          "type": "uint256"
        }
      ],
      "stateMutability": "nonpayable",
      "type": "function"
    },
    {
      "inputs": [
        {
          "internalType": "uint256",
          "name": "ticketId",
          "type": "uint256"
        },
        {
          "internalType": "uint256",
          "name": "amount",
          "type": "uint256"
        }
      ],
      "name": "setTicketWinAmount",
      "outputs": [],
      "stateMutability": "nonpayable",
      "type": "function"
    }
  ],
  "bytecode": "0x60806040523480156200001157600080fd5b50604051620043fe380380620043fe833981810160405281019062000037919062000361565b8162000049816200009360201b60201c565b5080600360006101000a81548173ffffffffffffffffffffffffffffffffffffffff021916908373ffffffffffffffffffffffffffffffffffffffff16021790555050506200042b565b8060029080519060200190620000ab929190620000af565b5050565b828054620000bd90620003f6565b90600052602060002090601f016020900481019282620000e157600085556200012d565b82601f10620000fc57805160ff19168380011785556200012d565b828001600101855582156200012d579182015b828111156200012c5782518255916020019190600101906200010f565b5b5090506200013c919062000140565b5090565b5b808211156200015b57600081600090555060010162000141565b5090565b6000604051905090565b600080fd5b600080fd5b600080fd5b600080fd5b6000601f19601f8301169050919050565b7f4e487b7100000000000000000000000000000000000000000000000000000000600052604160045260246000fd5b620001c8826200017d565b810181811067ffffffffffffffff82111715620001ea57620001e96200018e565b5b80604052505050565b6000620001ff6200015f565b90506200020d8282620001bd565b919050565b600067ffffffffffffffff82111562000230576200022f6200018e565b5b6200023b826200017d565b9050602081019050919050565b60005b83811015620002685780820151818401526020810190506200024b565b8381111562000278576000848401525b50505050565b6000620002956200028f8462000212565b620001f3565b905082815260208101848484011115620002b457620002b362000178565b5b620002c184828562000248565b509392505050565b600082601f830112620002e157620002e062000173565b5b8151620002f38482602086016200027e565b91505092915050565b600073ffffffffffffffffffffffffffffffffffffffff82169050919050565b60006200032982620002fc565b9050919050565b6200033b816200031c565b81146200034757600080fd5b50565b6000815190506200035b8162000330565b92915050565b600080604083850312156200037b576200037a62000169565b5b600083015167ffffffffffffffff8111156200039c576200039b6200016e565b5b620003aa85828601620002c9565b9250506020620003bd858286016200034a565b9150509250929050565b7f4e487b7100000000000000000000000000000000000000000000000000000000600052602260045260246000fd5b600060028204905060018216806200040f57607f821691505b602082108103620004255762000424620003c7565b5b50919050565b613fc3806200043b6000396000f3fe608060405234801561001057600080fd5b50600436106101205760003560e01c8063867f5168116100ad578063bc49516b11610071578063bc49516b1461038c578063e7a7f65c146103aa578063e985e9c5146103da578063f242432a1461040a578063ff99a0631461042657610120565b8063867f5168146102b05780639839eafd146102e057806399b9fd8e146103105780639d75536714610340578063a22cb4651461037057610120565b8063127873f7116100f4578063127873f7146101e857806322ea80af146102185780632eb2c2d6146102345780634e1273f4146102505780635dd703e91461028057610120565b8062fdd58e1461012557806301ffc9a7146101555780630e89341c146101855780630fa3f02c146101b5575b600080fd5b61013f600480360381019061013a9190612617565b610456565b60405161014c9190612666565b60405180910390f35b61016f600480360381019061016a91906126d9565b61051e565b60405161017c9190612721565b60405180910390f35b61019f600480360381019061019a919061273c565b610600565b6040516101ac9190612802565b60405180910390f35b6101cf60048036038101906101ca9190612824565b610694565b6040516101df9493929190612a99565b60405180910390f35b61020260048036038101906101fd9190612c34565b610a53565b60405161020f9190612c7d565b60405180910390f35b610232600480360381019061022d9190612c9f565b610bdb565b005b61024e60048036038101906102499190612d94565b610c8a565b005b61026a60048036038101906102659190612f26565b610d2b565b6040516102779190612f9e565b60405180910390f35b61029a60048036038101906102959190612fc0565b610e44565b6040516102a79190612f9e565b60405180910390f35b6102ca60048036038101906102c5919061302c565b610eed565b6040516102d79190612666565b60405180910390f35b6102fa60048036038101906102f5919061273c565b611184565b6040516103079190613093565b60405180910390f35b61032a600480360381019061032591906130ae565b6111b1565b604051610337919061320c565b60405180910390f35b61035a6004803603810190610355919061273c565b6112fa565b604051610367919061323d565b60405180910390f35b61038a60048036038101906103859190613284565b61133a565b005b610394611350565b6040516103a19190612666565b60405180910390f35b6103c460048036038101906103bf9190612fc0565b61135a565b6040516103d19190612c7d565b60405180910390f35b6103f460048036038101906103ef91906132c4565b611587565b6040516104019190612721565b60405180910390f35b610424600480360381019061041f9190613304565b61161b565b005b610440600480360381019061043b919061273c565b6116bc565b60405161044d9190613416565b60405180910390f35b60008073ffffffffffffffffffffffffffffffffffffffff168373ffffffffffffffffffffffffffffffffffffffff16036104c6576040517f08c379a00000000000000000000000000000000000000000000000000000000081526004016104bd906134a3565b60405180910390fd5b60008083815260200190815260200160002060008473ffffffffffffffffffffffffffffffffffffffff1673ffffffffffffffffffffffffffffffffffffffff16815260200190815260200160002054905092915050565b60007fd9b67a26000000000000000000000000000000000000000000000000000000007bffffffffffffffffffffffffffffffffffffffffffffffffffffffff1916827bffffffffffffffffffffffffffffffffffffffffffffffffffffffff191614806105e957507f0e89341c000000000000000000000000000000000000000000000000000000007bffffffffffffffffffffffffffffffffffffffffffffffffffffffff1916827bffffffffffffffffffffffffffffffffffffffffffffffffffffffff1916145b806105f957506105f882611797565b5b9050919050565b60606002805461060f906134f2565b80601f016020809104026020016040519081016040528092919081815260200182805461063b906134f2565b80156106885780601f1061065d57610100808354040283529160200191610688565b820191906000526020600020905b81548152906001019060200180831161066b57829003601f168201915b50505050509050919050565b600080606080600360009054906101000a900473ffffffffffffffffffffffffffffffffffffffff1673ffffffffffffffffffffffffffffffffffffffff163373ffffffffffffffffffffffffffffffffffffffff161461072a576040517f08c379a00000000000000000000000000000000000000000000000000000000081526004016107219061356f565b60405180910390fd5b600061074060648861180190919063ffffffff16565b905060008060008890505b60045481116107c8578360ff166005600083815260200190815260200160002060000160149054906101000a900460ff1660ff161480156107a157508a6005600083815260200190815260200160002060010154145b156107b55781806107b1906135be565b9250505b80806107c0906135be565b91505061074b565b5060008167ffffffffffffffff8111156107e5576107e4612af1565b5b60405190808252806020026020018201604052801561081e57816020015b61080b61251d565b8152602001906001900390816108035790505b50905060008267ffffffffffffffff81111561083d5761083c612af1565b5b60405190808252806020026020018201604052801561086b5781602001602082028036833780820191505090505b5090506000808b90505b6004548111610a37578660ff166005600083815260200190815260200160002060000160149054906101000a900460ff1660ff161480156108cb57508d6005600083815260200190815260200160002060010154145b15610a24576109096005600083815260200190815260200160002060020160009054906101000a900460ff1660ff168761181790919063ffffffff16565b9550600560008281526020019081526020016000206040518060c00160405290816000820160009054906101000a900473ffffffffffffffffffffffffffffffffffffffff1673ffffffffffffffffffffffffffffffffffffffff1673ffffffffffffffffffffffffffffffffffffffff1681526020016000820160149054906101000a900460ff1660ff1660ff168152602001600182015481526020016002820160009054906101000a900460ff1660ff1660ff168152602001600382015481526020016004820154815250508483815181106109ea576109e9613606565b5b602002602001018190525080838381518110610a0957610a08613606565b5b6020026020010181815250508180610a20906135be565b9250505b8080610a2f906135be565b915050610875565b5084868484995099509950995050505050505093509350935093565b60606000825167ffffffffffffffff811115610a7257610a71612af1565b5b604051908082528060200260200182016040528015610aab57816020015b610a9861251d565b815260200190600190039081610a905790505b50905060005b8351811015610bd15760056000858381518110610ad157610ad0613606565b5b602002602001015181526020019081526020016000206040518060c00160405290816000820160009054906101000a900473ffffffffffffffffffffffffffffffffffffffff1673ffffffffffffffffffffffffffffffffffffffff1673ffffffffffffffffffffffffffffffffffffffff1681526020016000820160149054906101000a900460ff1660ff1660ff168152602001600182015481526020016002820160009054906101000a900460ff1660ff1660ff16815260200160038201548152602001600482015481525050828281518110610bb357610bb2613606565b5b60200260200101819052508080610bc9906135be565b915050610ab1565b5080915050919050565b600360009054906101000a900473ffffffffffffffffffffffffffffffffffffffff1673ffffffffffffffffffffffffffffffffffffffff163373ffffffffffffffffffffffffffffffffffffffff1614610c6b576040517f08c379a0000000000000000000000000000000000000000000000000000000008152600401610c629061356f565b60405180910390fd5b8060056000848152602001908152602001600020600301819055505050565b610c9261182d565b73ffffffffffffffffffffffffffffffffffffffff168573ffffffffffffffffffffffffffffffffffffffff161480610cd85750610cd785610cd261182d565b611587565b5b610d17576040517f08c379a0000000000000000000000000000000000000000000000000000000008152600401610d0e906136a7565b60405180910390fd5b610d248585858585611835565b5050505050565b60608151835114610d71576040517f08c379a0000000000000000000000000000000000000000000000000000000008152600401610d6890613739565b60405180910390fd5b6000835167ffffffffffffffff811115610d8e57610d8d612af1565b5b604051908082528060200260200182016040528015610dbc5781602001602082028036833780820191505090505b50905060005b8451811015610e3957610e09858281518110610de157610de0613606565b5b6020026020010151858381518110610dfc57610dfb613606565b5b6020026020010151610456565b828281518110610e1c57610e1b613606565b5b60200260200101818152505080610e32906135be565b9050610dc2565b508091505092915050565b6060600660008373ffffffffffffffffffffffffffffffffffffffff1673ffffffffffffffffffffffffffffffffffffffff1681526020019081526020016000206000848152602001908152602001600020805480602002602001604051908101604052809291908181526020018280548015610ee057602002820191906000526020600020905b815481526020019060010190808311610ecc575b5050505050905092915050565b6000600360009054906101000a900473ffffffffffffffffffffffffffffffffffffffff1673ffffffffffffffffffffffffffffffffffffffff163373ffffffffffffffffffffffffffffffffffffffff1614610f7f576040517f08c379a0000000000000000000000000000000000000000000000000000000008152600401610f769061356f565b60405180910390fd5b610f95600160045461181790919063ffffffff16565b600481905550600060045490506040518060c001604052808773ffffffffffffffffffffffffffffffffffffffff1681526020018460ff1681526020018681526020018560ff168152602001600081526020014281525060056000600454815260200190815260200160002060008201518160000160006101000a81548173ffffffffffffffffffffffffffffffffffffffff021916908373ffffffffffffffffffffffffffffffffffffffff16021790555060208201518160000160146101000a81548160ff021916908360ff1602179055506040820151816001015560608201518160020160006101000a81548160ff021916908360ff1602179055506080820151816003015560a08201518160040155905050600660008773ffffffffffffffffffffffffffffffffffffffff1673ffffffffffffffffffffffffffffffffffffffff1681526020019081526020016000206000868152602001908152602001600020600454908060018154018082558091505060019003906000526020600020016000909190919091505561117886828660ff166000368080601f016020809104026020016040519081016040528093929190818152602001838380828437600081840152601f19601f82011690508083019250505050505050611b48565b80915050949350505050565b60006005600083815260200190815260200160002060000160149054906101000a900460ff169050919050565b60606000600360009054906101000a900473ffffffffffffffffffffffffffffffffffffffff1673ffffffffffffffffffffffffffffffffffffffff166380a061606040518163ffffffff1660e01b8152600401602060405180830381865afa158015611222573d6000803e3d6000fd5b505050506040513d601f19601f82011682018060405250810190611246919061376e565b905060008167ffffffffffffffff81111561126457611263612af1565b5b60405190808252806020026020018201604052801561129757816020015b60608152602001906001900390816112825790505b5090506000600190505b8281116112ef576112b2818661135a565b826001836112c0919061379b565b815181106112d1576112d0613606565b5b602002602001018190525080806112e7906135be565b9150506112a1565b508092505050919050565b60006005600083815260200190815260200160002060000160009054906101000a900473ffffffffffffffffffffffffffffffffffffffff169050919050565b61134c61134561182d565b8383611cdd565b5050565b6000600454905090565b60606000600660008473ffffffffffffffffffffffffffffffffffffffff1673ffffffffffffffffffffffffffffffffffffffff16815260200190815260200160002060008581526020019081526020016000208054806020026020016040519081016040528092919081815260200182805480156113f857602002820191906000526020600020905b8154815260200190600101908083116113e4575b505050505090506000815167ffffffffffffffff81111561141c5761141b612af1565b5b60405190808252806020026020018201604052801561145557816020015b61144261251d565b81526020019060019003908161143a5790505b50905060005b825181101561157b576005600084838151811061147b5761147a613606565b5b602002602001015181526020019081526020016000206040518060c00160405290816000820160009054906101000a900473ffffffffffffffffffffffffffffffffffffffff1673ffffffffffffffffffffffffffffffffffffffff1673ffffffffffffffffffffffffffffffffffffffff1681526020016000820160149054906101000a900460ff1660ff1660ff168152602001600182015481526020016002820160009054906101000a900460ff1660ff1660ff1681526020016003820154815260200160048201548152505082828151811061155d5761155c613606565b5b60200260200101819052508080611573906135be565b91505061145b565b50809250505092915050565b6000600160008473ffffffffffffffffffffffffffffffffffffffff1673ffffffffffffffffffffffffffffffffffffffff16815260200190815260200160002060008373ffffffffffffffffffffffffffffffffffffffff1673ffffffffffffffffffffffffffffffffffffffff16815260200190815260200160002060009054906101000a900460ff16905092915050565b61162361182d565b73ffffffffffffffffffffffffffffffffffffffff168573ffffffffffffffffffffffffffffffffffffffff16148061166957506116688561166361182d565b611587565b5b6116a8576040517f08c379a000000000000000000000000000000000000000000000000000000000815260040161169f90613841565b60405180910390fd5b6116b58585858585611e49565b5050505050565b6116c461251d565b600560008381526020019081526020016000206040518060c00160405290816000820160009054906101000a900473ffffffffffffffffffffffffffffffffffffffff1673ffffffffffffffffffffffffffffffffffffffff1673ffffffffffffffffffffffffffffffffffffffff1681526020016000820160149054906101000a900460ff1660ff1660ff168152602001600182015481526020016002820160009054906101000a900460ff1660ff1660ff168152602001600382015481526020016004820154815250509050919050565b60007f01ffc9a7000000000000000000000000000000000000000000000000000000007bffffffffffffffffffffffffffffffffffffffffffffffffffffffff1916827bffffffffffffffffffffffffffffffffffffffffffffffffffffffff1916149050919050565b6000818361180f9190613890565b905092915050565b6000818361182591906138c1565b905092915050565b600033905090565b8151835114611879576040517f08c379a000000000000000000000000000000000000000000000000000000000815260040161187090613989565b60405180910390fd5b600073ffffffffffffffffffffffffffffffffffffffff168473ffffffffffffffffffffffffffffffffffffffff16036118e8576040517f08c379a00000000000000000000000000000000000000000000000000000000081526004016118df90613a1b565b60405180910390fd5b60006118f261182d565b90506119028187878787876120ca565b60005b8451811015611ab357600085828151811061192357611922613606565b5b60200260200101519050600085838151811061194257611941613606565b5b60200260200101519050600080600084815260200190815260200160002060008b73ffffffffffffffffffffffffffffffffffffffff1673ffffffffffffffffffffffffffffffffffffffff168152602001908152602001600020549050818110156119e3576040517f08c379a00000000000000000000000000000000000000000000000000000000081526004016119da90613aad565b60405180910390fd5b81810360008085815260200190815260200160002060008c73ffffffffffffffffffffffffffffffffffffffff1673ffffffffffffffffffffffffffffffffffffffff168152602001908152602001600020819055508160008085815260200190815260200160002060008b73ffffffffffffffffffffffffffffffffffffffff1673ffffffffffffffffffffffffffffffffffffffff1681526020019081526020016000206000828254611a9891906138c1565b9250508190555050505080611aac906135be565b9050611905565b508473ffffffffffffffffffffffffffffffffffffffff168673ffffffffffffffffffffffffffffffffffffffff168273ffffffffffffffffffffffffffffffffffffffff167f4a39dc06d4c0dbc64b70af90fd698a233a518aa5d07e595d983b8c0526c8f7fb8787604051611b2a929190613acd565b60405180910390a4611b408187878787876120d2565b505050505050565b600073ffffffffffffffffffffffffffffffffffffffff168473ffffffffffffffffffffffffffffffffffffffff1603611bb7576040517f08c379a0000000000000000000000000000000000000000000000000000000008152600401611bae90613b76565b60405180910390fd5b6000611bc161182d565b9050611be281600087611bd3886122a9565b611bdc886122a9565b876120ca565b8260008086815260200190815260200160002060008773ffffffffffffffffffffffffffffffffffffffff1673ffffffffffffffffffffffffffffffffffffffff1681526020019081526020016000206000828254611c4191906138c1565b925050819055508473ffffffffffffffffffffffffffffffffffffffff16600073ffffffffffffffffffffffffffffffffffffffff168273ffffffffffffffffffffffffffffffffffffffff167fc3d58168c5ae7397731d063d5bbf3d657854427343f4c083240f7aacaa2d0f628787604051611cbf929190613b96565b60405180910390a4611cd681600087878787612323565b5050505050565b8173ffffffffffffffffffffffffffffffffffffffff168373ffffffffffffffffffffffffffffffffffffffff1603611d4b576040517f08c379a0000000000000000000000000000000000000000000000000000000008152600401611d4290613c31565b60405180910390fd5b80600160008573ffffffffffffffffffffffffffffffffffffffff1673ffffffffffffffffffffffffffffffffffffffff16815260200190815260200160002060008473ffffffffffffffffffffffffffffffffffffffff1673ffffffffffffffffffffffffffffffffffffffff16815260200190815260200160002060006101000a81548160ff0219169083151502179055508173ffffffffffffffffffffffffffffffffffffffff168373ffffffffffffffffffffffffffffffffffffffff167f17307eab39ab6107e8899845ad3d59bd9653f200f220920489ca2b5937696c3183604051611e3c9190612721565b60405180910390a3505050565b600073ffffffffffffffffffffffffffffffffffffffff168473ffffffffffffffffffffffffffffffffffffffff1603611eb8576040517f08c379a0000000000000000000000000000000000000000000000000000000008152600401611eaf90613a1b565b60405180910390fd5b6000611ec261182d565b9050611ee2818787611ed3886122a9565b611edc886122a9565b876120ca565b600080600086815260200190815260200160002060008873ffffffffffffffffffffffffffffffffffffffff1673ffffffffffffffffffffffffffffffffffffffff16815260200190815260200160002054905083811015611f79576040517f08c379a0000000000000000000000000000000000000000000000000000000008152600401611f7090613aad565b60405180910390fd5b83810360008087815260200190815260200160002060008973ffffffffffffffffffffffffffffffffffffffff1673ffffffffffffffffffffffffffffffffffffffff168152602001908152602001600020819055508360008087815260200190815260200160002060008873ffffffffffffffffffffffffffffffffffffffff1673ffffffffffffffffffffffffffffffffffffffff168152602001908152602001600020600082825461202e91906138c1565b925050819055508573ffffffffffffffffffffffffffffffffffffffff168773ffffffffffffffffffffffffffffffffffffffff168373ffffffffffffffffffffffffffffffffffffffff167fc3d58168c5ae7397731d063d5bbf3d657854427343f4c083240f7aacaa2d0f6288886040516120ab929190613b96565b60405180910390a46120c1828888888888612323565b50505050505050565b505050505050565b6120f18473ffffffffffffffffffffffffffffffffffffffff166124fa565b156122a1578373ffffffffffffffffffffffffffffffffffffffff1663bc197c8187878686866040518663ffffffff1660e01b8152600401612137959493929190613ca6565b6020604051808303816000875af192505050801561217357506040513d601f19601f820116820180604052508101906121709190613d23565b60015b6122185761217f613d5d565b806308c379a0036121db5750612193613d7f565b8061219e57506121dd565b806040517f08c379a00000000000000000000000000000000000000000000000000000000081526004016121d29190612802565b60405180910390fd5b505b6040517f08c379a000000000000000000000000000000000000000000000000000000000815260040161220f90613e81565b60405180910390fd5b63bc197c8160e01b7bffffffffffffffffffffffffffffffffffffffffffffffffffffffff1916817bffffffffffffffffffffffffffffffffffffffffffffffffffffffff19161461229f576040517f08c379a000000000000000000000000000000000000000000000000000000000815260040161229690613f13565b60405180910390fd5b505b505050505050565b60606000600167ffffffffffffffff8111156122c8576122c7612af1565b5b6040519080825280602002602001820160405280156122f65781602001602082028036833780820191505090505b509050828160008151811061230e5761230d613606565b5b60200260200101818152505080915050919050565b6123428473ffffffffffffffffffffffffffffffffffffffff166124fa565b156124f2578373ffffffffffffffffffffffffffffffffffffffff1663f23a6e6187878686866040518663ffffffff1660e01b8152600401612388959493929190613f33565b6020604051808303816000875af19250505080156123c457506040513d601f19601f820116820180604052508101906123c19190613d23565b60015b612469576123d0613d5d565b806308c379a00361242c57506123e4613d7f565b806123ef575061242e565b806040517f08c379a00000000000000000000000000000000000000000000000000000000081526004016124239190612802565b60405180910390fd5b505b6040517f08c379a000000000000000000000000000000000000000000000000000000000815260040161246090613e81565b60405180910390fd5b63f23a6e6160e01b7bffffffffffffffffffffffffffffffffffffffffffffffffffffffff1916817bffffffffffffffffffffffffffffffffffffffffffffffffffffffff1916146124f0576040517f08c379a00000000000000000000000000000000000000000000000000000000081526004016124e790613f13565b60405180910390fd5b505b505050505050565b6000808273ffffffffffffffffffffffffffffffffffffffff163b119050919050565b6040518060c00160405280600073ffffffffffffffffffffffffffffffffffffffff168152602001600060ff16815260200160008152602001600060ff16815260200160008152602001600081525090565b6000604051905090565b600080fd5b600080fd5b600073ffffffffffffffffffffffffffffffffffffffff82169050919050565b60006125ae82612583565b9050919050565b6125be816125a3565b81146125c957600080fd5b50565b6000813590506125db816125b5565b92915050565b6000819050919050565b6125f4816125e1565b81146125ff57600080fd5b50565b600081359050612611816125eb565b92915050565b6000806040838503121561262e5761262d612579565b5b600061263c858286016125cc565b925050602061264d85828601612602565b9150509250929050565b612660816125e1565b82525050565b600060208201905061267b6000830184612657565b92915050565b60007fffffffff0000000000000000000000000000000000000000000000000000000082169050919050565b6126b681612681565b81146126c157600080fd5b50565b6000813590506126d3816126ad565b92915050565b6000602082840312156126ef576126ee612579565b5b60006126fd848285016126c4565b91505092915050565b60008115159050919050565b61271b81612706565b82525050565b60006020820190506127366000830184612712565b92915050565b60006020828403121561275257612751612579565b5b600061276084828501612602565b91505092915050565b600081519050919050565b600082825260208201905092915050565b60005b838110156127a3578082015181840152602081019050612788565b838111156127b2576000848401525b50505050565b6000601f19601f8301169050919050565b60006127d482612769565b6127de8185612774565b93506127ee818560208601612785565b6127f7816127b8565b840191505092915050565b6000602082019050818103600083015261281c81846127c9565b905092915050565b60008060006060848603121561283d5761283c612579565b5b600061284b86828701612602565b935050602061285c86828701612602565b925050604061286d86828701612602565b9150509250925092565b600060ff82169050919050565b61288d81612877565b82525050565b600081519050919050565b600082825260208201905092915050565b6000819050602082019050919050565b6128c8816125a3565b82525050565b6128d781612877565b82525050565b6128e6816125e1565b82525050565b60c08201600082015161290260008501826128bf565b50602082015161291560208501826128ce565b50604082015161292860408501826128dd565b50606082015161293b60608501826128ce565b50608082015161294e60808501826128dd565b5060a082015161296160a08501826128dd565b50505050565b600061297383836128ec565b60c08301905092915050565b6000602082019050919050565b600061299782612893565b6129a1818561289e565b93506129ac836128af565b8060005b838110156129dd5781516129c48882612967565b97506129cf8361297f565b9250506001810190506129b0565b5085935050505092915050565b600081519050919050565b600082825260208201905092915050565b6000819050602082019050919050565b6000612a2283836128dd565b60208301905092915050565b6000602082019050919050565b6000612a46826129ea565b612a5081856129f5565b9350612a5b83612a06565b8060005b83811015612a8c578151612a738882612a16565b9750612a7e83612a2e565b925050600181019050612a5f565b5085935050505092915050565b6000608082019050612aae6000830187612657565b612abb6020830186612884565b8181036040830152612acd818561298c565b90508181036060830152612ae18184612a3b565b905095945050505050565b600080fd5b7f4e487b7100000000000000000000000000000000000000000000000000000000600052604160045260246000fd5b612b29826127b8565b810181811067ffffffffffffffff82111715612b4857612b47612af1565b5b80604052505050565b6000612b5b61256f565b9050612b678282612b20565b919050565b600067ffffffffffffffff821115612b8757612b86612af1565b5b602082029050602081019050919050565b600080fd5b6000612bb0612bab84612b6c565b612b51565b90508083825260208201905060208402830185811115612bd357612bd2612b98565b5b835b81811015612bfc5780612be88882612602565b845260208401935050602081019050612bd5565b5050509392505050565b600082601f830112612c1b57612c1a612aec565b5b8135612c2b848260208601612b9d565b91505092915050565b600060208284031215612c4a57612c49612579565b5b600082013567ffffffffffffffff811115612c6857612c6761257e565b5b612c7484828501612c06565b91505092915050565b60006020820190508181036000830152612c97818461298c565b905092915050565b60008060408385031215612cb657612cb5612579565b5b6000612cc485828601612602565b9250506020612cd585828601612602565b9150509250929050565b600080fd5b600067ffffffffffffffff821115612cff57612cfe612af1565b5b612d08826127b8565b9050602081019050919050565b82818337600083830152505050565b6000612d37612d3284612ce4565b612b51565b905082815260208101848484011115612d5357612d52612cdf565b5b612d5e848285612d15565b509392505050565b600082601f830112612d7b57612d7a612aec565b5b8135612d8b848260208601612d24565b91505092915050565b600080600080600060a08688031215612db057612daf612579565b5b6000612dbe888289016125cc565b9550506020612dcf888289016125cc565b945050604086013567ffffffffffffffff811115612df057612def61257e565b5b612dfc88828901612c06565b935050606086013567ffffffffffffffff811115612e1d57612e1c61257e565b5b612e2988828901612c06565b925050608086013567ffffffffffffffff811115612e4a57612e4961257e565b5b612e5688828901612d66565b9150509295509295909350565b600067ffffffffffffffff821115612e7e57612e7d612af1565b5b602082029050602081019050919050565b6000612ea2612e9d84612e63565b612b51565b90508083825260208201905060208402830185811115612ec557612ec4612b98565b5b835b81811015612eee5780612eda88826125cc565b845260208401935050602081019050612ec7565b5050509392505050565b600082601f830112612f0d57612f0c612aec565b5b8135612f1d848260208601612e8f565b91505092915050565b60008060408385031215612f3d57612f3c612579565b5b600083013567ffffffffffffffff811115612f5b57612f5a61257e565b5b612f6785828601612ef8565b925050602083013567ffffffffffffffff811115612f8857612f8761257e565b5b612f9485828601612c06565b9150509250929050565b60006020820190508181036000830152612fb88184612a3b565b905092915050565b60008060408385031215612fd757612fd6612579565b5b6000612fe585828601612602565b9250506020612ff6858286016125cc565b9150509250929050565b61300981612877565b811461301457600080fd5b50565b60008135905061302681613000565b92915050565b6000806000806080858703121561304657613045612579565b5b6000613054878288016125cc565b945050602061306587828801612602565b935050604061307687828801613017565b925050606061308787828801613017565b91505092959194509250565b60006020820190506130a86000830184612884565b92915050565b6000602082840312156130c4576130c3612579565b5b60006130d2848285016125cc565b91505092915050565b600081519050919050565b600082825260208201905092915050565b6000819050602082019050919050565b600082825260208201905092915050565b600061312382612893565b61312d8185613107565b9350613138836128af565b8060005b838110156131695781516131508882612967565b975061315b8361297f565b92505060018101905061313c565b5085935050505092915050565b60006131828383613118565b905092915050565b6000602082019050919050565b60006131a2826130db565b6131ac81856130e6565b9350836020820285016131be856130f7565b8060005b858110156131fa57848403895281516131db8582613176565b94506131e68361318a565b925060208a019950506001810190506131c2565b50829750879550505050505092915050565b600060208201905081810360008301526132268184613197565b905092915050565b613237816125a3565b82525050565b6000602082019050613252600083018461322e565b92915050565b61326181612706565b811461326c57600080fd5b50565b60008135905061327e81613258565b92915050565b6000806040838503121561329b5761329a612579565b5b60006132a9858286016125cc565b92505060206132ba8582860161326f565b9150509250929050565b600080604083850312156132db576132da612579565b5b60006132e9858286016125cc565b92505060206132fa858286016125cc565b9150509250929050565b600080600080600060a086880312156133205761331f612579565b5b600061332e888289016125cc565b955050602061333f888289016125cc565b945050604061335088828901612602565b935050606061336188828901612602565b925050608086013567ffffffffffffffff8111156133825761338161257e565b5b61338e88828901612d66565b9150509295509295909350565b60c0820160008201516133b160008501826128bf565b5060208201516133c460208501826128ce565b5060408201516133d760408501826128dd565b5060608201516133ea60608501826128ce565b5060808201516133fd60808501826128dd565b5060a082015161341060a08501826128dd565b50505050565b600060c08201905061342b600083018461339b565b92915050565b7f455243313135353a2062616c616e636520717565727920666f7220746865207a60008201527f65726f2061646472657373000000000000000000000000000000000000000000602082015250565b600061348d602b83612774565b915061349882613431565b604082019050919050565b600060208201905081810360008301526134bc81613480565b9050919050565b7f4e487b7100000000000000000000000000000000000000000000000000000000600052602260045260246000fd5b6000600282049050600182168061350a57607f821691505b60208210810361351d5761351c6134c3565b5b50919050565b7f4f6e6c79204c6f74746f2063616e2063616c6c00000000000000000000000000600082015250565b6000613559601383612774565b915061356482613523565b602082019050919050565b600060208201905081810360008301526135888161354c565b9050919050565b7f4e487b7100000000000000000000000000000000000000000000000000000000600052601160045260246000fd5b60006135c9826125e1565b91507fffffffffffffffffffffffffffffffffffffffffffffffffffffffffffffffff82036135fb576135fa61358f565b5b600182019050919050565b7f4e487b7100000000000000000000000000000000000000000000000000000000600052603260045260246000fd5b7f455243313135353a207472616e736665722063616c6c6572206973206e6f742060008201527f6f776e6572206e6f7220617070726f7665640000000000000000000000000000602082015250565b6000613691603283612774565b915061369c82613635565b604082019050919050565b600060208201905081810360008301526136c081613684565b9050919050565b7f455243313135353a206163636f756e747320616e6420696473206c656e67746860008201527f206d69736d617463680000000000000000000000000000000000000000000000602082015250565b6000613723602983612774565b915061372e826136c7565b604082019050919050565b6000602082019050818103600083015261375281613716565b9050919050565b600081519050613768816125eb565b92915050565b60006020828403121561378457613783612579565b5b600061379284828501613759565b91505092915050565b60006137a6826125e1565b91506137b1836125e1565b9250828210156137c4576137c361358f565b5b828203905092915050565b7f455243313135353a2063616c6c6572206973206e6f74206f776e6572206e6f7260008201527f20617070726f7665640000000000000000000000000000000000000000000000602082015250565b600061382b602983612774565b9150613836826137cf565b604082019050919050565b6000602082019050818103600083015261385a8161381e565b9050919050565b7f4e487b7100000000000000000000000000000000000000000000000000000000600052601260045260246000fd5b600061389b826125e1565b91506138a6836125e1565b9250826138b6576138b5613861565b5b828206905092915050565b60006138cc826125e1565b91506138d7836125e1565b9250827fffffffffffffffffffffffffffffffffffffffffffffffffffffffffffffffff0382111561390c5761390b61358f565b5b828201905092915050565b7f455243313135353a2069647320616e6420616d6f756e7473206c656e6774682060008201527f6d69736d61746368000000000000000000000000000000000000000000000000602082015250565b6000613973602883612774565b915061397e82613917565b604082019050919050565b600060208201905081810360008301526139a281613966565b9050919050565b7f455243313135353a207472616e7366657220746f20746865207a65726f20616460008201527f6472657373000000000000000000000000000000000000000000000000000000602082015250565b6000613a05602583612774565b9150613a10826139a9565b604082019050919050565b60006020820190508181036000830152613a34816139f8565b9050919050565b7f455243313135353a20696e73756666696369656e742062616c616e636520666f60008201527f72207472616e7366657200000000000000000000000000000000000000000000602082015250565b6000613a97602a83612774565b9150613aa282613a3b565b604082019050919050565b60006020820190508181036000830152613ac681613a8a565b9050919050565b60006040820190508181036000830152613ae78185612a3b565b90508181036020830152613afb8184612a3b565b90509392505050565b7f455243313135353a206d696e7420746f20746865207a65726f2061646472657360008201527f7300000000000000000000000000000000000000000000000000000000000000602082015250565b6000613b60602183612774565b9150613b6b82613b04565b604082019050919050565b60006020820190508181036000830152613b8f81613b53565b9050919050565b6000604082019050613bab6000830185612657565b613bb86020830184612657565b9392505050565b7f455243313135353a2073657474696e6720617070726f76616c2073746174757360008201527f20666f722073656c660000000000000000000000000000000000000000000000602082015250565b6000613c1b602983612774565b9150613c2682613bbf565b604082019050919050565b60006020820190508181036000830152613c4a81613c0e565b9050919050565b600081519050919050565b600082825260208201905092915050565b6000613c7882613c51565b613c828185613c5c565b9350613c92818560208601612785565b613c9b816127b8565b840191505092915050565b600060a082019050613cbb600083018861322e565b613cc8602083018761322e565b8181036040830152613cda8186612a3b565b90508181036060830152613cee8185612a3b565b90508181036080830152613d028184613c6d565b90509695505050505050565b600081519050613d1d816126ad565b92915050565b600060208284031215613d3957613d38612579565b5b6000613d4784828501613d0e565b91505092915050565b60008160e01c9050919050565b600060033d1115613d7c5760046000803e613d79600051613d50565b90505b90565b600060443d10613e0c57613d9161256f565b60043d036004823e80513d602482011167ffffffffffffffff82111715613db9575050613e0c565b808201805167ffffffffffffffff811115613dd75750505050613e0c565b80602083010160043d038501811115613df4575050505050613e0c565b613e0382602001850186612b20565b82955050505050505b90565b7f455243313135353a207472616e7366657220746f206e6f6e204552433131353560008201527f526563656976657220696d706c656d656e746572000000000000000000000000602082015250565b6000613e6b603483612774565b9150613e7682613e0f565b604082019050919050565b60006020820190508181036000830152613e9a81613e5e565b9050919050565b7f455243313135353a204552433131353552656365697665722072656a6563746560008201527f6420746f6b656e73000000000000000000000000000000000000000000000000602082015250565b6000613efd602883612774565b9150613f0882613ea1565b604082019050919050565b60006020820190508181036000830152613f2c81613ef0565b9050919050565b600060a082019050613f48600083018861322e565b613f55602083018761322e565b613f626040830186612657565b613f6f6060830185612657565b8181036080830152613f818184613c6d565b9050969550505050505056fea2646970667358221220586113adc0c32e90984163c37594e717e2ae95d270ef0c15fb294cfa1b39f68164736f6c634300080e0033",
  "immutableReferences": {},
  "source": "//SPDX-License-Identifier: MIT\r\npragma solidity ^0.8.0;\r\n\r\nimport \"@openzeppelin/contracts/token/ERC1155/ERC1155.sol\";\r\n// Safe math\r\nimport \"@openzeppelin/contracts/utils/math/SafeMath.sol\";\r\nimport \"./SafeMath8.sol\";\r\nimport \"./ITicketNFT.sol\";\r\nimport \"./ILottery.sol\";\r\n\r\ncontract TicketNFT is ITicketNFT, ERC1155 {\r\n    // Libraries\r\n    // Safe math\r\n    using SafeMath for uint256;\r\n    using SafeMath8 for uint8;\r\n\r\n    // State variables\r\n    ILottery internal lotteryContract_;\r\n\r\n    uint256 internal currentTicketId;\r\n\r\n    // Token ID => Token information\r\n    mapping(uint256 => TicketInfo) internal ticketInfo_;\r\n    // User address => Lottery ID => Ticket IDs\r\n    mapping(address => mapping(uint256 => uint256[])) internal userTickets_;\r\n\r\n    //-------------------------------------------------------------------------\r\n    // MODIFIERS\r\n    //-------------------------------------------------------------------------\r\n\r\n    /**\r\n     * @notice  Restricts minting of new tokens to only the lotto contract.\r\n     */\r\n    modifier onlyLotto() {\r\n        require(msg.sender == address(lotteryContract_), \"Only Lotto can call\");\r\n        _;\r\n    }\r\n\r\n    //-------------------------------------------------------------------------\r\n    // CONSTRUCTOR\r\n    //-------------------------------------------------------------------------\r\n\r\n    /**\r\n     * @param   _uri A dynamic URI that enables individuals to view information\r\n     *          around their NFT token. To see the information replace the\r\n     *          `\\{id\\}` substring with the actual token type ID. For more info\r\n     *          visit:\r\n     *          https://eips.ethereum.org/EIPS/eip-1155#metadata[defined in the EIP].\r\n     * @param   _lotto The address of the lotto contract. The lotto contract has\r\n     *          elevated permissions on this contract.\r\n     */\r\n    constructor(string memory _uri, address _lotto) ERC1155(_uri) {\r\n        // Only Lotto contract will be able to mint new tokens\r\n        lotteryContract_ = ILottery(_lotto);\r\n    }\r\n\r\n    //-------------------------------------------------------------------------\r\n    // VIEW FUNCTIONS\r\n    //-------------------------------------------------------------------------\r\n\r\n    function getCurrentTicketId() external view returns (uint256) {\r\n        return currentTicketId;\r\n    }\r\n\r\n    /**\r\n     * @param   _ticketID: The unique ID of the ticket\r\n     * @return  uint32[]: The chosen numbers for that ticket\r\n     */\r\n    function getTicketNumbers(uint256 _ticketID) external view returns (uint8) {\r\n        return ticketInfo_[_ticketID].numbers;\r\n    }\r\n\r\n    /**\r\n     * @param   _ticketID: The unique ID of the ticket\r\n     * @return  address: Owner of ticket\r\n     */\r\n    function getOwnerOfTicket(uint256 _ticketID)\r\n        external\r\n        view\r\n        returns (address)\r\n    {\r\n        return ticketInfo_[_ticketID].owner;\r\n    }\r\n\r\n    function getUserTicketIds(uint256 _lotteryId, address _user)\r\n        external\r\n        view\r\n        returns (uint256[] memory)\r\n    {\r\n        return userTickets_[_user][_lotteryId];\r\n    }\r\n\r\n    function getUserTickets(uint256 _lotteryId, address _user)\r\n        public\r\n        view\r\n        returns (TicketInfo[] memory)\r\n    {\r\n        uint256[] memory userTicketIds = userTickets_[_user][_lotteryId];\r\n        TicketInfo[] memory userTickets = new TicketInfo[](\r\n            userTicketIds.length\r\n        );\r\n        for (uint256 i = 0; i < userTicketIds.length; i++) {\r\n            userTickets[i] = ticketInfo_[userTicketIds[i]];\r\n        }\r\n        return userTickets;\r\n    }\r\n\r\n    function getUserTicketsAllRound(address _user)\r\n        external\r\n        view\r\n        returns (TicketInfo[][] memory)\r\n    {\r\n        uint256 currentLotteryId = lotteryContract_.viewCurrentLotteryId();\r\n        TicketInfo[][] memory tickets = new TicketInfo[][](currentLotteryId);\r\n        for (uint256 i = 1; i <= currentLotteryId; i++) {\r\n            tickets[i - 1] = getUserTickets(i, _user);\r\n        }\r\n        return tickets;\r\n    }\r\n\r\n    function getTicketInfo(uint256 _ticketID)\r\n        external\r\n        view\r\n        returns (TicketInfo memory)\r\n    {\r\n        return ticketInfo_[_ticketID];\r\n    }\r\n\r\n    function getTickets(uint256[] memory ticketIds) public view returns (TicketInfo[] memory) {\r\n        TicketInfo[] memory tickets = new TicketInfo[](ticketIds.length);\r\n        for (uint i = 0; i < ticketIds.length; i++) tickets[i] = ticketInfo_[ticketIds[i]];\r\n        return tickets;\r\n    }\r\n\r\n    /**\r\n     * @return uint256: Total winning tickets\r\n     * @return uint8: Final number\r\n     * @return TicketInfo[]: TicketInfo of winning tickets\r\n     */\r\n    function getWinningTickets(\r\n        uint256 _lotteryId,\r\n        uint256 _randomNumber,\r\n        uint256 _firstTicketId\r\n    )\r\n        external\r\n        view\r\n        onlyLotto\r\n        returns (\r\n            uint256,\r\n            uint8,\r\n            TicketInfo[] memory,\r\n            uint256[] memory\r\n        )\r\n    {\r\n        uint8 finalNumber = uint8(_randomNumber.mod(100));\r\n        uint256 totalTickets = 0;\r\n        uint256 winningTicketsLength = 0;\r\n        for (uint256 i = _firstTicketId; i <= currentTicketId; i++) {\r\n            if (\r\n                ticketInfo_[i].numbers == finalNumber &&\r\n                ticketInfo_[i].lotteryId == _lotteryId\r\n            ) winningTicketsLength++;\r\n        }\r\n        TicketInfo[] memory winningTickets = new TicketInfo[](\r\n            winningTicketsLength\r\n        );\r\n        uint256[] memory winningTicketIds = new uint256[](winningTicketsLength);\r\n        uint256 j = 0;\r\n        for (uint256 i = _firstTicketId; i <= currentTicketId; i++) {\r\n            if (\r\n                ticketInfo_[i].numbers == finalNumber &&\r\n                ticketInfo_[i].lotteryId == _lotteryId\r\n            ) {\r\n                totalTickets = totalTickets.add(ticketInfo_[i].numberOfTickets);\r\n\r\n                winningTickets[j] = (ticketInfo_[i]);\r\n                winningTicketIds[j] = i;\r\n                j++;\r\n            }\r\n        }\r\n        return (totalTickets, finalNumber, winningTickets, winningTicketIds);\r\n    }\r\n\r\n    //-------------------------------------------------------------------------\r\n    // STATE MODIFYING FUNCTIONS\r\n    //-------------------------------------------------------------------------\r\n\r\n    /**\r\n     * @param   _to The address being minted to\r\n     * @param   _numberOfTickets The number of NFT's to mint\r\n     * @notice  Only the lotto contract is able to mint tokens. \r\n        // uint8[][] calldata _lottoNumbers\r\n     */\r\n    function Mint(\r\n        address _to,\r\n        uint256 _lotteryId,\r\n        uint8 _numberOfTickets,\r\n        uint8 _numbers\r\n    ) external onlyLotto returns (uint256) {\r\n        // Incrementing the tokenId counter\r\n        currentTicketId = currentTicketId.add(1);\r\n        uint256 ticketId = currentTicketId;\r\n        // Storing the ticket information\r\n        ticketInfo_[currentTicketId] = TicketInfo(\r\n            _to,\r\n            _numbers,\r\n            _lotteryId,\r\n            _numberOfTickets,\r\n            0,\r\n            block.timestamp\r\n        );\r\n        userTickets_[_to][_lotteryId].push(currentTicketId);\r\n        // Minting the ticket\r\n        _mint(_to, ticketId, _numberOfTickets, msg.data);\r\n        // Returns the ticket ID of minted ticket\r\n        return ticketId;\r\n    }\r\n\r\n    function setTicketWinAmount(uint256 ticketId, uint256 amount)\r\n        external\r\n        onlyLotto\r\n    {\r\n        ticketInfo_[ticketId].winAmount = amount;\r\n    }\r\n}\r\n",
  "sourcePath": "D:\\contract-xosoblockchain\\contracts\\TicketNFT.sol",
  "compiler": {
    "name": "solc",
    "version": "0.8.14+commit.80d49f37.Emscripten.clang"
  },
  "schemaVersion": "3.4.5",
  "updatedAt": "2022-05-30T07:36:14.520Z",
  "networkType": "ethereum",
  "devdoc": {
    "kind": "dev",
    "methods": {
      "Mint(address,uint256,uint8,uint8)": {
        "params": {
          "_numberOfTickets": "The number of NFT's to mint",
          "_to": "The address being minted to"
        }
      },
      "balanceOf(address,uint256)": {
        "details": "See {IERC1155-balanceOf}. Requirements: - `account` cannot be the zero address."
      },
      "balanceOfBatch(address[],uint256[])": {
        "details": "See {IERC1155-balanceOfBatch}. Requirements: - `accounts` and `ids` must have the same length."
      },
      "constructor": {
        "params": {
          "_lotto": "The address of the lotto contract. The lotto contract has          elevated permissions on this contract.",
          "_uri": "A dynamic URI that enables individuals to view information          around their NFT token. To see the information replace the          `\\{id\\}` substring with the actual token type ID. For more info          visit:          https://eips.ethereum.org/EIPS/eip-1155#metadata[defined in the EIP]."
        }
      },
      "getOwnerOfTicket(uint256)": {
        "params": {
          "_ticketID": ": The unique ID of the ticket"
        },
        "returns": {
          "_0": "address: Owner of ticket"
        }
      },
      "getTicketNumbers(uint256)": {
        "params": {
          "_ticketID": ": The unique ID of the ticket"
        },
        "returns": {
          "_0": "uint32[]: The chosen numbers for that ticket"
        }
      },
      "getWinningTickets(uint256,uint256,uint256)": {
        "returns": {
          "_0": "uint256: Total winning tickets",
          "_1": "uint8: Final number",
          "_2": "TicketInfo[]: TicketInfo of winning tickets"
        }
      },
      "isApprovedForAll(address,address)": {
        "details": "See {IERC1155-isApprovedForAll}."
      },
      "safeBatchTransferFrom(address,address,uint256[],uint256[],bytes)": {
        "details": "See {IERC1155-safeBatchTransferFrom}."
      },
      "safeTransferFrom(address,address,uint256,uint256,bytes)": {
        "details": "See {IERC1155-safeTransferFrom}."
      },
      "setApprovalForAll(address,bool)": {
        "details": "See {IERC1155-setApprovalForAll}."
      },
      "supportsInterface(bytes4)": {
        "details": "See {IERC165-supportsInterface}."
      },
      "uri(uint256)": {
        "details": "See {IERC1155MetadataURI-uri}. This implementation returns the same URI for *all* token types. It relies on the token type ID substitution mechanism https://eips.ethereum.org/EIPS/eip-1155#metadata[defined in the EIP]. Clients calling this function must replace the `\\{id\\}` substring with the actual token type ID."
      }
    },
    "version": 1
  },
  "userdoc": {
    "kind": "user",
    "methods": {
      "Mint(address,uint256,uint8,uint8)": {
        "notice": "Only the lotto contract is able to mint tokens.  // uint8[][] calldata _lottoNumbers"
      }
    },
    "version": 1
  }
}